{
  "_format": "hh-sol-artifact-1",
  "contractName": "HairRenderer25",
  "sourceName": "contracts/traits/HairRenderer25.sol",
  "abi": [
    {
      "inputs": [
        {
          "internalType": "uint256",
          "name": "_position",
          "type": "uint256"
        }
      ],
      "name": "render",
      "outputs": [
        {
          "internalType": "string",
          "name": "",
          "type": "string"
        }
      ],
      "stateMutability": "pure",
      "type": "function"
    },
    {
      "inputs": [],
      "name": "render",
      "outputs": [
        {
          "internalType": "string",
          "name": "",
          "type": "string"
        }
      ],
      "stateMutability": "pure",
      "type": "function"
    }
  ],
  "bytecode": "0x60808060405234610016576125fd908161001c8239f35b600080fdfe6080604052600436101561001257600080fd5b6000803560e01c8063c321118c1461206a5763d607497a1461003357600080fd5b3461206757806003193601126120675761206361004e612111565b612057611d0661005c612111565b92610065612111565b61006d612111565b906040519586937f3c7061746820643d224d3336302031303868397639682d397a6d39203068397660208601527f39682d397a6d39203068397639682d397a6d3534203068397639682d397a6d3960408601527f203068397639682d397a6d2d3939203968397639682d397a6d3920306839763960608601527f682d397a6d3237203068397639682d397a6d3336203068397639682d397a6d3960808601527f203068397639682d397a6d3138203068397639682d397a6d2d3132362039683960a08601527f7639682d397a6d39203068397639682d397a6d39203068397639682d397a6d3360c08601527f36203068397639682d397a6d3237203068397639682d397a6d3920306839763960e08601527f682d397a6d3237203068397639682d397a6d2d313335203968397639682d397a6101008601527f6d39203068397639682d397a6d3534203068397639682d397a6d3138203068396101208601527f7639682d397a6d39203068397639682d397a6d3435203068397639682d397a6d806101408701527f2d313533203968397639682d397a6d39203068397639682d397a6d37322030686101608701527f397639682d397a6d39203068397639682d397a6d3534203068397639682d397a6101808701527f6d2d313533203968397639682d397a6d313533203068397639682d397a6d39206101a08701527f3068397639682d397a6d2d313731203968397639682d397a6d313830203068396101c08701527f7639682d397a6d2d313839203968397639682d397a6d313938203068397639686101e08701527f2d397a6d2d323037203968397639682d397a6d323136203068397639682d397a6102008701527f6d2d323235203968397639682d397a6d323334203068397639682d397a6d2d326102208701527f3334203968397639682d397a6d323433203068397639682d397a6d2d323532206102408701527f3968397639682d397a6d323631203068397639682d397a6d2d323631203968396102608701527f7639682d397a6d323730203068397639682d397a6d2d323739203968397639686102808701527f2d397a6d323838203068397639682d397a6d39203068397639682d397a6d2d326102a08701527f3937203968397639682d397a6d313830203068397639682d397a6d31313720306102c08701527f68397639682d397a6d2d323937203968397639682d397a6d39302030683976396102e08701527f682d397a6d3138203068397639682d397a6d3633203068397639682d397a6d316103008701527f38203068397639682d397a6d3930203068397639682d397a6d392030683976396103208701527f682d397a6d2d323838203968397639682d397a6d313137203068397639682d396103408701527f7a6d3534203068397639682d397a6d3138203068397639682d397a6d383120306103608701527f68397639682d397a6d2d323730203968397639682d397a6d31313720306839766103808701527f39682d397a6d3534203068397639682d397a6d3237203068397639682d397a6d6103a08701527f3237203068397639682d397a6d3435203068397639682d397a6d2d32373020396103c08701527f68397639682d397a6d3930203068397639682d397a6d3336203068397639682d6103e08701527f397a6d3534203068397639682d397a6d3237203068397639682d397a6d3138206104008701527f3068397639682d397a6d3435203068397639682d397a6d2d32373020396839766104208701527f39682d397a6d3534203068397639682d397a6d3336203068397639682d397a6d6104408701527f3435203068397639682d397a6d3435203068397639682d397a6d3336203068396104608701526104808601527f2d323730203968397639682d397a6d3138203068397639682d397a6d333620306104a08601527f68397639682d397a6d3336203068397639682d397a6d3534203068397639682d6104c08601527f397a6d3336203068397639682d397a6d3435203068397639682d397a6d3435206104e08601527f3068397639682d397a6d2d323937203968397639682d397a6d392030683976396105008601527f682d397a6d39203068397639682d397a6d3633203068397639682d397a6d32376105208601527f203068397639682d397a6d3732203068397639682d397a6d39203068397639686105408601527f2d397a6d3237203068397639682d397a6d3336203068397639682d397a6d34356105608601527f203068397639682d397a6d2d323937203968397639682d397a6d3930203068396105808601527f7639682d397a6d3138203068397639682d397a6d3930203068397639682d397a6105a08601527f6d39203068397639682d397a6d39203068397639682d397a6d333620306839766105c08601527f39682d397a6d3435203068397639682d397a6d2d323838203968397639682d396105e08601527f7a6d3930203068397639682d397a6d313632203068397639682d397a6d3237206106008601527f3068397639682d397a6d2d323730203968397639682d397a6d392030683976396106208601527f682d397a6d323631203068397639682d397a6d2d39203968397639682d397a6d6106408601527f30203968397639682d397a6d30203968397639682d397a6d2d333620396839766106608601527f39682d397a6d3237203068397639682d397a6d2d3237203968397639682d397a6106808601527f6d3237203068397639682d397a6d2d3138203968397639682d397a6d313820306106a08601527f68397639682d397a6d2d39203968397639682d397a6d3138203068397639682d6106c08601527f397a6d2d39203968397639682d397a6d39203068397639682d397a00000000006106e08601527f3336302031313768397639682d397a6d39203068397639682d397a6d363320306106fb916108e6815180926020868b01910161208a565b8601918201527f68397639682d397a6d2d3930203968397639682d397a6d39203068397639682d61071b8201527f397a6d3633203068397639682d397a6d39203068397639682d397a6d2d3130388061073b8301527f203968397639682d397a6d39203068397639682d397a6d39203068397639682d61075b83015261077b8201527f203968397639682d397a6d39203068397639682d397a6d37322030683976396861079b8201527f2d397a6d39203068397639682d397a6d2d313038203968397639682d397a6d396107bb8201527f203068397639682d397a6d2d3138203968397639682d397a6d313533203068396107db8201527f7639682d397a6d39203068397639682d397a6d2d313731203968397639682d396107fb8201527f7a6d313830203068397639682d397a6d2d313839203968397639682d397a6d3161081b8201527f3938203068397639682d397a6d2d323037203968397639682d397a6d3231362061083b8201527f3068397639682d397a6d2d323136203968397639682d397a6d3230372030683961085b8201527f7639682d397a6d39203068397639682d397a6d39203068397639682d397a6d2d61087b8201527f323334203968397639682d397a6d3138203068397639682d397a6d313820306861089b8201527f397639682d397a6d313335203068397639682d397a6d39203068397639682d396108bb8201527f7a6d3237203068397639682d397a6d39203068397639682d397a6d39203068396108db8201527f7639682d397a6d3138203068397639682d397a6d2d323136203968397639682d6108fb8201527f397a6d3138203068397639682d397a6d39203068397639682d397a6d392030688061091b8301527f397639682d397a6d3435203068397639682d397a6d39203068397639682d397a61093b8301527f6d39203068397639682d397a6d39203068397639682d397a6d3237203068397661095b8301527f39682d397a6d39203068397639682d397a6d39203068397639682d397a6d39208061097b8401527f3068397639682d397a6d3138203068397639682d397a6d39203068397639682d61099b8401527f397a6d39203068397639682d397a6d39203068397639682d397a6d31382030686109bb8401527f397639682d397a6d2d323037203968397639682d397a6d39203068397639682d6109db8401527f397a6d39203068397639682d397a6d3336203068397639682d397a6d392030686109fb8401527f397639682d397a6d39203068397639682d397a6d39203068397639682d397a6d9283610a1b8201527f39203068397639682d397a6d39203068397639682d397a6d31382030683976399081610a3b8201527f682d397a6d39203068397639682d397a6d39203068397639682d397a6d392030610a5b8201527f3332342031353368397639682d397a6d39203068397639682d397a6d2d31382060207f68397639682d397a6d39203068397639682d397a6d3237203068397639682d399283610a7b8201527f7a6d39203068397639682d397a6d3237203068397639682d397a6d2d32313620610a9b8201527f3968397639682d397a6d39203068397639682d397a6d39203068397639682d39610abb8201527f7a6d3336203068397639682d397a6d39203068397639682d397a6d39203068399384610adb8301527f3336302031323668397639682d397a6d2d3138203968397639682d397a6d39207f7639682d397a6d39203068397639682d397a6d39203068397639682d397a6d399a8b610afb8501527f203068397639682d397a6d3237203068397639682d397a6d3920306839763968610b1b8501527f2d397a6d3930203068397639682d397a6d2d323235203968397639682d397a6d610b3b8501527f39203068397639682d397a6d39203068397639682d397a6d3534203068397639610b5b8501527f682d397a6d39203068397639682d397a6d39203068397639682d397a6d2d3831610b7b8501527f203968397639682d397a222066696c6c3d222331463531434600000000000000610b9b850152610bb493610ed58251809388888501910161208a565b01928301527f3068397639682d397a6d3633203068397639682d397a6d2d393920396839763980610bd48401527f682d397a6d39203068397639682d397a6d39203068397639682d397a6d363320610bf48401527f3068397639682d397a6d39203068397639682d397a6d2d313038203968397639610c148401527f682d397a6d39203068397639682d397a6d3534203068397639682d397a6d3920610c348401527f3432332031333568397639682d397a6d2d3831203968397639682d397a6d39207f3068397639682d397a6d39203068397639682d397a6d39203068397639682d399c8d610c548601527f7a6d2d313038203968397639682d397a6d39203068397639682d397a6d333620610c748601528d610c948601527f7a6d39203068397639682d397a6d39203068397639682d397a6d392030683976998a610cb4870152610cd48601528d610cf48601527f7a6d2d313434203968397639682d397a6d3435203068397639682d397a6d3920610d148601527f3068397639682d397a6d39203068397639682d397a6d3138203068397639682d610d348601527f397a6d39203068397639682d397a6d3138203068397639682d397a6d392030689788610d548701528c610d748701527f2d313434203968397639682d397a6d3336203068397639682d397a6d39203068610d948701528c610db48701527f3237203068397639682d397a6d3237203068397639682d397a6d323720306839610dd48701527f7639682d397a6d39203068397639682d397a6d2d313632203968397639682d39610df4870152610e148601527f7639682d397a6d39203068397639682d397a6d3237203068397639682d397a6d610e348601527f3831203068397639682d397a6d3237203068397639682d397a6d2d3137312039610e548601527f68397639682d397a6d3138203068397639682d397a6d3336203068397639682d610e748601527f397a6d3534203068397639682d397a6d3435203068397639682d397a6d392030610e948601527f68397639682d397a6d2d313938203968397639682d397a6d3435203068397639610eb48601527f682d397a6d39203068397639682d397a6d3237203068397639682d397a6d2d39610ed48601527f30203968397639682d397a6d2d39203968397639682d397a6d33362030683976610ef48601527f39682d397a6d313839203068397639682d397a6d3336203068397639682d397a610f148601527f6d2d323631203968397639682d397a6d3237203068397639682d397a6d392030610f348601527f68397639682d397a6d313632203068397639682d397a6d39203068397639682d610f548601527f397a6d3138203068397639682d397a6d3138203068397639682d397a6d392030610f748601527f68397639682d397a6d3138203068397639682d397a6d2d323730203968397639610f948601527f682d397a6d3237203068397639682d397a6d39203068397639682d397a6d3137610fb48601527f31203068397639682d397a6d3435203068397639682d397a6d2d323532203968610fd48601527f397639682d397a6d30203968397639682d397a6d313938203068397639682d39610ff48601527f7a6d39203068397639682d397a6d2d323037203968397639682d397a6d3534206110148601527f3068397639682d397a6d3732203068397639682d397a6d39203068397639682d6110348601527f397a6d3237203068397639682d397a6d3435203068397639682d397a6d2d32306110548601527f37203968397639682d397a6d3534203068397639682d397a6d392030683976396110748601527f682d397a6d39203068397639682d397a6d3633203068397639682d397a6d39206110948601528d6110b48601527f7a6d2d313632203968397639682d397a6d3534203068397639682d397a6d39206110d48601527f3068397639682d397a6d39203068397639682d397a6d3732203068397639682d6110f48601527f397a6d39203068397639682d397a6d39203068397639682d397a6d2d313731206111148601527f3968397639682d397a6d3633203068397639682d397a6d39203068397639682d6111348601527f397a6d3939203068397639682d397a6d39203068397639682d397a6d383120306111548601527f68397639682d397a6d2d323739203968397639682d397a6d39203068397639686111748601527f2d397a6d3831203068397639682d397a6d313839203068397639682d397a6d2d6111948601527f39203968397639682d397a6d30203968397639682d397a6d2d392039683976396111b48601527f682d397a6d30203968397639682d397a6d30203968397639682d397a6d2d39206111d48601527f3968397639682d397a6d30203968397639682d397a6d30203968397639682d396111f48601526f3d11103334b6361e911198a199221c1960811b611214860152611224946115ee8251809389898501910161208a565b01938401526112448301527f682d397a6d3237203068397639682d397a6d39203068397639682d397a6d34356112648301527f203068397639682d397a6d39203068397639682d397a6d39203068397639682d97886112848401527f397a6d2d313137203968397639682d397a6d39203068397639682d397a6d2d326112a48401527f37203968397639682d397a6d39203068397639682d397a6d35342030683976396112c48401527f682d397a6d3237203068397639682d397a6d3435203068397639682d397a6d396112e48401527f203068397639682d397a6d39203068397639682d397a6d2d31363220396839766113048401527f39682d397a6d39203068397639682d397a6d3534203068397639682d397a6d326113248401527f37203068397639682d397a6d39203068397639682d397a6d31382030683976396113448401527f682d397a6d39203068397639682d397a6d3237203068397639682d397a6d39206113648401527f3068397639682d397a6d39203068397639682d397a6d2d3138302039683976396113848401527f682d397a6d39203068397639682d397a6d3534203068397639682d397a6d32376113a4840152886113c48401526113e48301527f397639682d397a6d3237203068397639682d397a6d39203068397639682d397a6114048301527f6d2d313839203968397639682d397a6d39203068397639682d397a6d34352030611424830152611444820152856114648201527f39682d397a6d3237203068397639682d397a6d39203068397639682d397a6d396114848201527f203068397639682d397a6d2d313038203968397639682d397a6d3237203068396114a4820152886114c4820152866114e48201527f397a6d3138203068397639682d397a6d3237203068397639682d397a6d2d31316115048201527f37203968397639682d397a6d3138203068397639682d397a6d392030683976396115248201527f682d397a6d3435203068397639682d397a6d2d3732203968397639682d397a6d6115448201527f3138203068397639682d397a6d2d3138203968397639682d397a6d31382030686115648201527f397639682d397a6d39203968397639682d397a6d31313720333668397639682d6115848201527f397a6d39203068397639682d397a6d2d39203968397639682d397a6d392030686115a4820152876115c48201527f2d323532203968397639682d397a6d323235203068397639682d397a6d3920306115e48201527f68397639682d397a6d39203068397639682d397a6d2d323532203968397639686116048201527f2d397a6d39203068397639682d397a6d39203068397639682d397a6d32313620611624820152896116448201527f7a6d2d323631203968397639682d397a6d39203068397639682d397a6d3920306116648201527f68397639682d397a6d39203068397639682d397a6d323235203068397639682d6116848201527f397a6d30203968397639682d397a6d2d3920313868397639682d397a6d2d39206116a48201527f3968397639682d397a6d39203068397639682d397a6d2d39203968397639682d6116c48201527f397a6d30203968397639682d397a222066696c6c3d22233132314234350000006116e4820152611ab26117018c819d519485928501910161208a565b01988901527f3968397639682d397a6d2d3138203968397639682d397a6d39203068397639686117218901527f2d397a6d2d3138203968397639682d397a6d3534203068397639682d397a6d2d6117418901527f3633203968397639682d397a6d3534203068397639682d397a6d3435203068396117618901527f7639682d397a6d3336203068397639682d397a6d2d313434203968397639682d6117818901527f397a6d3138203068397639682d397a6d3336203068397639682d397a6d3534206117a18901527f3068397639682d397a6d3435203068397639682d397a6d2d31363220396839766117c18901527f39682d397a6d3138203068397639682d397a6d3336203068397639682d397a6d6117e18901527f3732203068397639682d397a6d3435203068397639682d397a6d3336203068396118018901527f7639682d397a6d2d323235203968397639682d397a6d39203068397639682d396118218901527f7a6d3138203068397639682d397a6d3435203068397639682d397a6d373220306118418901527f68397639682d397a6d3435203068397639682d397a6d3435203068397639682d6118618901527f397a6d2d323433203968397639682d397a6d39203068397639682d397a6d39206118818901527f3068397639682d397a6d3138203068397639682d397a6d3435203068397639686118a18901527f2d397a6d3732203068397639682d397a6d3534203068397639682d397a6d33366118c18901527f203068397639682d397a6d2d323433203968397639682d397a6d3920306839766118e18901527f39682d397a6d3237203068397639682d397a6d3435203068397639682d397a6d6119018901527f3732203068397639682d397a6d3534203068397639682d397a6d3138203068396119218901527f7639682d397a6d3237203068397639682d397a6d2d323532203968397639682d6119418901527f397a6d39203068397639682d397a6d3237203068397639682d397a6d373220306119618901527f68397639682d397a6d3336203068397639682d397a6d3336203068397639682d6119818901526119a1880152836119c18801527f3138203068397639682d397a6d2d323532203968397639682d397a6d392030686119e188015283611a01880152611a218701527f682d397a6d39203068397639682d397a6d3336203068397639682d397a6d3920611a4187015284611a618701527f7a6d39203068397639682d397a6d3336203068397639682d397a6d3920306839611a8187015283611aa187015281611ac18701527f397a6d39203068397639682d397a6d2d323433203968397639682d397a6d3920611ae187015284611b01870152611b218601527f39682d397a6d39203068397639682d397a6d39203068397639682d397a6d3336611b41860152611b618501527f397a6d39203068397639682d397a6d39203068397639682d397a6d3732203068611b81850152611ba18401527f39203068397639682d397a6d2d323433203968397639682d397a6d3920306839611bc1840152611be18301527f203068397639682d397a6d3138203068397639682d397a6d3920306839763968611c018301527f2d397a6d3732203068397639682d397a6d39203068397639682d397a6d373220611c21830152611c418201527f7a6d39203068397639682d397a6d2d323433203968397639682d397a6d392030611c618201527f68397639682d397a6d39203068397639682d397a6d39203068397639682d397a611c818201527f6d323037203068397639682d397a6d39203068397639682d397a6d2d32343320611ca18201527f313868397639682d397a6d2d3920323768397639682d397a6d39203068397639611cc18201527f682d397a6d32323520363368397639682d397a222066696c6c3d222330393038611ce182015264181c91179f60d91b611d0182015203611ce68101845201826120d9565b604051918291826120ad565b0390f35b80fd5b50346120675760203660031901126120675761206361205760043561214b565b60005b83811061209d5750506000910152565b818101518382015260200161208d565b604091602082526120cd815180928160208601526020868601910161208a565b601f01601f1916010190565b90601f8019910116810190811067ffffffffffffffff8211176120fb57604052565b634e487b7160e01b600052604160045260246000fd5b604051906040820182811067ffffffffffffffff8211176120fb57604052600d82526c222f3e3c7061746820643d224d60981b6020830152565b6001036125b1577f3235322033343268397639682d397a6d2d39203968397639682d397a6d3920306125ae61033f612181612111565b612189612111565b907f3236312033353168397639682d397a6d39203968397639682d397a6d392030686121b3612111565b6040519687947f3c7061746820643d224d3234332033333368397639682d397a6d2d392039683960208701527f7639682d397a6d2d39203968397639682d397a6d39203968397639682d397a6d60408701527f323334203068397639682d397a6d2d323235203968397639682d397a6d39203060608701527f68397639682d397a6d323235203068397639682d397a6d2d323136203968397660808701527f39682d397a6d313632203068397639682d397a6d39203068397639682d397a6d60a08701527f3336203068397639682d397a6d2d313938203968397639682d397a6d3134342060c08701527f3068397639682d397a6d2d313533203968397639682d397a6d3920306839763960e08701527f682d397a6d313533203068397639682d397a6d39203068397639682d397a6d2d6101008701527f313533203968397639682d397a6d313236203068397639682d397a6d39203068610120870152721cbb1cb4169cbd369c9018341cbb1cb4169cbd60691b6101408701527f3234332033343268397639682d397a6d2d39203968397639682d397a6d392039610153956123668151809260208a8c01910161208a565b8701958601527f68397639682d397a6d39203068397639682d397a6d39203968397639682d397a6101738601527f6d313632203068397639682d397a6d3435203068397639682d397a6d2d3139386101938601527f203968397639682d397a6d313434203068397639682d397a6d2d3133352039686101b38601527f397639682d397a6d313236203068397639682d397a6d2d3132362039683976396101d38601527f682d397a6d39203068397639682d397a6d313137203068397639682d397a6d396101f38601527f203068397639682d397a222066696c6c3d22233132314234350000000000000061021386015261022c9461246d825180936020898501910161208a565b01938401527f68397639682d397a6d39203968397639682d397a6d39203968397639682d397a61024c8401527f6d39203968397639682d397a6d313236203068397639682d397a6d2d3131372061026c8401527f3968397639682d397a6d39203068397639682d397a222066696c6c3d2223304561028c840152633131323760e01b6102ac8401526102b09261250c825180936020878501910161208a565b01918201527f397639682d397a6d30203968397639682d397a6d39203068397639682d397a6d6102d08201527f39203068397639682d397a6d2d39203968397639682d397a6d392030683976396102f08201527f682d397a6d39203068397639682d397a6d3930203068397639682d397a2220666103108201526e34b6361e9111981c981c181c91179f60891b6103308201520361031f8101845201826120d9565b90565b6125b9612111565b6125ae611d0661005c61211156fea26469706673582212204e2b5ebe5b115ef959d2c9b7a2b534fbca7e1f7d4b4dfc312098c28d65b0cd3464736f6c63430008180033",
  "linkReferences": {},
  "deployedLinkReferences": {}
}