{
  "_format": "hh-sol-artifact-1",
  "contractName": "HairRenderer19",
  "sourceName": "contracts/traits/HairRenderer19.sol",
  "abi": [
    {
      "inputs": [
        {
          "internalType": "uint256",
          "name": "_position",
          "type": "uint256"
        }
      ],
      "name": "render",
      "outputs": [
        {
          "internalType": "string",
          "name": "",
          "type": "string"
        }
      ],
      "stateMutability": "pure",
      "type": "function"
    },
    {
      "inputs": [],
      "name": "render",
      "outputs": [
        {
          "internalType": "string",
          "name": "",
          "type": "string"
        }
      ],
      "stateMutability": "pure",
      "type": "function"
    }
  ],
  "bytecode": "0x6080806040523461001657613bb6908161001c8239f35b600080fdfe6080604052600436101561001257600080fd5b6000803560e01c8063c321118c14611f835763d607497a1461003357600080fd5b34611f805780600319360112611f8057611f7c61004e61202a565b611f70611bdd61005c61202a565b9261006561202a565b6040519485927f3c706174682066696c6c3d22233132313533452220643d224d3331352031323660208501527f68397639682d397a6d39203068397639682d397a6d39203068397639682d397a918260408601527f6d39203068397639682d397a6d3237203068397639682d397a6d39203068397660608601527f39682d397a6d39203068397639682d397a6d39203068397639682d397a6d3920928360808701527f3068397639682d397a6d2d313038203968397639682d397a6d3920306839763960a08701527f682d397a6d3435203068397639682d397a6d39203068397639682d397a6d353460c08701527f203068397639682d397a6d2d313335203968397639682d397a6d39203068397660e08701527f39682d397a6d313335203068397639682d397a6d2d313533203968397639682d6101008701527f397a6d313632203068397639682d397a6d2d313731203968397639682d397a6d6101208701527f313830203068397639682d397a6d2d313839203968397639682d397a6d3139386101408701527f203068397639682d397a6d2d323037203968397639682d397a6d3231362030686101608701527f397639682d397a6d2d323235203968397639682d397a6d3233342030683976396101808701527f682d397a6d2d323433203968397639682d397a6d323433203068397639682d396101a08701527f7a6d2d323433203968397639682d397a6d323532203068397639682d397a6d2d6101c08701527f323631203968397639682d397a6d323730203068397639682d397a6d2d3237306101e08701527f203968397639682d397a6d323730203068397639682d397a6d2d3237392039686102008701527f397639682d397a6d323739203068397639682d397a6d2d3238382039683976396102208701527f682d397a6d3138203068397639682d397a6d323739203068397639682d397a6d6102408701527f2d333036203968397639682d397a6d3138203068397639682d397a6d392030686102608701527f397639682d397a6d323739203068397639682d397a6d2d3331352039683976396102808701527f682d397a6d3138203068397639682d397a6d323937203068397639682d397a6d6102a08701527f2d333135203968397639682d397a6d3138203068397639682d397a6d333036206102c08701527f3068397639682d397a6d2d333234203968397639682d397a6d313820306839766102e08701527f39682d397a6d3237203068397639682d397a6d323631203068397639682d397a6103008701527f6d3138203068397639682d397a6d2d333234203968397639682d397a6d3138206103208701527f3068397639682d397a6d39203068397639682d397a6d3138203068397639682d6103408701527f397a6d3138203068397639682d397a6d39203068397639682d397a6d392030686103608701527f397639682d397a6d39203068397639682d397a6d3237203068397639682d397a6103808701527f6d313839203068397639682d397a6d3138203068397639682d397a6d2d3331356103a08701527f203968397639682d397a6d3435203068397639682d397a6d34352030683976396103c08701527f682d397a6d39203068397639682d397a6d313938203068397639682d397a6d316103e08701527f38203068397639682d397a6d2d333036203968397639682d397a6d39203068396104008701527f7639682d397a6d3336203068397639682d397a6d39203068397639682d397a6d6104208701527f39203068397639682d397a6d39203068397639682d397a6d31383020306839766104408701527f39682d397a6d3336203068397639682d397a6d3138203068397639682d397a6d6104608701527f2d3534203968397639682d397a6d3336203068397639682d397a6d31382030686104808701527f397639682d397a6d2d3534203968397639682d397a6d3237203068397639682d6104a08701527f397a6d3138203068397639682d397a6d2d3435203968397639682d397a6d31386104c08701527f203068397639682d397a6d3138203068397639682d397a6d2d333620396839766104e08701527f39682d397a6d39203068397639682d397a222f3e3c706174682066696c6c3d226105008701527f233130453539322220643d224d3331352031333568397639682d397a6d39203061052087015280610540870152857f6d3237203068397639682d397a6d39203068397639682d397a6d392030683976806105608301527f39682d397a6d39203068397639682d397a6d39203068397639682d397a6d2d3192836105808401527f3038203968397639682d397a6d39203068397639682d397a6d313038203068396105a08401527f7639682d397a6d2d313335203968397639682d397a6d39203068397639682d396105c08401527f7a6d313335203068397639682d397a6d2d313533203968397639682d397a6d316105e08401527f3632203068397639682d397a6d2d313731203968397639682d397a6d313830206106008401527f3068397639682d397a6d2d313839203968397639682d397a6d313938203068396106208401527f7639682d397a6d2d323037203968397639682d397a6d323136203068397639686106408401527f2d397a6d2d323235203968397639682d397a6d323235203068397639682d397a6106608401527f6d2d323235203968397639682d397a6d323334203068397639682d397a6d2d326106808401527f3433203968397639682d397a6d323532203068397639682d397a6d2d323532206106a08401527f3968397639682d397a6d323532203068397639682d397a6d2d323532203968396106c08401527f7639682d397a6d323532203068397639682d397a6d2d323532203968397639686106e08401527f2d397a6d323631203068397639682d397a6d30203968397639682d397a6d30206107008401527f3968397639682d397a6d39203968397639682d397a6d30203968397639682d396107208401527f7a6d30203968397639682d397a6d30203968397639682d397a6d3020396839766107408401527f39682d397a6d30203968397639682d397a6d2d39203968397639682d397a222f6107608401527f3e3c706174682066696c6c3d22233134383339312220643d224d3331352031346107808401527f3468397639682d397a6d39203068397639682d397a6d39203068397639682d396107a08401527f7a6d39203068397639682d397a6d2d3435203968397639682d397a6d392030686107c08401527f3138203068397639682d397a6d39203068397639682d397a6d392030683976397f397639682d397a6d39203068397639682d397a6d39203068397639682d397a6d96876107e08601527f39203068397639682d397a6d2d3534203968397639682d397a6d392030683976610800860152886108208601527f3068397639682d397a6d39203068397639682d397a6d3732203068397639682d6108408601527f397a6d39203068397639682d397a6d39203068397639682d397a6d2d31343420610860860152603960f81b610880860152610aa761088195826020889451948593019101611fa3565b8a01938401527f682d397a6d3336203068397639682d397a6d39203068397639682d397a6d39206108a18401527f3068397639682d397a6d39203068397639682d397a6d2d3136322039683976396108c18401527f682d397a6d39203068397639682d397a6d39203068397639682d397a6d39203091826108e1850152816109018501526109218401527f39682d397a6d39203068397639682d397a6d3435203068397639682d397a6d3992836109418201527f203068397639682d397a6d39203068397639682d397a6d39203068397639682d94856109618301527f2d3435203968397639682d397a6d39203068397639682d397a6d3920306839767f397a6d2d313830203968397639682d397a6d39203068397639682d397a6d392097886109818501527f3068397639682d397a6d39203068397639682d397a6d39203068397639682d39998a6109a18601527f7a6d3336203068397639682d397a6d39203068397639682d397a6d39203068396109c18601527f7639682d397a6d39203068397639682d397a6d39203068397639682d397a6d356109e18601527f34203068397639682d397a6d39203068397639682d397a6d3920306839763968610a018601527f2d397a6d39203068397639682d397a6d2d313731203968397639682d397a6d39610a218601527f203068397639682d397a6d3336203068397639682d397a6d3920306839763968610a418601527f2d397a6d39203068397639682d397a6d39203068397639682d397a6d39203068610a618601527f397639682d397a6d39203068397639682d397a6d3633203068397639682d397a610a818601527f6d39203068397639682d397a6d2d313236203968397639682d397a6d39203068610aa1860152610ac18501527f39203068397639682d397a6d39203068397639682d397a6d2d35342039000000610ae1850152610afe93610d728251809360208885019101611fa3565b0192830152610b1e8201527f38203968397639682d397a6d39203068397639682d397a6d2d35342039683976610b3e8201527f39682d397a222f3e3c706174682066696c6c3d22233131413339372220643d22610b5e8201527f4d3335312031343468397639682d397a6d3237203068397639682d397a6d3920610b7e82015286610b9e8201527f7a6d2d3633203968397639682d397a6d39203068397639682d397a6d39203068610bbe8201527f397639682d397a6d39203068397639682d397a6d3138203068397639682d397a80610bde8301527f6d39203068397639682d397a6d39203068397639682d397a6d39203068397639610bfe8301527f682d397a6d2d3831203968397639682d397a6d39203068397639682d397a6d39610c1e83015285610c3e8301527f397a6d3138203068397639682d397a6d3336203068397639682d397a6d2d3930610c5e8301527f203968397639682d397a6d3336203068397639682d397a6d3920306839763968610c7e8301527f2d397a6d3534203068397639682d397a6d2d313137203968397639682d397a6d610c9e8301527f39203068397639682d397a6d3435203068397639682d397a6d39203068397639610cbe8301527f682d397a6d3138203068397639682d397a6d3435203068397639682d397a6d2d610cde8301527f313434203968397639682d397a6d39203068397639682d397a6d392030683976610cfe8301527f39682d397a6d3534203068397639682d397a6d3138203068397639682d397a6d610d1e8301527f3138203068397639682d397a6d3435203068397639682d397a6d2d3230372039610d3e8301527f68397639682d397a6d3435203068397639682d397a6d39203068397639682d399081610d5e8401527f7a6d39203068397639682d397a6d3633203068397639682d397a6d3138203068610d7e840152610d9e8301527f6d3237203068397639682d397a6d39203068397639682d397a6d2d3137312039610dbe83015282610dde8301527f6d3633203068397639682d397a6d3138203068397639682d397a6d3920306839610dfe8301527f7639682d397a6d39203068397639682d397a6d3237203068397639682d397a6d610e1e83015260207f39203068397639682d397a6d39203068397639682d397a6d392030683976396892839283610e3e8301527f2d397a6d39203068397639682d397a6d2d323235203968397639682d397a6d34610e5e8301527f35203068397639682d397a6d39203068397639682d397a6d3831203068397639610e7e83015286610e9e8301527f68397639682d397a6d3336203068397639682d397a6d3336203068397639682d610ebe8301527f397a6d2d313938203968397639682d397a6d39203068397639682d397a6d3732610ede8301527f203068397639682d397a6d3138203068397639682d397a6d3138203068397639610efe8301527f682d397a6d3435203068397639682d397a6d2d313632203968397639682d397a610f1e8301527f6d39203068397639682d397a6d3633203068397639682d397a6d313820306839610f3e8301527f7639682d397a6d2d3930203968397639682d397a6d3633203068397639682d39610f5e8301527f7a6d3138203068397639682d397a6d2d313236203968397639682d397a6d3435610f7e8301527f203068397639682d397a6d3732203068397639682d397a6d3130382030683976610f9e8301527f39682d397a6d2d323235203968397639682d397a6d3336203068397639682d39610fbe8301527f7a6d39203068397639682d397a6d3534203068397639682d397a6d3133352030610fde8301527f68397639682d397a6d2d323433203968397639682d397a6d3920306839763968610ffe8301527f2d397a6d39203068397639682d397a6d3237203068397639682d397a6d39203061101e83015261103e8201527f7a6d313335203068397639682d397a6d3237203068397639682d397a6d2d323761105e8201526f030203968397639682d397a6d313820360841b61107e82015261135a61108e8d819e5194859285019101611fa3565b01998a01527f2d397a6d3633203068397639682d397a6d3930203068397639682d397a6d2d326110ae8a01527f3532203968397639682d397a6d3633203068397639682d397a6d3920306839766110ce8a01527f39682d397a6d3138203068397639682d397a6d3633203068397639682d397a6d6110ee8a01527f3939203068397639682d397a6d39203068397639682d397a6d2d31383020396861110e8a01527f397639682d397a6d313731203068397639682d397a6d39203068397639682d3961112e8a01527f7a6d2d323532203968397639682d397a6d39203068397639682d397a6d34352061114e8a01527f3068397639682d397a6d39203068397639682d397a6d3138302030683976396861116e8a01527f2d397a6d39203068397639682d397a6d2d323433203968397639682d397a6d3961118e8a0152846111ae8a01527f397a6d39203068397639682d397a6d323037203068397639682d397a222f3e3c6111ce8a01527f706174682066696c6c3d22233137363338422220643d224d33363020313434686111ee8a01527f397639682d397a6d39203068397639682d397a6d39203968397639682d397a6d61120e8a01527f30203968397639682d397a6d39203968397639682d397a6d302039683976396861122e8a01527f2d397a6d2d39203968397639682d397a6d30203968397639682d397a6d2d392061124e8a01527f3968397639682d397a6d3435203068397639682d397a6d2d353420396839763961126e8a01527f682d397a6d3534203068397639682d397a6d39203068397639682d397a6d2d3161128e8a01527f3839203968397639682d397a6d313236203068397639682d397a6d35342030686112ae8a01527f397639682d397a6d39203068397639682d397a6d2d323037203968397639682d6112ce8a01527f397a6d3138203068397639682d397a6d39203068397639682d397a6d313038206112ee8a01527f3068397639682d397a6d3633203068397639682d397a6d39203068397639682d61130e8a01527f397a6d39203068397639682d397a6d2d323235203968397639682d397a6d323761132e8a01528461134e8a01527f397a6d39203068397639682d397a6d3831203068397639682d397a6d3534203061136e8a01527f68397639682d397a6d3237203068397639682d397a6d39203068397639682d3961138e8a01527f7a6d39203068397639682d397a6d3237203068397639682d397a6d39203068396113ae8a01527f7639682d397a6d2d323739203968397639682d397a6d3336203068397639682d6113ce8a01527f397a6d39203068397639682d397a6d39203068397639682d397a6d392030683997886113ee8b01527f7639682d397a6d3138203068397639682d397a6d3534203068397639682d397a61140e8b01527f6d3534203068397639682d397a6d39203068397639682d397a6d33362030683961142e8b01527f7639682d397a6d39203068397639682d397a6d3138203068397639682d397a6d61144e8b01527f39203068397639682d397a6d39203068397639682d397a6d2d3238382039683961146e8b01527f7639682d397a6d3435203068397639682d397a6d39203068397639682d397a6d61148e8b01527f39203068397639682d397a6d3237203068397639682d397a6d392030683976396114ae8b01527f682d397a6d3435203068397639682d397a6d3534203068397639682d397a6d356114ce8b01527f34203068397639682d397a6d39203068397639682d397a6d31382030683976396114ee8b01527f682d397a6d39203068397639682d397a6d2d323838203968397639682d397a6d61150e8b01527f3534203068397639682d397a6d39203068397639682d397a6d3237203068397661152e8b015261154e8a01527f3068397639682d397a6d3831203068397639682d397a6d36332030683976396861156e8a01527f2d397a6d3138203068397639682d397a6d39203068397639682d397a6d2d323861158e8a01527f38203968397639682d397a6d323730203068397639682d397a6d3138203068396115ae8a01527f7639682d397a6d2d323838203968397639682d397a6d3435203068397639682d6115ce8a01527f397a6d323235203068397639682d397a6d2d323631203968397639682d397a6d6115ee8a015261160e8901527f2d397a6d323334203068397639682d397a6d30203968397639682d397a6d302061162e8901527f3968397639682d397a6d39203068397639682d397a6d2d39203968397639682d61164e8901527f397a6d39203068397639682d397a6d2d39203968397639682d397a222f3e3c7061166e8901527f6174682066696c6c3d22233143324438322220643d224d33393620313839683961168e8901527f7639682d397a6d39203968397639682d397a6d30203968397639682d397a6d306116ae8901527f203968397639682d397a6d2d3237203968397639682d397a6d323720306839766116ce8901527f39682d397a6d2d3336203968397639682d397a6d39203068397639682d397a6d6116ee8901527f3237203068397639682d397a6d2d3435203968397639682d397a6d313820306861170e8901527f397639682d397a6d3237203068397639682d397a6d39203068397639682d397a918261172e8a01527f6d2d3633203968397639682d397a6d3237203068397639682d397a6d3237203061174e8a01527f68397639682d397a6d3138203068397639682d397a6d2d32303720396839763961176e8a01527f682d397a6d313236203068397639682d397a6d3336203068397639682d397a6d61178e8a01527f3138203068397639682d397a6d3336203068397639682d397a6d2d32323520396117ae8a01527f68397639682d397a6d313236203068397639682d397a6d3435203068397639686117ce8a01527f2d397a6d3138203068397639682d397a6d3435203068397639682d397a6d2d326117ee8a01527f3334203968397639682d397a6d313137203068397639682d397a6d343520306861180e8a01527f397639682d397a6d3138203068397639682d397a6d3633203068397639682d3961182e8a01527f7a6d2d313335203968397639682d397a6d3435203068397639682d397a6d313861184e8a01527f203068397639682d397a6d3732203068397639682d397a6d2d3134342039683961186e8a01527f7639682d397a6d3534203068397639682d397a6d39203068397639682d397a6d61188e8a01527f3831203068397639682d397a6d2d323334203968397639682d397a6d383120306118ae8a01527f68397639682d397a6d2d3732203968397639682d397a6d3534203068397639686118ce8a01527f2d397a6d39203068397639682d397a6d2d3534203968397639682d397a6d39206118ee8a01528661190e8a01527f7a6d39203068397639682d397a222f3e3c706174682066696c6c3d222339324661192e8a01527f4339342220643d224d3235322031393868397639682d397a6d3920306839763961194e8a01527f682d397a6d2d3138203968397639682d397a6d39203068397639682d397a6d3961196e8a01527f203068397639682d397a6d39203068397639682d397a6d2d323720396839763961198e8a01526119ae8901527f68397639682d397a6d313731203068397639682d397a6d39203068397639682d6119ce8901527f397a6d39203068397639682d397a6d2d323136203968397639682d397a6d39206119ee8901527f3068397639682d397a6d39203068397639682d397a6d3237203068397639682d611a0e8901527f397a6d39203068397639682d397a6d3939203068397639682d397a6d34352030611a2e890152611a4e8801527f6d39203068397639682d397a6d2d323136203968397639682d397a6d39203068611a6e880152611a8e8701527f6d39203068397639682d397a6d39203068397639682d397a6d37322030683976611aae870152611ace860152611aee850152611b0e840152611b2e8301527f7a6d3633203068397639682d397a6d3633203068397639682d397a6d39203068611b4e8301527f397639682d397a6d2d313731203968397639682d397a6d39203068397639682d611b6e830152611b8e8201527f7639682d397a6d2d3237203968397639682d397a6d39203068397639682d397a611bae8201526e369c9018341cbb1cb4169cbd11179f60891b611bce82015203611bbd810184520182611ff2565b60405191829182611fc6565b0390f35b80fd5b5034611f80576020366003190112611f8057611f7c611f706004356120b4565b60005b838110611fb65750506000910152565b8181015183820152602001611fa6565b60409160208252611fe68151809281602086015260208686019101611fa3565b601f01601f1916010190565b90601f8019910116810190811067ffffffffffffffff82111761201457604052565b634e487b7160e01b600052604160045260246000fd5b604051906080820182811067ffffffffffffffff821117612014576040526051825270682d397a6d39203068397639682d397a6d60781b6060837f68397639682d397a6d39203068397639682d397a6d39203068397639682d397a60208201527f6d39203068397639682d397a6d39203068397639682d397a6d3920306839763960408201520152565b600103613b6a576120c361202a565b613b676115eb60405180937f3c706174682066696c6c3d22233132313533452220643d224d3232352033323460208301527f68397639682d397a6d30203968397639682d397a6d39203968397639682d397a60408301527f6d30203968397639682d397a6d323136203068397639682d397a6d2d3231362060608301527f3968397639682d397a6d323136203068397639682d397a6d2d3231362039683960808301527f7639682d397a6d323037203068397639682d397a6d2d3230372039683976396860a08301527f2d397a6d323037203068397639682d397a6d2d323037203968397639682d397a60c08301527f6d323037203068397639682d397a6d2d323136203968397639682d397a6d323160e08301527f36203068397639682d397a6d2d323136203968397639682d397a6d32313620306101008301527f68397639682d397a6d2d323235203968397639682d397a6d32372030683976396101208301527f682d397a6d39203068397639682d397a6d313839203068397639682d397a6d2d6101408301527f323334203968397639682d397a6d3237203068397639682d397a6d31382030686101608301527f397639682d397a6d313938203068397639682d397a6d2d3235322039683976396101808301527f682d397a6d3237203068397639682d397a6d3237203068397639682d397a6d316101a08301527f3938203068397639682d397a6d2d323631203968397639682d397a6d323720306101c08301527f68397639682d397a6d3336203068397639682d397a6d323037203068397639686101e08301527f2d397a6d2d323739203968397639682d397a6d3237203068397639682d397a6d6102008301527f3336203068397639682d397a6d323136203068397639682d397a6d2d323838206102208301527f3968397639682d397a6d3237203068397639682d397a6d3435203068397639686102408301527f2d397a6d313731203068397639682d397a6d3237203068397639682d397a6d316102608301527f38203068397639682d397a6d2d323838203968397639682d397a6d31382030686102808301527f397639682d397a6d3534203068397639682d397a6d313731203068397639682d6102a08301527f397a6d3237203068397639682d397a6d39203068397639682d397a6d313820306102c08301527f68397639682d397a6d2d333036203968397639682d397a6d32372030683976396102e08301527f682d397a6d3534203068397639682d397a6d313830203068397639682d397a6d6103008301527f3138203068397639682d397a6d3138203068397639682d397a6d3138203068396103208301527f7639682d397a6d2d333135203968397639682d397a6d3237203068397639682d6103408301527f397a6d3435203068397639682d397a6d313839203068397639682d397a6d32376103608301527f203068397639682d397a6d3138203068397639682d397a6d31382030683976396103808301527f682d397a6d2d333234203968397639682d397a6d3237203068397639682d397a6103a08301527f6d3435203068397639682d397a6d313938203068397639682d397a6d313820306103c08301527f68397639682d397a6d3138203068397639682d397a6d3138203068397639682d6103e08301527f397a6d2d333234203968397639682d397a6d3237203068397639682d397a6d336104008301527f36203068397639682d397a6d323037203068397639682d397a6d3138203068396104208301527f7639682d397a6d3237203068397639682d397a6d3138203068397639682d397a6104408301527f6d2d333333203968397639682d397a6d3237203068397639682d397a6d3336206104608301527f3068397639682d397a6d3831203068397639682d397a6d3132362030683976396104808301527f682d397a6d3138203068397639682d397a6d3237203068397639682d397a6d316104a08301527f38203068397639682d397a6d2d333333203968397639682d397a6d32372030686104c08301527f397639682d397a6d3336203068397639682d397a6d3336203068397639682d396104e08301527f7a6d3435203068397639682d397a6d313137203068397639682d397a6d3237206105008301527f3068397639682d397a6d3237203068397639682d397a6d3138203068397639686105208301527f2d397a6d2d333333203968397639682d397a6d3336203068397639682d397a6d6105408301527f3237203068397639682d397a6d3336203068397639682d397a6d3336203068396105608301527f7639682d397a6d313137203068397639682d397a6d3237203068397639682d396105808301527f7a6d3336203068397639682d397a6d3138203068397639682d397a6d2d3332346105a08301527f203968397639682d397a6d3336203068397639682d397a6d39203068397639686105c08301527f2d397a6d3435203068397639682d397a6d3336203068397639682d397a6d31336105e08301527f35203068397639682d397a6d3138203068397639682d397a6d323720306839766106008301527f39682d397a6d3138203068397639682d397a6d2d333135203968397639682d396106208301527f7a6d3732203068397639682d397a6d3138203068397639682d397a6d313533206106408301527f3068397639682d397a6d3138203068397639682d397a6d3138203068397639686106608301527f2d397a6d39203068397639682d397a6d3138203068397639682d397a6d2d32396106808301527f37203968397639682d397a6d39203068397639682d397a6d35342030683976396106a08301527f682d397a6d3237203068397639682d397a6d313335203068397639682d397a6d6106c08301527f39203068397639682d397a6d3138203068397639682d397a6d333620306839766106e08301527f39682d397a6d2d323730203968397639682d397a6d39203068397639682d397a6107008301527f6d39203068397639682d397a6d3237203068397639682d397a6d3336203068396107208301527f7639682d397a6d313335203068397639682d397a6d3237203068397639682d396107408301527f7a6d3138203068397639682d397a6d2d323433203968397639682d397a6d32376107608301527f203068397639682d397a6d3435203068397639682d397a6d36332030683976396107808301527f682d397a6d3534203068397639682d397a6d3138203068397639682d397a6d326107a08301527f37203068397639682d397a6d2d323235203968397639682d397a6d32372030686107c08301527f397639682d397a6d39203068397639682d397a6d3930203068397639682d397a6107e08301527f6d3633203068397639682d397a6d2d313830203968397639682d397a6d3336206108008301527f3068397639682d397a6d3732203068397639682d397a6d3633203068397639686108208301527f2d397a6d2d313632203968397639682d397a6d39203068397639682d397a6d396108408301527f203068397639682d397a6d39203068397639682d397a222f3e3c7061746820666108608301527f696c6c3d22233137363338422220643d224d3233342033333368397639682d396108808301527f7a6d39203968397639682d397a6d30203968397639682d397a6d3139382030686108a08301527f397639682d397a6d30203968397639682d397a6d2d39203968397639682d397a6108c08301527f6d2d313839203968397639682d397a6d313839203068397639682d397a6d2d316108e08301527f3839203968397639682d397a6d313839203068397639682d397a6d2d313938206109008301527f3968397639682d397a6d313938203068397639682d397a6d2d313938203968396109208301527f7639682d397a6d313938203068397639682d397a6d2d323037203968397639686109408301527f2d397a6d3336203068397639682d397a6d313731203068397639682d397a6d2d6109608301527f323136203968397639682d397a6d3435203068397639682d397a6d31383020306109808301527f68397639682d397a6d2d323334203968397639682d397a6d35342030683976396109a08301527f682d397a6d313830203068397639682d397a6d2d323433203968397639682d396109c08301527f7a6d3633203068397639682d397a6d313839203068397639682d397a6d2d32366109e08301527f31203968397639682d397a6d3633203068397639682d397a6d31393820306839610a008301527f7639682d397a6d2d323730203968397639682d397a6d3732203068397639682d610a208301527f397a6d313830203068397639682d397a6d3138203068397639682d397a6d2d32610a408301527f3730203968397639682d397a6d3732203068397639682d397a6d313830203068610a608301527f397639682d397a6d3237203068397639682d397a6d2d32383820396839763968610a808301527f2d397a6d3831203068397639682d397a6d313830203068397639682d397a6d33610aa08301527f36203068397639682d397a6d2d323937203968397639682d397a6d3732203068610ac08301527f397639682d397a6d313938203068397639682d397a6d3336203068397639682d610ae08301527f397a6d2d333036203968397639682d397a6d3732203068397639682d397a6d31610b008301527f3938203068397639682d397a6d3336203068397639682d397a6d2d3330362039610b208301527f68397639682d397a6d3633203068397639682d397a6d32303720306839763968610b408301527f2d397a6d3435203068397639682d397a6d2d333135203968397639682d397a6d610b608301527f3633203068397639682d397a6d323037203068397639682d397a6d3435203068610b808301527f397639682d397a6d2d333135203968397639682d397a6d363320306839763968610ba08301527f2d397a6d3336203068397639682d397a6d313731203068397639682d397a6d34610bc08301527f35203068397639682d397a6d2d333135203968397639682d397a6d3633203068610be08301527f397639682d397a6d3336203068397639682d397a6d313632203068397639682d610c008301527f397a6d3534203068397639682d397a6d2d333036203968397639682d397a6d39610c208301527f30203068397639682d397a6d313533203068397639682d397a6d363320306839610c408301527f7639682d397a6d2d323937203968397639682d397a6d39203068397639682d39610c608301527f7a6d3831203068397639682d397a6d313335203068397639682d397a6d363320610c808301527f3068397639682d397a6d2d323730203968397639682d397a6d39203068397639610ca08301527f682d397a6d3732203068397639682d397a6d313632203068397639682d397a6d610cc08301527f3138203068397639682d397a6d2d323334203968397639682d397a6d36332030610ce08301527f68397639682d397a6d313632203068397639682d397a6d2d3232352039683976610d008301527f39682d397a6d313839203068397639682d397a6d2d313830203968397639682d610d208301527f397a6d313731203068397639682d397a6d2d313632203968397639682d397a6d610d408301527f39203068397639682d397a6d39203068397639682d397a222f3e3c7061746820610d608301527f66696c6c3d22233139343838362220643d224d3234332033333368397639682d610d808301527f397a6d39203968397639682d397a6d30203968397639682d397a6d3020396839610da08301527f7639682d397a6d313830203068397639682d397a6d2d31383020396839763968610dc08301527f2d397a6d313731203068397639682d397a6d2d313731203968397639682d397a610de08301527f6d313731203068397639682d397a6d2d313731203968397639682d397a6d3137610e008301527f31203068397639682d397a6d2d313830203968397639682d397a6d3138302030610e208301527f68397639682d397a6d2d313830203968397639682d397a6d3138203068397639610e408301527f682d397a6d313632203068397639682d397a6d2d313839203968397639682d39610e608301527f7a6d3336203068397639682d397a6d313533203068397639682d397a6d2d3139610e808301527f38203968397639682d397a6d3435203068397639682d397a6d31363220306839610ea08301527f7639682d397a6d2d323136203968397639682d397a6d32313620306839763968610ec08301527f2d397a6d2d323235203968397639682d397a6d323334203068397639682d397a610ee08301527f6d2d323433203968397639682d397a6d3633203068397639682d397a6d313533610f008301527f203068397639682d397a6d3237203068397639682d397a6d2d32353220396839610f208301527f7639682d397a6d3732203068397639682d397a6d313632203068397639682d39610f408301527f7a6d2d313632203968397639682d397a6d313632203068397639682d397a6d2d610f608301527f323433203968397639682d397a6d3831203068397639682d397a6d2d38312039610f808301527f68397639682d397a6d3732203068397639682d397a6d31383020306839763968610fa08301527f2d397a6d2d323532203968397639682d397a6d3732203068397639682d397a6d610fc08301527f2d3732203968397639682d397a6d3633203068397639682d397a6d2d36332039610fe08301527f68397639682d397a6d3633203068397639682d397a6d3237203068397639682d6110008301527f397a6d2d3930203968397639682d397a6d3633203068397639682d397a6d33366110208301527f203068397639682d397a6d313533203068397639682d397a6d2d3235322039686110408301527f397639682d397a6d3633203068397639682d397a6d3336203068397639682d396110608301527f7a6d313434203068397639682d397a6d2d323334203968397639682d397a6d396110808301527f203068397639682d397a6d3237203068397639682d397a6d39203068397639686110a08301527f2d397a6d3435203068397639682d397a6d313335203068397639682d397a6d2d6110c08301527f323037203968397639682d397a6d39203068397639682d397a6d3134342030686110e08301527f397639682d397a6d3930203068397639682d397a6d2d323235203968397639686111008301527f2d397a6d313335203068397639682d397a6d3939203068397639682d397a6d2d6111208301527f323136203968397639682d397a6d313137203068397639682d397a6d2d3131376111408301527f203968397639682d397a6d39203968397639682d397a6d3939203068397639686111608301527f2d397a222f3e3c706174682066696c6c3d22233143324438322220643d224d326111808301527f36312033353168397639682d397a6d30203968397639682d397a6d39203068396111a08301527f7639682d397a6d39203068397639682d397a6d2d3138203968397639682d397a6111c08301527f6d39203068397639682d397a6d39203068397639682d397a6d392030683976396111e08301527f682d397a6d39203068397639682d397a6d2d3336203968397639682d397a6d396112008301527f203068397639682d397a6d39203068397639682d397a6d39203068397639682d6112208301527f397a6d39203068397639682d397a6d39203068397639682d397a6d39302030686112408301527f397639682d397a6d39203068397639682d397a6d39203068397639682d397a6d806112608401527f2d313533203968397639682d397a6d39203068397639682d397a6d39203068396112808401527f7639682d397a6d39203068397639682d397a6d39203068397639682d397a6d316112a08401527f3038203068397639682d397a6d39203068397639682d397a6d2d3136322039686112c08401526112e08301527f39203068397639682d397a6d39203068397639682d397a6d31313720306839766113008301527f39682d397a6d39203068397639682d397a6d2d313632203968397639682d397a6113208301527f6d3138203068397639682d397a6d39203068397639682d397a6d3132362030686113408301527f397639682d397a6d39203068397639682d397a6d30203968397639682d397a6d6113608301527f2d3930203968397639682d397a6d3930203068397639682d397a6d39203068396113808301527f7639682d397a6d2d3939203968397639682d397a6d3930203068397639682d396113a08301527f7a6d39203068397639682d397a6d2d313038203968397639682d397a6d3920306113c08301527f68397639682d397a6d3930203068397639682d397a6d39203068397639682d396113e08301527f7a6d39203068397639682d397a6d2d313137203968397639682d397a6d3920306114008301527f68397639682d397a6d3939203068397639682d397a6d39203068397639682d396114208301527f7a6d2d313038203968397639682d397a6d30203968397639682d397a6d2d36336114408301527f20313868397639682d397a6d30203968397639682d397a6d3920306839763968611460830152752d397a6d3336203068397639682d397a6d2d3534203960501b6114808301527f2d3534203968397639682d397a6d39203068397639682d397a6d313820306839611496916139d48151809260208688019101611fa3565b8301918201527f7639682d397a6d39203068397639682d397a6d39203068397639682d397a6d2d6114b68201527f3435203968397639682d397a6d3336203068397639682d397a6d3920306839766114d68201527f39682d397a6d2d313038203968397639682d397a6d3633203068397639682d396114f68201527f7a6d3336203068397639682d397a6d2d3435203968397639682d397a6d3920306115168201527f68397639682d397a6d3336203068397639682d397a6d2d3633203968397639686115368201527f2d397a6d39203068397639682d397a6d39203068397639682d397a6d343520306115568201527f68397639682d397a6d39203068397639682d397a6d2d3633203968397639682d6115768201527f397a6d39203068397639682d397a6d3534203068397639682d397a222f3e3c706115968201527f6174682066696c6c3d22233138353638392220643d224d3234332033363068396115b6820152743b1cb4169cbd3698101cb41cbb1cb4169cbd11179f60591b6115d6820152036115cb810184520182611ff2565b90565b613b7261202a565b613b67611bdd61005c61202a56fea26469706673582212204250b86e6f83665b0796bc8b95d00495527b11a3e01fa6dc3cb9e796bdd9cc0964736f6c63430008180033",
  "linkReferences": {},
  "deployedLinkReferences": {}
}