{
  "_format": "hh-sol-artifact-1",
  "contractName": "SVGRendererV2",
  "sourceName": "contracts/SVGRendererV2.sol",
  "abi": [
    {
      "inputs": [
        {
          "internalType": "address",
          "name": "_armRenderer",
          "type": "address"
        },
        {
          "internalType": "address",
          "name": "_bodyRenderer",
          "type": "address"
        },
        {
          "internalType": "address",
          "name": "_eyeRenderer",
          "type": "address"
        },
        {
          "internalType": "address[30]",
          "name": "_hairRenderers",
          "type": "address[30]"
        }
      ],
      "stateMutability": "nonpayable",
      "type": "constructor"
    },
    {
      "inputs": [],
      "name": "armRenderer",
      "outputs": [
        {
          "internalType": "contract ISVGPartRenderer",
          "name": "",
          "type": "address"
        }
      ],
      "stateMutability": "view",
      "type": "function"
    },
    {
      "inputs": [],
      "name": "bodyRenderer",
      "outputs": [
        {
          "internalType": "contract ISVGPartRenderer",
          "name": "",
          "type": "address"
        }
      ],
      "stateMutability": "view",
      "type": "function"
    },
    {
      "inputs": [],
      "name": "eyeRendererV2",
      "outputs": [
        {
          "internalType": "contract ISVGPartRenderer",
          "name": "",
          "type": "address"
        }
      ],
      "stateMutability": "view",
      "type": "function"
    },
    {
      "inputs": [
        {
          "internalType": "uint256",
          "name": "_tokenId",
          "type": "uint256"
        }
      ],
      "name": "generateStyles",
      "outputs": [
        {
          "internalType": "uint256",
          "name": "",
          "type": "uint256"
        },
        {
          "internalType": "uint256",
          "name": "",
          "type": "uint256"
        }
      ],
      "stateMutability": "pure",
      "type": "function"
    },
    {
      "inputs": [
        {
          "internalType": "uint256",
          "name": "",
          "type": "uint256"
        }
      ],
      "name": "hairRenderers",
      "outputs": [
        {
          "internalType": "contract ISVGPartRenderer",
          "name": "",
          "type": "address"
        }
      ],
      "stateMutability": "view",
      "type": "function"
    },
    {
      "inputs": [
        {
          "internalType": "uint256",
          "name": "_tokenId",
          "type": "uint256"
        },
        {
          "internalType": "uint256",
          "name": "bodyStyle",
          "type": "uint256"
        }
      ],
      "name": "render",
      "outputs": [
        {
          "internalType": "string",
          "name": "",
          "type": "string"
        }
      ],
      "stateMutability": "view",
      "type": "function"
    }
  ],
  "bytecode": "0x60803461013457601f6106f538819003918201601f1916830192916001600160401b03918285118486101761013957819060409586528439820191610420928382820312610134576100508261014f565b60209161005f6020850161014f565b9561006b88860161014f565b9482607f82011215610134578851966103c088019081118882101761013957895286918101928311610134576060859101915b83831061011c575050505060018060a01b038060018060a01b031994816000941686600054161760005581600198168660015416176001551684600254161760025560005b601e81106100f957875161059190816101648239f35b8082889260051b88015116818552600386528985209087825416179055016100e3565b81906101278461014f565b815201910190849061009e565b600080fd5b634e487b7160e01b600052604160045260246000fd5b51906001600160a01b03821682036101345756fe608060408181526004918236101561001657600080fd5b600092833560e01c9182631678cce514610435575081632db24c13146104025781638c02cf30146100e95781638f57b738146100c0578163c29bdc6114610092575063c657fbef1461006757600080fd5b3461008e578160031936011261008e5760025490516001600160a01b039091168152602090f35b5080fd5b905082346100bd5760203660031901126100bd57506100b19035610525565b82519182526020820152f35b80fd5b50503461008e578160031936011261008e5760015490516001600160a01b039091168152602090f35b9050346103fe57816003193601126103fe57602492833561010a8335610525565b90918284526020966003885260018060a01b0395868887205416885197878985816330c8446360e21b958682526001888301525afa9889156103f45788996103d8575b508088541660001986019586116103c65790888593928c51968780928682528a898301525afa9485156103845789956103aa575b5088816001541696848d5180998193878352898301525afa95861561038457899661038e575b5088816002541697848d51809a8193878352898301525afa968715610384579089949392918598610364575b508495969798855260038d528b852054168b51958694859384528301525afa948515610359577f3c73766720786d6c6e733d22687474703a2f2f7777772e77332e6f72672f32309561030a956084957f30302f737667222077696474683d2237323022206865696768743d2237323022958b9585651e17b9bb339f60d11b9695610334575b50508c6102bc87519c8d998a99848b019e8f528a01527f2073686170652d72656e646572696e673d2263726973704564676573223e000060608a01526102aa607e9982858c9451948593019101610459565b89019183519384918a85019101610459565b016102d08d83519384918985019101610459565b016102e48c83519384918885019101610459565b016102f7825180938d8785019101610459565b019182015203606481018552018361047c565b6103268351948593818552519283809286015285850190610459565b601f01601f19168101030190f35b6103519295503d8091833e610349818361047c565b8101906104b4565b923880610258565b8751903d90823e3d90fd5b859697985061037c903d8088833e610349818361047c565b9796956101d3565b8b513d8b823e3d90fd5b6103a39196503d808b833e610349818361047c565b94386101a7565b6103bf9195503d808b833e610349818361047c565b9338610181565b634e487b7160e01b8952601184528489fd5b6103ed9199503d808a833e610349818361047c565b973861014d565b8a513d8a823e3d90fd5b8280fd5b9050346103fe5760203660031901126103fe5735825260036020908152918190205490516001600160a01b039091168152f35b84903461008e578160031936011261008e5790546001600160a01b03168152602090f35b60005b83811061046c5750506000910152565b818101518382015260200161045c565b90601f8019910116810190811067ffffffffffffffff82111761049e57604052565b634e487b7160e01b600052604160045260246000fd5b60208183031261052057805167ffffffffffffffff9182821161052057019082601f8301121561052057815190811161049e57604051926104ff601f8301601f19166020018561047c565b818452602082840101116105205761051d9160208085019101610459565b90565b600080fd5b604051906020820190815260208252604082019180831067ffffffffffffffff84111761049e57601e926040525190200690819056fea26469706673582212205ddfdfe69373aeb589eee0694daeb1b6d4baf839d5bc672690acde701198ecfb64736f6c63430008180033",
  "linkReferences": {},
  "deployedLinkReferences": {}
}