{
  "_format": "hh-sol-artifact-1",
  "contractName": "TraveCharacter",
  "sourceName": "contracts/TraveCharacter.sol",
  "abi": [
    {
      "inputs": [
        {
          "internalType": "address",
          "name": "_svgRenderer",
          "type": "address"
        }
      ],
      "stateMutability": "nonpayable",
      "type": "constructor"
    },
    {
      "inputs": [
        {
          "internalType": "uint256",
          "name": "numerator",
          "type": "uint256"
        },
        {
          "internalType": "uint256",
          "name": "denominator",
          "type": "uint256"
        }
      ],
      "name": "ERC2981InvalidDefaultRoyalty",
      "type": "error"
    },
    {
      "inputs": [
        {
          "internalType": "address",
          "name": "receiver",
          "type": "address"
        }
      ],
      "name": "ERC2981InvalidDefaultRoyaltyReceiver",
      "type": "error"
    },
    {
      "inputs": [
        {
          "internalType": "uint256",
          "name": "tokenId",
          "type": "uint256"
        },
        {
          "internalType": "uint256",
          "name": "numerator",
          "type": "uint256"
        },
        {
          "internalType": "uint256",
          "name": "denominator",
          "type": "uint256"
        }
      ],
      "name": "ERC2981InvalidTokenRoyalty",
      "type": "error"
    },
    {
      "inputs": [
        {
          "internalType": "uint256",
          "name": "tokenId",
          "type": "uint256"
        },
        {
          "internalType": "address",
          "name": "receiver",
          "type": "address"
        }
      ],
      "name": "ERC2981InvalidTokenRoyaltyReceiver",
      "type": "error"
    },
    {
      "inputs": [],
      "name": "ERC721EnumerableForbiddenBatchMint",
      "type": "error"
    },
    {
      "inputs": [
        {
          "internalType": "address",
          "name": "sender",
          "type": "address"
        },
        {
          "internalType": "uint256",
          "name": "tokenId",
          "type": "uint256"
        },
        {
          "internalType": "address",
          "name": "owner",
          "type": "address"
        }
      ],
      "name": "ERC721IncorrectOwner",
      "type": "error"
    },
    {
      "inputs": [
        {
          "internalType": "address",
          "name": "operator",
          "type": "address"
        },
        {
          "internalType": "uint256",
          "name": "tokenId",
          "type": "uint256"
        }
      ],
      "name": "ERC721InsufficientApproval",
      "type": "error"
    },
    {
      "inputs": [
        {
          "internalType": "address",
          "name": "approver",
          "type": "address"
        }
      ],
      "name": "ERC721InvalidApprover",
      "type": "error"
    },
    {
      "inputs": [
        {
          "internalType": "address",
          "name": "operator",
          "type": "address"
        }
      ],
      "name": "ERC721InvalidOperator",
      "type": "error"
    },
    {
      "inputs": [
        {
          "internalType": "address",
          "name": "owner",
          "type": "address"
        }
      ],
      "name": "ERC721InvalidOwner",
      "type": "error"
    },
    {
      "inputs": [
        {
          "internalType": "address",
          "name": "receiver",
          "type": "address"
        }
      ],
      "name": "ERC721InvalidReceiver",
      "type": "error"
    },
    {
      "inputs": [
        {
          "internalType": "address",
          "name": "sender",
          "type": "address"
        }
      ],
      "name": "ERC721InvalidSender",
      "type": "error"
    },
    {
      "inputs": [
        {
          "internalType": "uint256",
          "name": "tokenId",
          "type": "uint256"
        }
      ],
      "name": "ERC721NonexistentToken",
      "type": "error"
    },
    {
      "inputs": [
        {
          "internalType": "address",
          "name": "owner",
          "type": "address"
        },
        {
          "internalType": "uint256",
          "name": "index",
          "type": "uint256"
        }
      ],
      "name": "ERC721OutOfBoundsIndex",
      "type": "error"
    },
    {
      "inputs": [
        {
          "internalType": "address",
          "name": "owner",
          "type": "address"
        }
      ],
      "name": "OwnableInvalidOwner",
      "type": "error"
    },
    {
      "inputs": [
        {
          "internalType": "address",
          "name": "account",
          "type": "address"
        }
      ],
      "name": "OwnableUnauthorizedAccount",
      "type": "error"
    },
    {
      "anonymous": false,
      "inputs": [
        {
          "indexed": true,
          "internalType": "address",
          "name": "owner",
          "type": "address"
        },
        {
          "indexed": true,
          "internalType": "address",
          "name": "approved",
          "type": "address"
        },
        {
          "indexed": true,
          "internalType": "uint256",
          "name": "tokenId",
          "type": "uint256"
        }
      ],
      "name": "Approval",
      "type": "event"
    },
    {
      "anonymous": false,
      "inputs": [
        {
          "indexed": true,
          "internalType": "address",
          "name": "owner",
          "type": "address"
        },
        {
          "indexed": true,
          "internalType": "address",
          "name": "operator",
          "type": "address"
        },
        {
          "indexed": false,
          "internalType": "bool",
          "name": "approved",
          "type": "bool"
        }
      ],
      "name": "ApprovalForAll",
      "type": "event"
    },
    {
      "anonymous": false,
      "inputs": [
        {
          "indexed": false,
          "internalType": "uint256",
          "name": "_fromTokenId",
          "type": "uint256"
        },
        {
          "indexed": false,
          "internalType": "uint256",
          "name": "_toTokenId",
          "type": "uint256"
        }
      ],
      "name": "BatchMetadataUpdate",
      "type": "event"
    },
    {
      "anonymous": false,
      "inputs": [
        {
          "indexed": false,
          "internalType": "uint256",
          "name": "_tokenId",
          "type": "uint256"
        }
      ],
      "name": "MetadataUpdate",
      "type": "event"
    },
    {
      "anonymous": false,
      "inputs": [
        {
          "indexed": true,
          "internalType": "address",
          "name": "previousOwner",
          "type": "address"
        },
        {
          "indexed": true,
          "internalType": "address",
          "name": "newOwner",
          "type": "address"
        }
      ],
      "name": "OwnershipTransferred",
      "type": "event"
    },
    {
      "anonymous": false,
      "inputs": [
        {
          "indexed": true,
          "internalType": "address",
          "name": "from",
          "type": "address"
        },
        {
          "indexed": true,
          "internalType": "address",
          "name": "to",
          "type": "address"
        },
        {
          "indexed": true,
          "internalType": "uint256",
          "name": "tokenId",
          "type": "uint256"
        }
      ],
      "name": "Transfer",
      "type": "event"
    },
    {
      "inputs": [
        {
          "internalType": "address",
          "name": "to",
          "type": "address"
        },
        {
          "internalType": "uint256",
          "name": "tokenId",
          "type": "uint256"
        }
      ],
      "name": "approve",
      "outputs": [],
      "stateMutability": "nonpayable",
      "type": "function"
    },
    {
      "inputs": [
        {
          "internalType": "address",
          "name": "owner",
          "type": "address"
        }
      ],
      "name": "balanceOf",
      "outputs": [
        {
          "internalType": "uint256",
          "name": "",
          "type": "uint256"
        }
      ],
      "stateMutability": "view",
      "type": "function"
    },
    {
      "inputs": [],
      "name": "contractURI",
      "outputs": [
        {
          "internalType": "string",
          "name": "",
          "type": "string"
        }
      ],
      "stateMutability": "pure",
      "type": "function"
    },
    {
      "inputs": [
        {
          "internalType": "uint256",
          "name": "tokenId",
          "type": "uint256"
        }
      ],
      "name": "getApproved",
      "outputs": [
        {
          "internalType": "address",
          "name": "",
          "type": "address"
        }
      ],
      "stateMutability": "view",
      "type": "function"
    },
    {
      "inputs": [],
      "name": "getMintPrice",
      "outputs": [
        {
          "internalType": "uint256",
          "name": "",
          "type": "uint256"
        }
      ],
      "stateMutability": "view",
      "type": "function"
    },
    {
      "inputs": [
        {
          "internalType": "uint256",
          "name": "tokenId",
          "type": "uint256"
        }
      ],
      "name": "getStyles",
      "outputs": [
        {
          "internalType": "uint256",
          "name": "",
          "type": "uint256"
        },
        {
          "internalType": "uint256",
          "name": "",
          "type": "uint256"
        },
        {
          "internalType": "uint256",
          "name": "",
          "type": "uint256"
        }
      ],
      "stateMutability": "view",
      "type": "function"
    },
    {
      "inputs": [
        {
          "internalType": "address",
          "name": "owner",
          "type": "address"
        },
        {
          "internalType": "address",
          "name": "operator",
          "type": "address"
        }
      ],
      "name": "isApprovedForAll",
      "outputs": [
        {
          "internalType": "bool",
          "name": "",
          "type": "bool"
        }
      ],
      "stateMutability": "view",
      "type": "function"
    },
    {
      "inputs": [],
      "name": "name",
      "outputs": [
        {
          "internalType": "string",
          "name": "",
          "type": "string"
        }
      ],
      "stateMutability": "view",
      "type": "function"
    },
    {
      "inputs": [],
      "name": "owner",
      "outputs": [
        {
          "internalType": "address",
          "name": "",
          "type": "address"
        }
      ],
      "stateMutability": "view",
      "type": "function"
    },
    {
      "inputs": [
        {
          "internalType": "uint256",
          "name": "tokenId",
          "type": "uint256"
        }
      ],
      "name": "ownerOf",
      "outputs": [
        {
          "internalType": "address",
          "name": "",
          "type": "address"
        }
      ],
      "stateMutability": "view",
      "type": "function"
    },
    {
      "inputs": [],
      "name": "renounceOwnership",
      "outputs": [],
      "stateMutability": "nonpayable",
      "type": "function"
    },
    {
      "inputs": [
        {
          "internalType": "uint256",
          "name": "tokenId",
          "type": "uint256"
        },
        {
          "internalType": "uint256",
          "name": "salePrice",
          "type": "uint256"
        }
      ],
      "name": "royaltyInfo",
      "outputs": [
        {
          "internalType": "address",
          "name": "",
          "type": "address"
        },
        {
          "internalType": "uint256",
          "name": "",
          "type": "uint256"
        }
      ],
      "stateMutability": "view",
      "type": "function"
    },
    {
      "inputs": [
        {
          "internalType": "address",
          "name": "to",
          "type": "address"
        }
      ],
      "name": "safeMint",
      "outputs": [],
      "stateMutability": "payable",
      "type": "function"
    },
    {
      "inputs": [
        {
          "internalType": "address",
          "name": "from",
          "type": "address"
        },
        {
          "internalType": "address",
          "name": "to",
          "type": "address"
        },
        {
          "internalType": "uint256",
          "name": "tokenId",
          "type": "uint256"
        }
      ],
      "name": "safeTransferFrom",
      "outputs": [],
      "stateMutability": "nonpayable",
      "type": "function"
    },
    {
      "inputs": [
        {
          "internalType": "address",
          "name": "from",
          "type": "address"
        },
        {
          "internalType": "address",
          "name": "to",
          "type": "address"
        },
        {
          "internalType": "uint256",
          "name": "tokenId",
          "type": "uint256"
        },
        {
          "internalType": "bytes",
          "name": "data",
          "type": "bytes"
        }
      ],
      "name": "safeTransferFrom",
      "outputs": [],
      "stateMutability": "nonpayable",
      "type": "function"
    },
    {
      "inputs": [
        {
          "internalType": "address",
          "name": "operator",
          "type": "address"
        },
        {
          "internalType": "bool",
          "name": "approved",
          "type": "bool"
        }
      ],
      "name": "setApprovalForAll",
      "outputs": [],
      "stateMutability": "nonpayable",
      "type": "function"
    },
    {
      "inputs": [
        {
          "internalType": "bytes4",
          "name": "interfaceId",
          "type": "bytes4"
        }
      ],
      "name": "supportsInterface",
      "outputs": [
        {
          "internalType": "bool",
          "name": "",
          "type": "bool"
        }
      ],
      "stateMutability": "view",
      "type": "function"
    },
    {
      "inputs": [],
      "name": "symbol",
      "outputs": [
        {
          "internalType": "string",
          "name": "",
          "type": "string"
        }
      ],
      "stateMutability": "view",
      "type": "function"
    },
    {
      "inputs": [
        {
          "internalType": "uint256",
          "name": "index",
          "type": "uint256"
        }
      ],
      "name": "tokenByIndex",
      "outputs": [
        {
          "internalType": "uint256",
          "name": "",
          "type": "uint256"
        }
      ],
      "stateMutability": "view",
      "type": "function"
    },
    {
      "inputs": [
        {
          "internalType": "address",
          "name": "owner",
          "type": "address"
        },
        {
          "internalType": "uint256",
          "name": "index",
          "type": "uint256"
        }
      ],
      "name": "tokenOfOwnerByIndex",
      "outputs": [
        {
          "internalType": "uint256",
          "name": "",
          "type": "uint256"
        }
      ],
      "stateMutability": "view",
      "type": "function"
    },
    {
      "inputs": [
        {
          "internalType": "uint256",
          "name": "tokenId",
          "type": "uint256"
        }
      ],
      "name": "tokenURI",
      "outputs": [
        {
          "internalType": "string",
          "name": "",
          "type": "string"
        }
      ],
      "stateMutability": "view",
      "type": "function"
    },
    {
      "inputs": [],
      "name": "totalSupply",
      "outputs": [
        {
          "internalType": "uint256",
          "name": "",
          "type": "uint256"
        }
      ],
      "stateMutability": "view",
      "type": "function"
    },
    {
      "inputs": [
        {
          "internalType": "address",
          "name": "from",
          "type": "address"
        },
        {
          "internalType": "address",
          "name": "to",
          "type": "address"
        },
        {
          "internalType": "uint256",
          "name": "tokenId",
          "type": "uint256"
        }
      ],
      "name": "transferFrom",
      "outputs": [],
      "stateMutability": "nonpayable",
      "type": "function"
    },
    {
      "inputs": [
        {
          "internalType": "address",
          "name": "newOwner",
          "type": "address"
        }
      ],
      "name": "transferOwnership",
      "outputs": [],
      "stateMutability": "nonpayable",
      "type": "function"
    }
  ],
  "bytecode": "0x6080346200041457601f906200587e38819003838101601f19908116840193926001600160401b039283861185871017620003fe57808592604097885283396020948591810103126200041457516001600160a01b0380821692909183900362000414576200006d62000419565b90601a82527f506978747572652054726176656c65722043686172616374657200000000000086830152620000a162000419565b9760098952682a2920ab22a1a420a960b91b878a0152825198868a11620003fe576000998a54946001958681811c91168015620003f3575b8b821014620003df5790818584931162000389575b508a908d8684116001146200032757926200031b575b5050600019600383901b1c191690851b178a555b805192878411620003075784548581811c91168015620002fc575b8a821014620002e857908184869594931162000291575b50899284116001146200023057508a9262000224575b5050600019600383901b1c191690821b1790555b33156200020c57600d80546001600160a01b03198082163390811790935592167f8be0079c531659141344cd1fd0a4f28419497f9722a3daafe3b4186f6b6457e08880a3600f541617600f558251908382019082821090821117620001f857836101f4949550523381520152607d60a21b3317600b555161544490816200043a8239f35b634e487b7160e01b85526041600452602485fd5b8451631e4fbdf760e01b815260048101879052602490fd5b01519050388062000160565b858c52898c20869590939291168c5b8b8282106200027a575050841162000260575b505050811b01905562000174565b015160001960f88460031b161c1916905538808062000252565b83850151865588979095019493840193016200023f565b9091929350858c52898c208480870160051c8201928c8810620002de575b9187968992969594930160051c01915b828110620002cf5750506200014a565b8e8155879650889101620002bf565b92508192620002af565b634e487b7160e01b8c52602260045260248cfd5b90607f169062000133565b634e487b7160e01b8b52604160045260248bfd5b01519050388062000104565b9190878995168380528d80852094905b82821062000371575050841162000357575b505050811b018a5562000118565b015160001960f88460031b161c1916905538808062000349565b8385015186558b979095019493840193018e62000337565b9091508c80528a8d208580850160051c8201928d8610620003d5575b859493910160051c9091019088908f5b838210620003c657505050620000ee565b81558594508991018f620003b5565b92508192620003a5565b634e487b7160e01b8d52602260045260248dfd5b90607f1690620000d9565b634e487b7160e01b600052604160045260246000fd5b600080fd5b60408051919082016001600160401b03811183821017620003fe5760405256fe61024080604052600436101561001457600080fd5b60003560e01c90816301ffc9a7146131d95750806306fdde031461312e578063081812fc146130f0578063095ea7b31461300957806318160ddd14612feb57806323b872dd14612fd45780632a55205a14612f1d5780632f745c5914612e9957806340d097c3146128fd57806342842e0e146128cf5780634f6ccce7146128795780636352211e14612849578063652f43ac1461281857806370a08231146127f5578063715018a6146127985780638da5cb5b1461276f57806395d89b411461268c578063a22cb465146125e7578063a7f93ebd146125c4578063b88d4fde1461252f578063c87b56dd146104a8578063e8a3d4851461020c578063e985e9c5146101b65763f2fde38b1461012857600080fd5b346101b15760203660031901126101b1576101416132da565b610149614232565b6001600160a01b0390811690811561019857600d54826001600160601b0360a01b821617600d55167f8be0079c531659141344cd1fd0a4f28419497f9722a3daafe3b4186f6b6457e0600080a3005b604051631e4fbdf760e01b815260006004820152602490fd5b600080fd5b346101b15760403660031901126101b1576101cf6132da565b6101d76132f0565b9060018060a01b03809116600052600560205260406000209116600052602052602060ff604060002054166040519015158152f35b346101b15760003660031901126101b1576040516101c081018181106001600160401b038211176104925761047a603b61048e9361046a9360405261018e8152602081017f7b226e616d65223a22506978747572652054726176656c65722043686172616381527f746572222c226465736372697074696f6e223a22456d6261726b206f6e20657060408301527f696320616476656e74757265732077697468205069787475726520547261766560608301527f6c657220756e69717565206f6e2d636861696e204e465473215c6e576562736960808301527f74653a2068747470733a2f2f7069787475726574726176656c65722e636f6d5c60a08301527f6e446973636f72643a2068747470733a2f2f646973636f72642e67672f70697860c08301527f747572652d74726176656c6572222c22696d616765223a2268747470733a2f2f60e08301527f7777772e7069787475726574726176656c65722e636f6d2f636f6c6c656374696101008301527f6f6e2f696d6167652e77656270222c2265787465726e616c5f6c696e6b223a226101208301527f68747470733a2f2f7069787475726574726176656c65722e636f6d222c2262616101408301527f6e6e65725f696d6167655f75726c223a2268747470733a2f2f7777772e7069786101608301527f7475726574726176656c65722e636f6d2f636f6c6c656374696f6e2f62616e6e6101808301526d65722d696d6167652e706e67227d60901b6101a08301526040519485927f646174613a6170706c69636174696f6e2f6a736f6e3b757466382c0000000000602085015251809285850190613292565b810103601b8101845201826133de565b6040519182916020835260208301906132b5565b0390f35b634e487b7160e01b600052604160045260246000fd5b346101b15760203660031901126101b1576104c460043561372d565b9150506104d26004356143d8565b6101a052600f546040516308c02cf360e41b815260048035908201526024810192909252600090829060449082906001600160a01b03165afa8015612523576000906124a6575b610523915061451c565b6101805261053260043561372d565b509060405161028081018181106001600160401b03821117610492578060405261055b81613357565b600881526722bc383637b932b960c11b6102a0830152815260405161057f81613357565b600a81526920b23b32b73a3ab932b960b11b602082015260208201526040516105a781613357565b60088152672a3930bb32b632b960c11b602082015260408201526040516105cd81613357565b6005815264139bdb585960da1b602082015260608201526040516105f081613357565b600b81526a2a3930b4b6313630bd32b960a91b6020820152608082015260405161061981613357565b600c81526b21b0b93a37b3b930b83432b960a11b602082015260a082015260405161064381613357565b600a8152692830ba343334b73232b960b11b602082015260c082015260405161066b81613357565b60088152672bb0b73232b932b960c11b602082015260e082015260405161069181613357565b60078152662b37bcb0b3b2b960c91b60208201526101008201526040516106b781613357565b600681526529b2b2b5b2b960d11b60208201526101208201526040516106dc81613357565b600781526650696c6772696d60c81b602082015261014082015260405161070281613357565b60088152672bb0bcb330b932b960c11b602082015261016082015260405161072981613357565b60068152652937b0b6b2b960d11b602082015261018082015260405161074e81613357565b6008815267159859d8589bdb9960c21b60208201526101a082015260405161077581613357565b600581526414d8dbdd5d60da1b60208201526101c082015260405161079981613357565b60078152662834b7b732b2b960c91b60208201526101e08201526040516107bf81613357565b60088152672b32b73a3ab932b960c11b60208201526102008201526040516107e681613357565b600a81526915d85b99195c9b1d5cdd60b21b602082015261022082015260405161080f81613357565b60078152664f64797373657960c81b602082015261024082015260405161083581613357565b60068152652bb0b635b2b960d11b602082015261026082015260146040516020810190600435825264434c41535360d81b604082015260258152610878816133c3565b5190200660148110156124905760051b01516101c052610899600435613a6c565b906108a660043582613d71565b6108af826146a4565b6102205261124a610dee6108c56101c051614dfc565b956108cf426143d8565b610160526040516108df8161333b565b6040516108eb81613357565b600a815269417a75726520466c6f7760b01b6020820152815260405161091081613357565b6008815267496379205065616b60c01b6020820152602082015260405161093681613357565b600b81526a4d6f6c74656e20436f726560a81b6020820152604082015260405161095f81613357565b600e81526d416d65746879737420576176657360901b6020820152606082015260405161098b81613357565b600d81526c506561636820426c6f73736f6d60981b602082015260808201526040516109b681613357565b600c81526b53756e736574204c6f636b7360a01b602082015260a08201526040516109e081613357565b600d81526c56616e696c6c6120437265616d60981b602082015260c0820152604051610a0b81613357565b600b81526a14da18591bddc815995a5b60aa1b602082015260e0820152604051610a3481613357565b600c81526b14da5b1d995c88119c9bdcdd60a21b6020820152610100820152604051610a5f81613357565b600c81526b42726f6e7a65204375726c7360a01b6020820152610120820152604051610a8a81613357565b600d81526c4772617065205472657373657360981b6020820152610140820152604051610ab681613357565b600a81526920baba3ab6b710213ab760b11b6020820152610160820152604051610adf81613357565b600d81526c476f6c64656e2042726169647360981b6020820152610180820152604051610b0b81613357565b600f81526e43686573746e75742054616e676c6560881b60208201526101a0820152604051610b3981613357565b60098152685275627920466c6f7760b81b60208201526101c0820152604051610b6181613357565b601081526f4d69646e6967687420537472616e647360801b60208201526101e0820152604051610b9081613357565b600a8152694c696c6163204d616e6560b01b6020820152610200820152604051610bb981613357565b6011815270456d6572616c642054656e7461636c657360781b6020820152610220820152604051610be981613357565b60098152684171756120476c6f7760b81b6020820152610240820152604051610c1181613357565b600f81526e13d89cda591a585b8814da1c9bdd59608a1b6020820152610260820152604051610c3f81613357565b600f81526e53617070686972652053747265616d60881b6020820152610280820152604051610c6d81613357565b600d81526c466f726573742046726f6e647360981b60208201526102a0820152604051610c9981613357565b600b81526a13dc985b99d94816995cdd60aa1b60208201526102c0820152604051610cc381613357565b600b81526a46726f737465642047656d60a81b60208201526102e0820152604051610ced81613357565b600e81526d4d69646e69676874204c6f636b7360901b6020820152610300820152604051610d1a81613357565b600a815269105c5d584815da1a5c9b60b21b6020820152610320820152604051610d4381613357565b600c81526b4461726b204361736361646560a01b6020820152610340820152604051610d6e81613357565b600f81526e4d69646e696768742053747265616b60881b6020820152610360820152604051610d9c81613357565b600e81526d4c6176656e64657220547265737360901b6020820152610380820152604051610dc981613357565b600d81526c416d626572204361736361646560981b60208201526103a08201526153fd565b5195604051610dfc8161333b565b604051610e0881613357565b600381526214995960ea1b60208201528152604051610e2681613357565b60068152654f72616e676560d01b60208201526020820152604051610e4a81613357565b600681526559656c6c6f7760d01b60208201526040820152604051610e6e81613357565b600581526423b932b2b760d91b60208201526060820152604051610e9181613357565b600481526321bcb0b760e11b60208201526080820152604051610eb381613357565b6004815263426c756560e01b602082015260a0820152604051610ed581613357565b6006815265507572706c6560d01b602082015260c0820152604051610ef981613357565b6006815265159a5bdb195d60d21b602082015260e0820152604051610f1d81613357565b6005815264213937bbb760d91b6020820152610100820152604051610f4181613357565b6005815264426c61636b60d81b6020820152610120820152604051610f6581613357565b60048152634772617960e01b6020820152610140820152604051610f8881613357565b60088152674d6f6f6e6265616d60c01b6020820152610160820152604051610faf81613357565b600881526710dbdb999d5cd95960c21b6020820152610180820152604051610fd681613357565b60058152642ab73232b960d91b60208201526101a0820152604051610ffa81613357565b60058152641219585c9d60da1b60208201526101c082015260405161101e81613357565b600681526510dd5c9cd95960d21b60208201526101e082015260405161104381613357565b600581526408cd8c2e6d60db1b602082015261020082015260405161106781613357565b6005815264576869746560d81b602082015261022082015260405161108b81613357565b6006815265496e73616e6560d01b60208201526102408201526040516110b081613357565b600681526550697261746560d01b60208201526102608201526040516110d581613357565b6008815267125b999958dd195960c21b60208201526102808201526040516110fc81613357565b60068152654e6172726f7760d01b60208201526102a082015260405161112181613357565b6007815266426c617a696e6760c81b60208201526102c082015260405161114781613357565b600781526621b934b6b9b7b760c91b60208201526102e082015260405161116d81613357565b6008815267105b595d1a1e5cdd60c21b602082015261030082015260405161119481613357565b6005815264417a75726560d81b60208201526103208201526040516111b881613357565b600781526610dc9e5cdd185b60ca1b60208201526103408201526040516111de81613357565b600781526610995b5d5cd95960ca1b602082015261036082015260405161120481613357565b6006815265223930b3b7b760d11b602082015261038082015260405161122981613357565b6009815268111a5999995c995b9d60ba1b60208201526103a08201526153fd565b51610200526040519061125c8261333b565b60405161126881613357565b600581526449766f727960d81b6020820152825260405161128881613357565b60098152682837b931b2b630b4b760b91b602082015260208301526040516112af81613357565b600a81526950616c652049766f727960b01b602082015260408301526040516112d781613357565b600a8152695761726d2049766f727960b01b602082015260608301526040516112ff81613357565b600481526314d85b9960e21b6020820152608083015260405161132181613357565b600a815269526f736520426569676560b01b602082015260a083015260405161134981613357565b60098152684c696d6573746f6e6560b81b602082015260c083015260405161137081613357565b6005815264426569676560d81b602082015260e083015260405161139381613357565b60068152655369656e6e6160d01b60208201526101008301526040516113b881613357565b6005815264486f6e657960d81b60208201526101208301526040516113dc81613357565b600481526310985b9960e21b60208201526101408301526040516113ff81613357565b6006815265105b1b5bdb9960d21b602082015261016083015260405161142481613357565b600881526710da195cdd1b9d5d60c21b602082015261018083015260405161144b81613357565b600681526542726f6e7a6560d01b60208201526101a083015260405161147081613357565b60058152642ab6b132b960d91b60208201526101c083015260405161149481613357565b600681526523b7b63232b760d11b60208201526101e08301526040516114b981613357565b6008815267457370726573736f60c01b60208201526102008301526040516114e081613357565b600981526843686f636f6c61746560b81b6020820152610220830152611504613a17565b6102408301526115126138eb565b61026083015261152061392f565b61028083015260405161153281613357565b60048152634f72676560e01b60208201526102a08301526115516139b4565b6102c083015261155f613990565b6102e083015261156d613a3a565b61030083015261157b61394e565b61032083015261158961390d565b6103408301526115976139d3565b6103608301526115a561396f565b6103808301526115b36139f4565b6103a08301528060001981011161247a57600019016115d1916153fd565b5192610220515160ff166115e4906143d8565b93610220516020015160ff166115f9906143d8565b94610220516040015160ff1661160e906143d8565b61014052610220516060015160ff16611626906143d8565b96610220516080015160ff1661163b906143d8565b90845160ff1661164a906143d8565b92602086015160ff1661165c906143d8565b94604087015160ff1661166e906143d8565b61010052606087015160ff16611683906143d8565b966080015160ff16611694906143d8565b97610220515160ff166116a6906143d8565b99610220516020015160ff166116bb906143d8565b60a052610220516040015160ff166116d2906143d8565b60c052610220516060015160ff166116e9906143d8565b6101e052610220516080015160ff16611701906143d8565b6101205260405160e05260e0516020017f7b22646973706c61795f74797065223a2264617465222c2274726169745f7479905260e0516040017f7065223a224269727468646179222c2276616c7565223a0000000000000000009052610160515160e05160570181610160516020019161177a92613292565b8060e05101605701611f4b60f21b90528060e051016059017f7b2274726169745f74797065223a224c6576656c222c2276616c7565223a317d90528060e05101607901600b60fa1b90528060e05101607a017f7b2274726169745f74797065223a225870222c2276616c7565223a307d2c000090528060e051016098017f7b2274726169745f74797065223a22436c617373222c2276616c7565223a220090526101c05151908060e0510160b701826101c0516020019161183a92613292565b60e05101019062089f4b60ea1b92828460b78195015260ba81017f7b2274726169745f74797065223a2252616365222c2276616c7565223a22000090528151918260d88301916020019161188d92613292565b018260d882015260db81017f7b2274726169745f74797065223a22526163652054696572222c2276616c7565905262111d1160e91b60fb8201528151918260fe830191602001916118dd92613292565b01948160fe87015261010186017f7b2274726169745f74797065223a2248616972222c2276616c7565223a220000905261011f9581519182888301916020019161192692613292565b01948501527f7b2274726169745f74797065223a22457965222c2276616c7565223a2200000061012285015261020051805161013f95839261197090839089840190602001613292565b01948501527f7b2274726169745f74797065223a22426f6479222c2276616c7565223a2200006101428501528151916119b3908390610160870190602001613292565b8184016101608101919091527f7b2274726169745f74797065223a22486174222c2276616c7565223a224e6f6e6101638201526319489f4b60e21b61018382018190527f7b2274726169745f74797065223a224d6f757468222c2276616c7565223a224e610187830152651bdb99489f4b60d21b6101a783018190527f7b2274726169745f74797065223a22546f70222c2276616c7565223a224e6f6e6101ad8401526101cd8301919091527f7b2274726169745f74797065223a2250616e7473222c2276616c7565223a224e6101d18301526101f18201527f7b2274726169745f74797065223a22576561706f6e222c2276616c7565223a226101f782015266139bdb99489f4b60ca1b6102178201527f7b2274726169745f74797065223a224261636b222c2276616c7565223a224e6f61021e820152641b99489f4b60da1b61023e8201527f7b2274726169745f74797065223a22426173652054656e6163697479222c22766102438201526530b63ab2911d60d11b61026382015282516102699490939091611b4c918591870190602001613292565b0101908101611f4b60f21b905261026b81017f7b2274726169745f74797065223a224261736520526567656e6572617465222c905267113b30b63ab2911d60c11b978861028b83015261029391815191828483019160200191611bae92613292565b611f4b60f21b9101918201527f7b2274726169745f74797065223a2242617365204167696c697479222c22766161029582015264363ab2911d60d91b6102b582018190526102ba6080819052610140518051929391611c14918491840190602001613292565b01986080518a01611f4b60f21b90526102bc8a017f7b2274726169745f74797065223a224261736520566974616c697479222c227690526530b63ab2911d60d11b6102dc8b01526102e299815191828c83019160200191611c7492613292565b01988901611f4b60f21b90526102e489017f7b2274726169745f74797065223a224261736520456d706f776572222c227661905261030489015261030997815191828a83019160200191611cc792613292565b01968701611f4b60f21b905261030b87017f7b2274726169745f74797065223a2247726f7774682054656e6163697479222c90528561032b88015261033396815191828983019160200191611d1b92613292565b611f4b60f21b9101968701527f7b2274726169745f74797065223a2247726f77746820526567656e6572617465610335870152691116113b30b63ab2911d60b11b610355870152805161035f969091611d7c90839089840190602001613292565b01948501611f4b60f21b905261036185017f7b2274726169745f74797065223a2247726f777468204167696c697479222c229052663b30b63ab2911d60c91b938461038187015261038895610100515190878101826101005160200191611de292613292565b01958601611f4b60f21b905261038a86017f7b2274726169745f74797065223a2247726f77746820566974616c697479222c90526103aa8601526103b294815191828783019160200191611e3592613292565b01938401611f4b60f21b90526103b484017f7b2274726169745f74797065223a2247726f77746820456d706f776572222c229052826103d48501526103db93815191828683019160200191611e8992613292565b01928301611f4b60f21b90526103dd83017f7b2274726169745f74797065223a22546f74616c2054656e6163697479222c229052816103fd84015261040492815191828583019160200191611edd92613292565b611f4b60f21b9101928301527f7b2274726169745f74797065223a22546f74616c20526567656e6572617465226104068301526816113b30b63ab2911d60b91b61042683015260a051805161042f939091611f4090839086840190602001613292565b611f4b60f21b9101928301527f7b2274726169745f74797065223a22546f74616c204167696c697479222c22766104318301526530b63ab2911d60d11b61045183015260c0518051610457939091611fa090839086840190602001613292565b01918201611f4b60f21b905261045982017f7b2274726169745f74797065223a22546f74616c20566974616c697479222c229052610479820152610480906101e0515190828101826101e05160200191611ff992613292565b611f4b60f21b9101918201527f7b2274726169745f74797065223a22546f74616c20456d706f776572222c22766104828201526530b63ab2911d60d11b6104a28201526101205180516104a892909161205a90839085840190602001613292565b01908101607d60f81b905260e0519003605701610432810160e051526104520160e05190612087916133de565b604051727b226e616d65223a2254726176656c6572202360681b6020820152806101a0515160338201816101a051602001916120c292613292565b61088b60f21b60339183019182018190526e113232b9b1b934b83a34b7b7111d1160891b60358301527f456d6261726b206f6e206570696320616476656e74757265732077697468205060448301527f6978747572652054726176656c6572277320756e69717565206f6e2d6368616960648301527f6e204e465473215c6e5c6e45616368204552432d3732312054726176656c657260848301527f2069732061206c6976696e67206469676974616c206d6173746572706965636560a48301527f2c20626f726e206f6e2074686520626c6f636b636861696e2e2057697468207360c48301527f74756e6e696e6720616c676f726974686d6963616c6c792067656e657261746560e48301527f6420617274776f726b2c206576657279206368617261637465722073686f77636101048301527f6173657320696e747269636174652064657461696c7320616e642076696272616101248301527f6e742064657369676e732e5c6e417320796f75206a6f75726e6579207468726f6101448301527f756768206f757220657870616e7369766520776f726c642c20776174636820796101648301527f6f75722054726176656c65722065766f6c76652c20756e6c6f636b696e67206e6101848301527f6577206162696c697469657320616e6420636f736d6574696320656e68616e636101a48301527f656d656e74732e5c6e596f7572204e46542069736e2774206a757374206172746101c48301527f2d2d6974277320796f7572206b657920746f20656e646c6573732064696769746101e48301527f616c207265616c6d73215c6e5c6e506c6179206e6f772061742068747470733a610204830152742f2f7069787475726574726176656c65722e636f6d60581b61022483015261023982018190527f22696d616765223a22646174613a696d6167652f7376672b786d6c3b6261736561023b830152620d8d0b60ea1b61025b83015261018051805161025e9390916123a790839086840190602001613292565b01918201526d2261747472696275746573223a5b60901b61026082015260e051805161026e9290916123e190839085840190602001613292565b01908101615d7d60f01b905203610250810182526102700161240390826133de565b61240c9061451c565b6040518091602082017f646174613a6170706c69636174696f6e2f6a736f6e3b6261736536342c000000905280519081603d8401916020019161244e92613292565b810103601d81018252603d0161246490826133de565b6040518091602082526020820161048e916132b5565b634e487b7160e01b600052601160045260246000fd5b634e487b7160e01b600052603260045260246000fd5b503d806000833e6124b781836133de565b8101906020818303126101b1578051906001600160401b0382116101b157019080601f830112156101b1578151916124ee836133ff565b916124fc60405193846133de565b838352602084830101116101b1576105239261251e9160208085019101613292565b610519565b6040513d6000823e3d90fd5b346101b15760803660031901126101b1576125486132da565b6125506132f0565b90604435606435926001600160401b0384116101b157366023850112156101b157836004013592612580846133ff565b9361258e60405195866133de565b80855236602482880101116101b15760208160009260246125c2990183890137860101526125bd838383613454565b61425e565b005b346101b15760003660031901126101b15760206125df613809565b604051908152f35b346101b15760403660031901126101b1576126006132da565b602435908115158092036101b1576001600160a01b031690811561267357336000526005602052604060002082600052602052604060002060ff1981541660ff83161790556040519081527f17307eab39ab6107e8899845ad3d59bd9653f200f220920489ca2b5937696c3160203392a3005b604051630b61174360e31b815260048101839052602490fd5b346101b15760003660031901126101b1576040516000600182600154926126b28461341a565b928383526020948560018216918260001461274f5750506001146126f2575b506126de925003836133de565b61048e6040519282849384528301906132b5565b84915060016000527fb10e2d527612073b26eecdfd717e6a320cf44b4afac2b0732d9fcbe2b7fa0cf6906000915b8583106127375750506126de9350820101856126d1565b80548389018501528794508693909201918101612720565b60ff1916858201526126de95151560051b85010192508791506126d19050565b346101b15760003660031901126101b157600d546040516001600160a01b039091168152602090f35b346101b15760003660031901126101b1576127b1614232565b600d80546001600160a01b031981169091556000906001600160a01b03167f8be0079c531659141344cd1fd0a4f28419497f9722a3daafe3b4186f6b6457e08280a3005b346101b15760203660031901126101b15760206125df6128136132da565b6137d0565b346101b15760203660031901126101b157606061283660043561372d565b9060405192835260208301526040820152f35b346101b15760203660031901126101b15760206128676004356138b0565b6040516001600160a01b039091168152f35b346101b15760203660031901126101b1576004356008548110156128b0576128a26020916136f6565b90546040519160031b1c8152f35b6044906040519063295f44f760e21b8252600060048301526024820152fd5b346101b1576125c26128e036613306565b90604051926128ee846133a8565b600084526125bd838383613454565b60203660031901126101b1576129116132da565b612919613809565b803410612e5d57600e5491600019831461247a5760018301600e5560405190612941826133a8565b600082526001600160a01b039181831615612e445784600052600260205282604060002054168015908115612e0d575b848416600052600360205260406000206001815401905586600052600260205260406000208585166001600160601b0360a01b82541617905586858516827fddf252ad1be2c89b69c2b068fc378daa952ba7f163c4a11628f55a4df523b3ef600080a48115612d845760085487600052600960205280604060002055600160401b8110156104925787612a0d826001612a2694016008556136f6565b90919082549060031b91821b91600019901b1916179055565b84841603612d3d575b15612d2457813b612bf3575b50505060405191612a4b836133a8565b6000835280600052600a602052604060002083516001600160401b03811161049257612a77825461341a565b601f8111612bab575b506020601f8211600114612b1e57908060209493927ff8e1a15aba9398e019f0b49df1a4fde98ee17ae345cb5f6b5e2c27f5033e8ce79697600092612b13575b50508160011b916000199060031b1c19161790555b604051908152a1803411612ae557005b8034039034821161247a576000808093819382903414612b0a575b3390f11561252357005b506108fc612b00565b015190508780612ac0565b601f198216958360005260206000209660005b818110612b93575096600192849260209796957ff8e1a15aba9398e019f0b49df1a4fde98ee17ae345cb5f6b5e2c27f5033e8ce7999a10612b7a575b505050811b019055612ad5565b015160001960f88460031b161c19169055878080612b6d565b83830151895560019098019760209384019301612b31565b826000526020600020601f830160051c81019160208410612be9575b601f0160051c01905b818110612bdd5750612a80565b60008155600101612bd0565b9091508190612bc7565b60409492949391935160208180612c33630a85bd0160e11b95868352336004840152600060248401528860448401526080606484015260848301906132b5565b038160008a8a165af160009181612cdf575b50612ca75785853d15612c9f573d91612c5d836133ff565b92612c6b60405194856133de565b83523d6000602085013e5b82519283612c9857604051633250574960e11b81528284166004820152602490fd5b8390602001fd5b606091612c76565b92949193926001600160e01b03191603612cc5575050828080612a3b565b604051633250574960e11b81529116600482015260249150fd5b9091506020813d602011612d1c575b81612cfb602093836133de565b810103126101b157516001600160e01b0319811681036101b1579087612c45565b3d9150612cee565b6040516339e3563760e11b815260006004820152602490fd5b612d46836137d0565b600019810190811161247a57848416600052600660205260406000208160005260205286604060002055866000526007602052604060002055612a2f565b8385168114612a2657612d96816137d0565b876000526007602052604060002054818103612dda575b50876000526000604081205581600052600660205260406000209060005260205260006040812055612a26565b60008381526006602090815260408083208584528252808320548484528184208190558352600790915290205588612dad565b600087815260046020526040902080546001600160a01b031916905580600052600360205260406000206000198154019055612971565b604051633250574960e11b815260006004820152602490fd5b60405162461bcd60e51b8152602060048201526014602482015273125b9cdd59999a58da595b9d081c185e5b595b9d60621b6044820152606490fd5b346101b15760403660031901126101b157612eb26132da565b60243590612ebf816137d0565b821015612ef25760018060a01b031660005260066020526040600020906000526020526020604060002054604051908152f35b60405163295f44f760e21b81526001600160a01b039190911660048201526024810191909152604490fd5b346101b15760403660031901126101b157602435600435600052600c60205260406000209060405191612f4f83613357565b546001600160a01b0380821680855260a09290921c6020850152929015612fb2575b6001600160601b036020820151169182810292818404149015171561247a575160408051939091166001600160a01b03168352612710909104602083015290f35b50604051612fbf81613357565b600b54838116825260a01c6020820152612f71565b346101b1576125c2612fe536613306565b91613454565b346101b15760003660031901126101b1576020600854604051908152f35b346101b15760403660031901126101b1576130226132da565b60243561302e816138b0565b331515806130dd575b806130b0575b613098576001600160a01b039283169282918491167f8c5be1e5ebec7d5bd14f71427d1e84f3dd0314c0f7b2291e5b200ac8c7c3b925600080a4600090815260046020526040902080546001600160a01b0319169091179055005b60405163a9fbf51f60e01b8152336004820152602490fd5b5060018060a01b038116600052600560205260406000203360005260205260ff604060002054161561303d565b506001600160a01b038116331415613037565b346101b15760203660031901126101b15760043561310d816138b0565b506000526004602052602060018060a01b0360406000205416604051908152f35b346101b15760003660031901126101b1576040516000805490826131518361341a565b918282526020936001908560018216918260001461274f57505060011461317f57506126de925003836133de565b6000808052859250907f290decd9548b62a8d60345a988386fc84ba6bc95484008f6362f93160ef3e5635b8583106131c15750506126de9350820101856126d1565b805483890185015287945086939092019181016131aa565b346101b15760203660031901126101b1576004359063ffffffff60e01b82168092036101b15760209163152a902d60e11b811490811561321b575b5015158152f35b632483248360e11b811491508115613235575b5083613214565b63780e9d6360e01b81149150811561324f575b508361322e565b6380ac58cd60e01b811491508115613281575b8115613270575b5083613248565b6301ffc9a760e01b14905083613269565b635b5e139f60e01b81149150613262565b60005b8381106132a55750506000910152565b8181015183820152602001613295565b906020916132ce81518092818552858086019101613292565b601f01601f1916010190565b600435906001600160a01b03821682036101b157565b602435906001600160a01b03821682036101b157565b60609060031901126101b1576001600160a01b039060043582811681036101b1579160243590811681036101b1579060443590565b6103c081019081106001600160401b0382111761049257604052565b604081019081106001600160401b0382111761049257604052565b60c081019081106001600160401b0382111761049257604052565b60a081019081106001600160401b0382111761049257604052565b602081019081106001600160401b0382111761049257604052565b606081019081106001600160401b0382111761049257604052565b90601f801991011681019081106001600160401b0382111761049257604052565b6001600160401b03811161049257601f01601f191660200190565b90600182811c9216801561344a575b602083101461343457565b634e487b7160e01b600052602260045260246000fd5b91607f1691613429565b6001600160a01b0382811693918415612e4457600094838652602095600287526040968488832054169633151580613668575b5087158015613635575b84845260038352898420805460010190558784526002835289842080546001600160a01b0319168617905587858a7fddf252ad1be2c89b69c2b068fc378daa952ba7f163c4a11628f55a4df523b3ef8780a4156135b95760085487845260098352808a852055600160401b8110156135a55787612a0d82600161351794016008556136f6565b838803613553575b5050505016928383036135325750505050565b6064945051926364283d7b60e01b8452600484015260248301526044820152fd5b61355c906137d0565b6000198101939084116135915782916007918a945260068152838320858452815287848420558783525220553880808061351f565b634e487b7160e01b83526011600452602483fd5b634e487b7160e01b84526041600452602484fd5b878414613517576135c9886137d0565b87845260078352898420548181036135fe575b50878452838a8120558884526006835289842090845282528289812055613517565b898552600684528a852082865284528a8520548a8652600685528b86208287528552808c8720558552600784528a852055386135dc565b600088815260046020526040902080546001600160a01b0319169055888452600383528984208054600019019055613491565b806136b5575b156136795738613487565b888789613696576024915190637e27328960e01b82526004820152fd5b905163177e802f60e01b81523360048201526024810191909152604490fd5b5033881480156136da575b8061366e57508683526004825233868a852054161461366e565b5087835260058252888320338452825260ff89842054166136c0565b6008548110156124905760086000527ff3f7a9fe364faab93b216da50a3214154f22a0a2b415b23a84c8169e8b636ee30190600090565b600f546040805163c29bdc6160e01b81526004810184905293909290918390859060249082906001600160a01b03165afa9384156137c55760009360009561378b575b50508061377f61378592613a6c565b50613d71565b91929190565b809295508194503d83116137be575b6137a481836133de565b810103126101b15761378560208351930151939038613770565b503d61379a565b83513d6000823e3d90fd5b6001600160a01b031680156137f057600052600360205260406000205490565b6040516322718ad960e21b815260006004820152602490fd5b600e546103e88110156138765760c881101561382b57506608e1bc9bf0400090565b6101908110156138415750660aa87bee53800090565b6102588110156138575750660e35fa931a000090565b610320111561386b57661550f7dca7000090565b661c6bf52634000090565b600019810190811161247a576611c37937e080009081810291818304149015171561247a57662386f26fc1000090810180911161247a5790565b6000818152600260205260409020546001600160a01b03169081156138d3575090565b60249060405190637e27328960e01b82526004820152fd5b604051906138f882613357565b600682526523b7b13634b760d11b6020830152565b6040519061391a82613357565b600682526512dbd89bdb1960d21b6020830152565b6040519061393c82613357565b60038252624f726360e81b6020830152565b6040519061395b82613357565b6005825264476e6f6d6560d81b6020830152565b6040519061397c82613357565b600582526429b0ba3cb960d91b6020830152565b6040519061399d82613357565b600882526726b4b737ba30bab960c11b6020830152565b604051906139c182613357565b60038252624f6e6960e81b6020830152565b604051906139e082613357565b6005825264111c9e585960da1b6020830152565b60405190613a0182613357565b6007825266223930b3b7b7b760c91b6020830152565b60405190613a2482613357565b600782526656616d7069726560c81b6020830152565b60405190613a4782613357565b60058252642232b6b7b760d91b6020830152565b9060068110156124905760051b0190565b9060409182519060808201918083106001600160401b0384111761049257828552613a9683613357565b60059283815264243ab6b0b760d91b60a08301528152845192613ab884613357565b80845260209364223bb0b93360d91b8582015284830152613ad76138eb565b868301528551613ae681613357565b81815264466169727960d81b8582015260608301528551613b0681613372565b8651613b1181613357565b600881526748616c666c696e6760c01b868201528152613b2f61390d565b858201528651613b3e81613357565b600381526222b63360e91b8682015287820152613b5961392f565b60608201528651613b6981613357565b60048152634f67726560e01b8682015260808201528651613b8981613357565b82815264506978696560d81b8682015260a08201528651613ba981613372565b613bb161394e565b8152613bbb61396f565b868201528751613bca81613357565b60068152650a6cae4c2e0d60d31b8782015288820152613be8613990565b6060820152613bf56139b4565b6080820152613c026139d3565b60a0820152875194613c1386613372565b613c1b6139f4565b8652613c25613a17565b878701528851613c3481613357565b84815264263cb1b0b760d91b88820152898701528851613c5381613357565b600a815269486f6d756e63756c757360b01b888201526060870152613c76613a3a565b60808701528851613c8681613357565b84815264105b99d95b60da1b8882015260a08701528851878101918252635241434560e01b8a82015260248152613cbc816133c3565b519020946103e8860660ff166102bc811015613d055750505050600460038416101561249057603160f81b926060911b160151935191613cfb83613357565b6001835282015290565b9295945090925090610398811015613d3a57505050601960f91b916006613d2d920690613a5b565b51935191613cfb83613357565b6103de9192945010600014613d5d5750603360f81b916006613d2d920690613a5b565b600d60fa1b92506006613d2d920690613a5b565b90604091825190602091613da1838281613d948183019687815193849201613292565b81010380845201826133de565b519020835182810164243ab6b0b760d91b8152600591828152613dc381613357565b5190208214801561420a575b80156141e2575b80156141b6575b801561418f575b8015614167575b15613e2757505063424f445960e01b83600f945192830193845282015260248152613e15816133c3565b519020166003810180911161247a5790565b8451838101906523b7b13634b760d11b825260068152613e4681613357565b5190208203613e59575050505050601490565b8451838101906512dbd89bdb1960d21b825260068152613e7881613357565b5190208203613e8b575050505050601b90565b845183810190624f726360e81b825260038152613ea781613357565b5190208203613eba575050505050601590565b845183810190634f67726560e01b825260048152613ed781613357565b5190208203613eea575050505050601690565b84518381019064476e6f6d6560d81b8252828152613f0781613357565b5190208203613f1a575050505050601a90565b8451838101906429b0ba3cb960d91b8252828152613f3781613357565b5190208203613f4a575050505050601d90565b845183810190650a6cae4c2e0d60d31b825260068152613f6981613357565b5190208203613f7c575050505050600290565b8451838101906726b4b737ba30bab960c11b825260088152613f9d81613357565b5190208203613fb0575050505050601890565b845183810190624f6e6960e81b825260038152613fcc81613357565b5190208203613fdf575050505050601790565b84518381019064111c9e585960da1b8252828152613ffc81613357565b519020820361400f575050505050601c90565b84518381019066223930b3b7b7b760c91b82526007815261402f81613357565b5190208203614042575050505050601e90565b8451838101906656616d7069726560c81b82526007815261406281613357565b5190208203614075575050505050601390565b84518381019064263cb1b0b760d91b825282815261409281613357565b51902082036140a5575050505050601390565b84518381019069486f6d756e63756c757360b01b8252600a81526140c881613357565b519020820361410857505063424f445960e01b83601e9451928301938452820152602481526140f6816133c3565b519020066001810180911161247a5790565b925092805182810190642232b6b7b760d91b825284815261412881613357565b519020840361413a5750505050601990565b519081019164105b99d95b60da1b8352815261415581613357565b5190200361416257600190565b600190565b5084518381019064506978696560d81b825282815261418581613357565b5190208214613deb565b508451838101906222b63360e91b8252600381526141ac81613357565b5190208214613de4565b508451838101906748616c666c696e6760c01b8252600881526141d881613357565b5190208214613ddd565b5084518381019064466169727960d81b825282815261420081613357565b5190208214613dd6565b5084518381019064223bb0b93360d91b825282815261422881613357565b5190208214613dcf565b600d546001600160a01b0316330361424657565b60405163118cdaa760e01b8152336004820152602490fd5b813b61426b575b50505050565b604051630a85bd0160e11b8082523360048301526001600160a01b039283166024830152604482019490945260806064820152602095929091169390929083906142b99060848301906132b5565b039285816000958187895af1849181614362575b5061432d575050503d600014614325573d6142e7816133ff565b906142f560405192836133de565b81528091843d92013e5b8051928361432057604051633250574960e11b815260048101849052602490fd5b019050fd5b5060606142ff565b919450915063ffffffff60e01b160361434a575038808080614265565b60249060405190633250574960e11b82526004820152fd5b9091508681813d831161439f575b61437a81836133de565b8101031261439b57516001600160e01b03198116810361439b5790386142cd565b8480fd5b503d614370565b906143b0826133ff565b6143bd60405191826133de565b82815280926143ce601f19916133ff565b0190602036910137565b806000917a184f03e93ff9f4daa797ed6e38ed64bf6a1f0100000000000000008082101561450e575b506d04ee2d6d415b85acef8100000000808310156144ff575b50662386f26fc10000808310156144f0575b506305f5e100808310156144e1575b50612710808310156144d2575b5060648210156144c2575b600a809210156144b8575b600190816021614470600187016143a6565b95860101905b614482575b5050505090565b600019019083906f181899199a1a9b1b9c1cb0b131b232b360811b8282061a8353049182156144b357919082614476565b61447b565b916001019161445e565b9190606460029104910191614453565b60049193920491019138614448565b6008919392049101913861443b565b6010919392049101913861442c565b6020919392049101913861441a565b604093508104915038614401565b908151156146645760405191614531836133c3565b604083527f4142434445464748494a4b4c4d4e4f505152535455565758595a61626364656660208401527f6768696a6b6c6d6e6f707172737475767778797a303132333435363738392b2f60408401528051926002916002850180951161247a576003948590046001600160fe1b038116810361247a576145b79060029694961b6143a6565b926020840192829183518401976020890192835194600085525b8a811061461757505050506003939495965052510680600114614604576002146145f9575090565b603d90600019015390565b50603d9081600019820153600119015390565b836004919b989b019a8b51600190603f9082828260121c16870101518453828282600c1c16870101518385015382828260061c1687010151878501531684010151858201530196996145d1565b9050604051614672816133a8565b6000815290565b604051906146868261338d565b60006080838281528260208201528260408201528260608201520152565b6146ac614679565b5060408051916020926146ce848281613d948183019687815193849201613292565b5190209080519183830164243ab6b0b760d91b81526005938481526146f281613357565b51902081036147285750600280925081519361470d8561338d565b60048552840152820152600160608201526001608082015290565b81518481019064223bb0b93360d91b825284815261474581613357565b519020810361477b57506001915060028151936147618561338d565b818552840152820152600460608201526001608082015290565b8151928484016523b7b13634b760d11b815260069485815261479c81613357565b51902082036147d45750506004915060018151936147b98561338d565b60028552840152820152600260608201526001608082015290565b82518581019064466169727960d81b82528281526147f181613357565b519020820361482957505060029150600481519361480e8561338d565b60018552840152820152600260608201526001608082015290565b82518581016748616c666c696e6760c01b815260089182815261484b81613357565b51902083036148835750505060038092508151936148688561338d565b60048552840152820152600360608201526002608082015290565b8351868101906512dbd89bdb1960d21b82528681526148a181613357565b51902083036148d65750505060028151936148bb8561338d565b60038552840152820152600260608201526002608082015290565b83516222b63360e91b8782019081526003808352969394916148f781613357565b519020810361492b57505090508151936149108561338d565b60028552840152820152600260608201526002608082015290565b845187810190624f726360e81b825287815261494681613357565b519020810361497c575050505060028151936149618561338d565b60048552840152820152600460608201526002608082015290565b8451634f67726560e01b81890190815260048083529598959794916149a081613357565b51902082036149d5575050505090600280928251956149be8761338d565b865285015283015260608201526002608082015290565b85979497969396518881019064506978696560d81b82528681526149f881613357565b5190208203614a2d575050505090600291815194614a158661338d565b84865285015283015260608201526002608082015290565b8594979395518481019064476e6f6d6560d81b8252898152614a4e81613357565b5190208203614a7f5750505090828092825196614a6a8861338d565b87528601528401526060830152608082015290565b90929691948451888101906429b0ba3cb960d91b8252848152614aa181613357565b5190208403614ad2575050505082815194614abb8661338d565b818652850152830152806060830152608082015290565b8497969593975187810190650a6cae4c2e0d60d31b8252838152614af581613357565b5190208803614b285750505082939450815194614b118661338d565b838652850152830152806060830152608082015290565b8496939651848101906726b4b737ba30bab960c11b8252888152614b4b81613357565b5190208803614b7f57505050829394508290825195614b698761338d565b8652850152830152806060830152608082015290565b849397869796955189810190624f6e6960e81b8252878152614ba081613357565b5190208103614bd0575050505081815195614bba8761338d565b8187528601528401526060830152608082015290565b909193809550959295518881019064111c9e585960da1b8252878152614bf581613357565b5190208103614c2657505050908391815195614c108761338d565b8387528601528401526060830152608082015290565b8497939297969196518481019066223930b3b7b7b760c91b825260078152614c4d81613357565b5190208103614c695750505090838092825196614a6a8861338d565b908691859893949851898101906656616d7069726560c81b825260078152614c9081613357565b5190208103614cc4575050505060079250815194614cad8661338d565b848652850152830152806060830152608082015290565b85949395518981019064263cb1b0b760d91b8252888152614ce481613357565b5190208103614cfd5750509050815195614bba8761338d565b84969591929396518981019069486f6d756e63756c757360b01b8252600a8152614d2681613357565b5190208103614d40575050505081815195614bba8761338d565b90919380959396505188810190642232b6b7b760d91b8252848152614d6481613357565b5190208103614d9557505050815194614d7c8661338d565b6007865285015283015260076060830152608082015290565b919450915082518681019064105b99d95b60da1b8252858152614db781613357565b51902003614dce57908391815195614c108761338d565b5090506001809250815193614de28561338d565b818552840152820152600160608201526001608082015290565b614e04614679565b506040805191602092614e26848281613d948183019687815193849201613292565b519020908051918383016722bc383637b932b960c11b8152600893848152614e4d81613357565b5190208103614e695750600291506003815193614de28561338d565b8151848101906920b23b32b73a3ab932b960b11b8252600a8152614e8c81613357565b5190208103614ec35750600191506002815193614ea88561338d565b60038552840152820152600360608201526001608082015290565b815184810190672a3930bb32b632b960c11b8252848152614ee381613357565b5190208103614f1a5750600391506001815193614eff8561338d565b60028552840152820152600360608201526001608082015290565b81519284840164139bdb585960da1b8152600594858152614f3a81613357565b5190208203614f56575050600380925081519361480e8561338d565b8251858101906a2a3930b4b6313630bd32b960a91b8252600b8152614f7a81613357565b5190208203614fb15750506002809250815193614f968561338d565b60038552840152820152600260608201526001608082015290565b8251858101906b21b0b93a37b3b930b83432b960a11b8252600c8152614fd681613357565b5190208203614ff3575050600491506002815193614de28561338d565b825185810190692830ba343334b73232b960b11b8252600a815261501681613357565b519020820361504d5750506001915060038151936150338561338d565b818552840152820152600260608201526001608082015290565b825185810190672bb0b73232b932b960c11b825282815261506d81613357565b51902082036150a457505060029150600481519361508a8561338d565b838552840152820152600160608201526001608082015290565b825185810190662b37bcb0b3b2b960c91b8252600781526150c481613357565b51902082036150fa57505060028092508151936150e08561338d565b818552840152820152600360608201526001608082015290565b8251858101906529b2b2b5b2b960d11b82526006815261511981613357565b51902082036151365750506003915060028151936150338561338d565b8251858101906650696c6772696d60c81b82526007815261515681613357565b519020820361518d5750506002915060038151936151738561338d565b838552840152820152600260608201526001608082015290565b825185810190672bb0bcb330b932b960c11b82528281526151ad81613357565b51902082036151ca57505060039150600281519361508a8561338d565b825185810190652937b0b6b2b960d11b8252600681526151e981613357565b51902082036152065750506001915060028151936147618561338d565b82518581019067159859d8589bdb9960c21b825282815261522681613357565b519020820361524357505060029150600481519361480e8561338d565b8251858101906414d8dbdd5d60da1b825285815261526081613357565b519020820361527d5750506004915060018151936147b98561338d565b825185810190662834b7b732b2b960c91b82526007815261529d81613357565b51902082036152ba57505060019150600281519361470d8561338d565b825185810191672b32b73a3ab932b960c11b835281526152d981613357565b519020810361530d575060018092938251946152f48661338d565b8552840152820152600260608201526001608082015290565b8151848101906915d85b99195c9b1d5cdd60b21b8252600a815261533081613357565b51902081036153635750806002600192519461534b8661338d565b83865285015283015260608201526001608082015290565b815184810190664f64797373657960c81b82526007815261538381613357565b51902081036153b7575060019181519361539c8561338d565b60028552840152820152600160608201526001608082015290565b815184810190652bb0b635b2b960d11b8252600681526153d681613357565b519020036153ec5760018151936150338561338d565b6001809250815193614de28561338d565b90601e8110156124905760051b019056fea264697066735822122052170d7cccf8534e312c6b3f27377a7e61bde25ca3a2bc553f17710e482295cb64736f6c63430008180033",
  "linkReferences": {},
  "deployedLinkReferences": {}
}