{
  "_format": "hh-sol-artifact-1",
  "contractName": "SVGRenderer",
  "sourceName": "contracts/SVGRenderer.sol",
  "abi": [
    {
      "inputs": [
        {
          "internalType": "address",
          "name": "_armRenderer",
          "type": "address"
        },
        {
          "internalType": "address",
          "name": "_bodyRenderer",
          "type": "address"
        },
        {
          "internalType": "address",
          "name": "_eyeRenderer",
          "type": "address"
        },
        {
          "internalType": "address[5]",
          "name": "_hairRenderers",
          "type": "address[5]"
        }
      ],
      "stateMutability": "nonpayable",
      "type": "constructor"
    },
    {
      "inputs": [],
      "name": "armRenderer",
      "outputs": [
        {
          "internalType": "contract ISVGPartRenderer",
          "name": "",
          "type": "address"
        }
      ],
      "stateMutability": "view",
      "type": "function"
    },
    {
      "inputs": [],
      "name": "bodyRenderer",
      "outputs": [
        {
          "internalType": "contract ISVGPartRenderer",
          "name": "",
          "type": "address"
        }
      ],
      "stateMutability": "view",
      "type": "function"
    },
    {
      "inputs": [],
      "name": "eyeRenderer",
      "outputs": [
        {
          "internalType": "contract ISVGPartRenderer",
          "name": "",
          "type": "address"
        }
      ],
      "stateMutability": "view",
      "type": "function"
    },
    {
      "inputs": [
        {
          "internalType": "uint256",
          "name": "_tokenId",
          "type": "uint256"
        }
      ],
      "name": "generateStyles",
      "outputs": [
        {
          "internalType": "uint256",
          "name": "",
          "type": "uint256"
        },
        {
          "internalType": "uint256",
          "name": "",
          "type": "uint256"
        }
      ],
      "stateMutability": "pure",
      "type": "function"
    },
    {
      "inputs": [
        {
          "internalType": "uint256",
          "name": "",
          "type": "uint256"
        }
      ],
      "name": "hairRenderers",
      "outputs": [
        {
          "internalType": "contract ISVGPartRenderer",
          "name": "",
          "type": "address"
        }
      ],
      "stateMutability": "view",
      "type": "function"
    },
    {
      "inputs": [
        {
          "internalType": "uint256",
          "name": "_tokenId",
          "type": "uint256"
        },
        {
          "internalType": "uint256",
          "name": "bodyStyle",
          "type": "uint256"
        }
      ],
      "name": "render",
      "outputs": [
        {
          "internalType": "string",
          "name": "",
          "type": "string"
        }
      ],
      "stateMutability": "view",
      "type": "function"
    }
  ],
  "bytecode": "0x60803461014657601f61070938819003918201601f19168301926001600160401b039290918385118386101761014b578190604095865283398101906101009182828203126101465761005182610161565b60209161006060208501610161565b9461006c888601610161565b9482607f820112156101465788519760a089019081118982101761014b57895287918101928311610146576060859101915b83831061012e575050505060018060a01b0380958160018060a01b0319958160009516876000541617600055600198899816876001541617600155168560025416176002556000955b6100fa575b875161059390816101768239f35b600580871015610128578683899889931b84015116818652600387528a8620908882541617905501956100e7565b506100ec565b819061013984610161565b815201910190849061009e565b600080fd5b634e487b7160e01b600052604160045260246000fd5b51906001600160a01b03821682036101465756fe60806040908082526004908136101561001757600080fd5b600090813560e01c9081631678cce514610436575080632db24c131461040257806383f0462e146103d95780638c02cf30146100bf5780638f57b738146100925763c29bdc611461006757600080fd5b3461008f57602036600319011261008f57506100839035610526565b82519182526020820152f35b80fd5b5082346100bb57816003193601126100bb5760015490516001600160a01b039091168152602090f35b5080fd5b509190346103d557816003193601126103d55760249283356100e18335610526565b90918284526020966003885260018060a01b0395868887205416885197878985816330c8446360e21b958682526001888301525afa9889156103cb5788996103af575b5080885416600019860195861161039d5790888593928c51968780928682528a898301525afa94851561035b578995610381575b5088816001541696848d5180998193878352898301525afa95861561035b578996610365575b5088816002541697848d51809a8193878352898301525afa96871561035b57908994939291859861033b575b508495969798855260038d528b852054168b51958694859384528301525afa948515610330577f3c73766720786d6c6e733d22687474703a2f2f7777772e77332e6f72672f3230956102e1956084957f30302f737667222077696474683d2237323022206865696768743d2237323022958b9585651e17b9bb339f60d11b969561030b575b50508c61029387519c8d998a99848b019e8f528a01527f2073686170652d72656e646572696e673d2263726973704564676573223e000060608a0152610281607e9982858c945194859301910161045a565b89019183519384918a8501910161045a565b016102a78d8351938491898501910161045a565b016102bb8c8351938491888501910161045a565b016102ce825180938d878501910161045a565b019182015203606481018552018361047d565b6102fd835194859381855251928380928601528585019061045a565b601f01601f19168101030190f35b6103289295503d8091833e610320818361047d565b8101906104b5565b92388061022f565b8751903d90823e3d90fd5b8596979850610353903d8088833e610320818361047d565b9796956101aa565b8b513d8b823e3d90fd5b61037a9196503d808b833e610320818361047d565b943861017e565b6103969195503d808b833e610320818361047d565b9338610158565b634e487b7160e01b8952601184528489fd5b6103c49199503d808a833e610320818361047d565b9738610124565b8a513d8a823e3d90fd5b8280fd5b5082346100bb57816003193601126100bb5760025490516001600160a01b039091168152602090f35b509190346103d55760203660031901126103d55735825260036020908152918190205490516001600160a01b039091168152f35b9050346100bb57816003193601126100bb5790546001600160a01b03168152602090f35b60005b83811061046d5750506000910152565b818101518382015260200161045d565b90601f8019910116810190811067ffffffffffffffff82111761049f57604052565b634e487b7160e01b600052604160045260246000fd5b60208183031261052157805167ffffffffffffffff9182821161052157019082601f8301121561052157815190811161049f5760405192610500601f8301601f19166020018561047d565b818452602082840101116105215761051e916020808501910161045a565b90565b600080fd5b60405160208101918252602081526040810181811067ffffffffffffffff82111761049f5760405251902090601e6005830692069056fea264697066735822122081fa92636d86661fc02b301ee31a6df80aaf2ac9f92e787593d75b3c49c5f41064736f6c63430008180033",
  "linkReferences": {},
  "deployedLinkReferences": {}
}