{
  "contracts/SVGRendererV2.sol": {
    "SVGRendererV2": {
      "abi": [
        {
          "inputs": [
            {
              "internalType": "address",
              "name": "_armRenderer",
              "type": "address"
            },
            {
              "internalType": "address",
              "name": "_bodyRenderer",
              "type": "address"
            },
            {
              "internalType": "address",
              "name": "_eyeRenderer",
              "type": "address"
            },
            {
              "internalType": "address[30]",
              "name": "_hairRenderers",
              "type": "address[30]"
            }
          ],
          "stateMutability": "nonpayable",
          "type": "constructor"
        },
        {
          "inputs": [],
          "name": "armRenderer",
          "outputs": [
            {
              "internalType": "contract ISVGPartRenderer",
              "name": "",
              "type": "address"
            }
          ],
          "stateMutability": "view",
          "type": "function"
        },
        {
          "inputs": [],
          "name": "bodyRenderer",
          "outputs": [
            {
              "internalType": "contract ISVGPartRenderer",
              "name": "",
              "type": "address"
            }
          ],
          "stateMutability": "view",
          "type": "function"
        },
        {
          "inputs": [],
          "name": "eyeRendererV2",
          "outputs": [
            {
              "internalType": "contract ISVGPartRenderer",
              "name": "",
              "type": "address"
            }
          ],
          "stateMutability": "view",
          "type": "function"
        },
        {
          "inputs": [
            {
              "internalType": "uint256",
              "name": "_tokenId",
              "type": "uint256"
            }
          ],
          "name": "generateStyles",
          "outputs": [
            {
              "internalType": "uint256",
              "name": "",
              "type": "uint256"
            },
            {
              "internalType": "uint256",
              "name": "",
              "type": "uint256"
            }
          ],
          "stateMutability": "pure",
          "type": "function"
        },
        {
          "inputs": [
            {
              "internalType": "uint256",
              "name": "",
              "type": "uint256"
            }
          ],
          "name": "hairRenderers",
          "outputs": [
            {
              "internalType": "contract ISVGPartRenderer",
              "name": "",
              "type": "address"
            }
          ],
          "stateMutability": "view",
          "type": "function"
        },
        {
          "inputs": [
            {
              "internalType": "uint256",
              "name": "_tokenId",
              "type": "uint256"
            },
            {
              "internalType": "uint256",
              "name": "bodyStyle",
              "type": "uint256"
            }
          ],
          "name": "render",
          "outputs": [
            {
              "internalType": "string",
              "name": "",
              "type": "string"
            }
          ],
          "stateMutability": "view",
          "type": "function"
        }
      ],
      "evm": {
        "bytecode": {
          "linkReferences": {},
          "object": "60803461013457601f6106f538819003918201601f1916830192916001600160401b03918285118486101761013957819060409586528439820191610420928382820312610134576100508261014f565b60209161005f6020850161014f565b9561006b88860161014f565b9482607f82011215610134578851966103c088019081118882101761013957895286918101928311610134576060859101915b83831061011c575050505060018060a01b038060018060a01b031994816000941686600054161760005581600198168660015416176001551684600254161760025560005b601e81106100f957875161059190816101648239f35b8082889260051b88015116818552600386528985209087825416179055016100e3565b81906101278461014f565b815201910190849061009e565b600080fd5b634e487b7160e01b600052604160045260246000fd5b51906001600160a01b03821682036101345756fe608060408181526004918236101561001657600080fd5b600092833560e01c9182631678cce514610435575081632db24c13146104025781638c02cf30146100e95781638f57b738146100c0578163c29bdc6114610092575063c657fbef1461006757600080fd5b3461008e578160031936011261008e5760025490516001600160a01b039091168152602090f35b5080fd5b905082346100bd5760203660031901126100bd57506100b19035610525565b82519182526020820152f35b80fd5b50503461008e578160031936011261008e5760015490516001600160a01b039091168152602090f35b9050346103fe57816003193601126103fe57602492833561010a8335610525565b90918284526020966003885260018060a01b0395868887205416885197878985816330c8446360e21b958682526001888301525afa9889156103f45788996103d8575b508088541660001986019586116103c65790888593928c51968780928682528a898301525afa9485156103845789956103aa575b5088816001541696848d5180998193878352898301525afa95861561038457899661038e575b5088816002541697848d51809a8193878352898301525afa968715610384579089949392918598610364575b508495969798855260038d528b852054168b51958694859384528301525afa948515610359577f3c73766720786d6c6e733d22687474703a2f2f7777772e77332e6f72672f32309561030a956084957f30302f737667222077696474683d2237323022206865696768743d2237323022958b9585651e17b9bb339f60d11b9695610334575b50508c6102bc87519c8d998a99848b019e8f528a01527f2073686170652d72656e646572696e673d2263726973704564676573223e000060608a01526102aa607e9982858c9451948593019101610459565b89019183519384918a85019101610459565b016102d08d83519384918985019101610459565b016102e48c83519384918885019101610459565b016102f7825180938d8785019101610459565b019182015203606481018552018361047c565b6103268351948593818552519283809286015285850190610459565b601f01601f19168101030190f35b6103519295503d8091833e610349818361047c565b8101906104b4565b923880610258565b8751903d90823e3d90fd5b859697985061037c903d8088833e610349818361047c565b9796956101d3565b8b513d8b823e3d90fd5b6103a39196503d808b833e610349818361047c565b94386101a7565b6103bf9195503d808b833e610349818361047c565b9338610181565b634e487b7160e01b8952601184528489fd5b6103ed9199503d808a833e610349818361047c565b973861014d565b8a513d8a823e3d90fd5b8280fd5b9050346103fe5760203660031901126103fe5735825260036020908152918190205490516001600160a01b039091168152f35b84903461008e578160031936011261008e5790546001600160a01b03168152602090f35b60005b83811061046c5750506000910152565b818101518382015260200161045c565b90601f8019910116810190811067ffffffffffffffff82111761049e57604052565b634e487b7160e01b600052604160045260246000fd5b60208183031261052057805167ffffffffffffffff9182821161052057019082601f8301121561052057815190811161049e57604051926104ff601f8301601f19166020018561047c565b818452602082840101116105205761051d9160208085019101610459565b90565b600080fd5b604051906020820190815260208252604082019180831067ffffffffffffffff84111761049e57601e926040525190200690819056fea26469706673582212205ddfdfe69373aeb589eee0694daeb1b6d4baf839d5bc672690acde701198ecfb64736f6c63430008180033",
          "opcodes": "PUSH1 0x80 CALLVALUE PUSH2 0x134 JUMPI PUSH1 0x1F PUSH2 0x6F5 CODESIZE DUP2 SWAP1 SUB SWAP2 DUP3 ADD PUSH1 0x1F NOT AND DUP4 ADD SWAP3 SWAP2 PUSH1 0x1 PUSH1 0x1 PUSH1 0x40 SHL SUB SWAP2 DUP3 DUP6 GT DUP5 DUP7 LT OR PUSH2 0x139 JUMPI DUP2 SWAP1 PUSH1 0x40 SWAP6 DUP7 MSTORE DUP5 CODECOPY DUP3 ADD SWAP2 PUSH2 0x420 SWAP3 DUP4 DUP3 DUP3 SUB SLT PUSH2 0x134 JUMPI PUSH2 0x50 DUP3 PUSH2 0x14F JUMP JUMPDEST PUSH1 0x20 SWAP2 PUSH2 0x5F PUSH1 0x20 DUP6 ADD PUSH2 0x14F JUMP JUMPDEST SWAP6 PUSH2 0x6B DUP9 DUP7 ADD PUSH2 0x14F JUMP JUMPDEST SWAP5 DUP3 PUSH1 0x7F DUP3 ADD SLT ISZERO PUSH2 0x134 JUMPI DUP9 MLOAD SWAP7 PUSH2 0x3C0 DUP9 ADD SWAP1 DUP2 GT DUP9 DUP3 LT OR PUSH2 0x139 JUMPI DUP10 MSTORE DUP7 SWAP2 DUP2 ADD SWAP3 DUP4 GT PUSH2 0x134 JUMPI PUSH1 0x60 DUP6 SWAP2 ADD SWAP2 JUMPDEST DUP4 DUP4 LT PUSH2 0x11C JUMPI POP POP POP POP PUSH1 0x1 DUP1 PUSH1 0xA0 SHL SUB DUP1 PUSH1 0x1 DUP1 PUSH1 0xA0 SHL SUB NOT SWAP5 DUP2 PUSH1 0x0 SWAP5 AND DUP7 PUSH1 0x0 SLOAD AND OR PUSH1 0x0 SSTORE DUP2 PUSH1 0x1 SWAP9 AND DUP7 PUSH1 0x1 SLOAD AND OR PUSH1 0x1 SSTORE AND DUP5 PUSH1 0x2 SLOAD AND OR PUSH1 0x2 SSTORE PUSH1 0x0 JUMPDEST PUSH1 0x1E DUP2 LT PUSH2 0xF9 JUMPI DUP8 MLOAD PUSH2 0x591 SWAP1 DUP2 PUSH2 0x164 DUP3 CODECOPY RETURN JUMPDEST DUP1 DUP3 DUP9 SWAP3 PUSH1 0x5 SHL DUP9 ADD MLOAD AND DUP2 DUP6 MSTORE PUSH1 0x3 DUP7 MSTORE DUP10 DUP6 KECCAK256 SWAP1 DUP8 DUP3 SLOAD AND OR SWAP1 SSTORE ADD PUSH2 0xE3 JUMP JUMPDEST DUP2 SWAP1 PUSH2 0x127 DUP5 PUSH2 0x14F JUMP JUMPDEST DUP2 MSTORE ADD SWAP2 ADD SWAP1 DUP5 SWAP1 PUSH2 0x9E JUMP JUMPDEST PUSH1 0x0 DUP1 REVERT JUMPDEST PUSH4 0x4E487B71 PUSH1 0xE0 SHL PUSH1 0x0 MSTORE PUSH1 0x41 PUSH1 0x4 MSTORE PUSH1 0x24 PUSH1 0x0 REVERT JUMPDEST MLOAD SWAP1 PUSH1 0x1 PUSH1 0x1 PUSH1 0xA0 SHL SUB DUP3 AND DUP3 SUB PUSH2 0x134 JUMPI JUMP INVALID PUSH1 0x80 PUSH1 0x40 DUP2 DUP2 MSTORE PUSH1 0x4 SWAP2 DUP3 CALLDATASIZE LT ISZERO PUSH2 0x16 JUMPI PUSH1 0x0 DUP1 REVERT JUMPDEST PUSH1 0x0 SWAP3 DUP4 CALLDATALOAD PUSH1 0xE0 SHR SWAP2 DUP3 PUSH4 0x1678CCE5 EQ PUSH2 0x435 JUMPI POP DUP2 PUSH4 0x2DB24C13 EQ PUSH2 0x402 JUMPI DUP2 PUSH4 0x8C02CF30 EQ PUSH2 0xE9 JUMPI DUP2 PUSH4 0x8F57B738 EQ PUSH2 0xC0 JUMPI DUP2 PUSH4 0xC29BDC61 EQ PUSH2 0x92 JUMPI POP PUSH4 0xC657FBEF EQ PUSH2 0x67 JUMPI PUSH1 0x0 DUP1 REVERT JUMPDEST CALLVALUE PUSH2 0x8E JUMPI DUP2 PUSH1 0x3 NOT CALLDATASIZE ADD SLT PUSH2 0x8E JUMPI PUSH1 0x2 SLOAD SWAP1 MLOAD PUSH1 0x1 PUSH1 0x1 PUSH1 0xA0 SHL SUB SWAP1 SWAP2 AND DUP2 MSTORE PUSH1 0x20 SWAP1 RETURN JUMPDEST POP DUP1 REVERT JUMPDEST SWAP1 POP DUP3 CALLVALUE PUSH2 0xBD JUMPI PUSH1 0x20 CALLDATASIZE PUSH1 0x3 NOT ADD SLT PUSH2 0xBD JUMPI POP PUSH2 0xB1 SWAP1 CALLDATALOAD PUSH2 0x525 JUMP JUMPDEST DUP3 MLOAD SWAP2 DUP3 MSTORE PUSH1 0x20 DUP3 ADD MSTORE RETURN JUMPDEST DUP1 REVERT JUMPDEST POP POP CALLVALUE PUSH2 0x8E JUMPI DUP2 PUSH1 0x3 NOT CALLDATASIZE ADD SLT PUSH2 0x8E JUMPI PUSH1 0x1 SLOAD SWAP1 MLOAD PUSH1 0x1 PUSH1 0x1 PUSH1 0xA0 SHL SUB SWAP1 SWAP2 AND DUP2 MSTORE PUSH1 0x20 SWAP1 RETURN JUMPDEST SWAP1 POP CALLVALUE PUSH2 0x3FE JUMPI DUP2 PUSH1 0x3 NOT CALLDATASIZE ADD SLT PUSH2 0x3FE JUMPI PUSH1 0x24 SWAP3 DUP4 CALLDATALOAD PUSH2 0x10A DUP4 CALLDATALOAD PUSH2 0x525 JUMP JUMPDEST SWAP1 SWAP2 DUP3 DUP5 MSTORE PUSH1 0x20 SWAP7 PUSH1 0x3 DUP9 MSTORE PUSH1 0x1 DUP1 PUSH1 0xA0 SHL SUB SWAP6 DUP7 DUP9 DUP8 KECCAK256 SLOAD AND DUP9 MLOAD SWAP8 DUP8 DUP10 DUP6 DUP2 PUSH4 0x30C84463 PUSH1 0xE2 SHL SWAP6 DUP7 DUP3 MSTORE PUSH1 0x1 DUP9 DUP4 ADD MSTORE GAS STATICCALL SWAP9 DUP10 ISZERO PUSH2 0x3F4 JUMPI DUP9 SWAP10 PUSH2 0x3D8 JUMPI JUMPDEST POP DUP1 DUP9 SLOAD AND PUSH1 0x0 NOT DUP7 ADD SWAP6 DUP7 GT PUSH2 0x3C6 JUMPI SWAP1 DUP9 DUP6 SWAP4 SWAP3 DUP13 MLOAD SWAP7 DUP8 DUP1 SWAP3 DUP7 DUP3 MSTORE DUP11 DUP10 DUP4 ADD MSTORE GAS STATICCALL SWAP5 DUP6 ISZERO PUSH2 0x384 JUMPI DUP10 SWAP6 PUSH2 0x3AA JUMPI JUMPDEST POP DUP9 DUP2 PUSH1 0x1 SLOAD AND SWAP7 DUP5 DUP14 MLOAD DUP1 SWAP10 DUP2 SWAP4 DUP8 DUP4 MSTORE DUP10 DUP4 ADD MSTORE GAS STATICCALL SWAP6 DUP7 ISZERO PUSH2 0x384 JUMPI DUP10 SWAP7 PUSH2 0x38E JUMPI JUMPDEST POP DUP9 DUP2 PUSH1 0x2 SLOAD AND SWAP8 DUP5 DUP14 MLOAD DUP1 SWAP11 DUP2 SWAP4 DUP8 DUP4 MSTORE DUP10 DUP4 ADD MSTORE GAS STATICCALL SWAP7 DUP8 ISZERO PUSH2 0x384 JUMPI SWAP1 DUP10 SWAP5 SWAP4 SWAP3 SWAP2 DUP6 SWAP9 PUSH2 0x364 JUMPI JUMPDEST POP DUP5 SWAP6 SWAP7 SWAP8 SWAP9 DUP6 MSTORE PUSH1 0x3 DUP14 MSTORE DUP12 DUP6 KECCAK256 SLOAD AND DUP12 MLOAD SWAP6 DUP7 SWAP5 DUP6 SWAP4 DUP5 MSTORE DUP4 ADD MSTORE GAS STATICCALL SWAP5 DUP6 ISZERO PUSH2 0x359 JUMPI PUSH32 0x3C73766720786D6C6E733D22687474703A2F2F7777772E77332E6F72672F3230 SWAP6 PUSH2 0x30A SWAP6 PUSH1 0x84 SWAP6 PUSH32 0x30302F737667222077696474683D2237323022206865696768743D2237323022 SWAP6 DUP12 SWAP6 DUP6 PUSH6 0x1E17B9BB339F PUSH1 0xD1 SHL SWAP7 SWAP6 PUSH2 0x334 JUMPI JUMPDEST POP POP DUP13 PUSH2 0x2BC DUP8 MLOAD SWAP13 DUP14 SWAP10 DUP11 SWAP10 DUP5 DUP12 ADD SWAP15 DUP16 MSTORE DUP11 ADD MSTORE PUSH32 0x2073686170652D72656E646572696E673D2263726973704564676573223E0000 PUSH1 0x60 DUP11 ADD MSTORE PUSH2 0x2AA PUSH1 0x7E SWAP10 DUP3 DUP6 DUP13 SWAP5 MLOAD SWAP5 DUP6 SWAP4 ADD SWAP2 ADD PUSH2 0x459 JUMP JUMPDEST DUP10 ADD SWAP2 DUP4 MLOAD SWAP4 DUP5 SWAP2 DUP11 DUP6 ADD SWAP2 ADD PUSH2 0x459 JUMP JUMPDEST ADD PUSH2 0x2D0 DUP14 DUP4 MLOAD SWAP4 DUP5 SWAP2 DUP10 DUP6 ADD SWAP2 ADD PUSH2 0x459 JUMP JUMPDEST ADD PUSH2 0x2E4 DUP13 DUP4 MLOAD SWAP4 DUP5 SWAP2 DUP9 DUP6 ADD SWAP2 ADD PUSH2 0x459 JUMP JUMPDEST ADD PUSH2 0x2F7 DUP3 MLOAD DUP1 SWAP4 DUP14 DUP8 DUP6 ADD SWAP2 ADD PUSH2 0x459 JUMP JUMPDEST ADD SWAP2 DUP3 ADD MSTORE SUB PUSH1 0x64 DUP2 ADD DUP6 MSTORE ADD DUP4 PUSH2 0x47C JUMP JUMPDEST PUSH2 0x326 DUP4 MLOAD SWAP5 DUP6 SWAP4 DUP2 DUP6 MSTORE MLOAD SWAP3 DUP4 DUP1 SWAP3 DUP7 ADD MSTORE DUP6 DUP6 ADD SWAP1 PUSH2 0x459 JUMP JUMPDEST PUSH1 0x1F ADD PUSH1 0x1F NOT AND DUP2 ADD SUB ADD SWAP1 RETURN JUMPDEST PUSH2 0x351 SWAP3 SWAP6 POP RETURNDATASIZE DUP1 SWAP2 DUP4 RETURNDATACOPY PUSH2 0x349 DUP2 DUP4 PUSH2 0x47C JUMP JUMPDEST DUP2 ADD SWAP1 PUSH2 0x4B4 JUMP JUMPDEST SWAP3 CODESIZE DUP1 PUSH2 0x258 JUMP JUMPDEST DUP8 MLOAD SWAP1 RETURNDATASIZE SWAP1 DUP3 RETURNDATACOPY RETURNDATASIZE SWAP1 REVERT JUMPDEST DUP6 SWAP7 SWAP8 SWAP9 POP PUSH2 0x37C SWAP1 RETURNDATASIZE DUP1 DUP9 DUP4 RETURNDATACOPY PUSH2 0x349 DUP2 DUP4 PUSH2 0x47C JUMP JUMPDEST SWAP8 SWAP7 SWAP6 PUSH2 0x1D3 JUMP JUMPDEST DUP12 MLOAD RETURNDATASIZE DUP12 DUP3 RETURNDATACOPY RETURNDATASIZE SWAP1 REVERT JUMPDEST PUSH2 0x3A3 SWAP2 SWAP7 POP RETURNDATASIZE DUP1 DUP12 DUP4 RETURNDATACOPY PUSH2 0x349 DUP2 DUP4 PUSH2 0x47C JUMP JUMPDEST SWAP5 CODESIZE PUSH2 0x1A7 JUMP JUMPDEST PUSH2 0x3BF SWAP2 SWAP6 POP RETURNDATASIZE DUP1 DUP12 DUP4 RETURNDATACOPY PUSH2 0x349 DUP2 DUP4 PUSH2 0x47C JUMP JUMPDEST SWAP4 CODESIZE PUSH2 0x181 JUMP JUMPDEST PUSH4 0x4E487B71 PUSH1 0xE0 SHL DUP10 MSTORE PUSH1 0x11 DUP5 MSTORE DUP5 DUP10 REVERT JUMPDEST PUSH2 0x3ED SWAP2 SWAP10 POP RETURNDATASIZE DUP1 DUP11 DUP4 RETURNDATACOPY PUSH2 0x349 DUP2 DUP4 PUSH2 0x47C JUMP JUMPDEST SWAP8 CODESIZE PUSH2 0x14D JUMP JUMPDEST DUP11 MLOAD RETURNDATASIZE DUP11 DUP3 RETURNDATACOPY RETURNDATASIZE SWAP1 REVERT JUMPDEST DUP3 DUP1 REVERT JUMPDEST SWAP1 POP CALLVALUE PUSH2 0x3FE JUMPI PUSH1 0x20 CALLDATASIZE PUSH1 0x3 NOT ADD SLT PUSH2 0x3FE JUMPI CALLDATALOAD DUP3 MSTORE PUSH1 0x3 PUSH1 0x20 SWAP1 DUP2 MSTORE SWAP2 DUP2 SWAP1 KECCAK256 SLOAD SWAP1 MLOAD PUSH1 0x1 PUSH1 0x1 PUSH1 0xA0 SHL SUB SWAP1 SWAP2 AND DUP2 MSTORE RETURN JUMPDEST DUP5 SWAP1 CALLVALUE PUSH2 0x8E JUMPI DUP2 PUSH1 0x3 NOT CALLDATASIZE ADD SLT PUSH2 0x8E JUMPI SWAP1 SLOAD PUSH1 0x1 PUSH1 0x1 PUSH1 0xA0 SHL SUB AND DUP2 MSTORE PUSH1 0x20 SWAP1 RETURN JUMPDEST PUSH1 0x0 JUMPDEST DUP4 DUP2 LT PUSH2 0x46C JUMPI POP POP PUSH1 0x0 SWAP2 ADD MSTORE JUMP JUMPDEST DUP2 DUP2 ADD MLOAD DUP4 DUP3 ADD MSTORE PUSH1 0x20 ADD PUSH2 0x45C JUMP JUMPDEST SWAP1 PUSH1 0x1F DUP1 NOT SWAP2 ADD AND DUP2 ADD SWAP1 DUP2 LT PUSH8 0xFFFFFFFFFFFFFFFF DUP3 GT OR PUSH2 0x49E JUMPI PUSH1 0x40 MSTORE JUMP JUMPDEST PUSH4 0x4E487B71 PUSH1 0xE0 SHL PUSH1 0x0 MSTORE PUSH1 0x41 PUSH1 0x4 MSTORE PUSH1 0x24 PUSH1 0x0 REVERT JUMPDEST PUSH1 0x20 DUP2 DUP4 SUB SLT PUSH2 0x520 JUMPI DUP1 MLOAD PUSH8 0xFFFFFFFFFFFFFFFF SWAP2 DUP3 DUP3 GT PUSH2 0x520 JUMPI ADD SWAP1 DUP3 PUSH1 0x1F DUP4 ADD SLT ISZERO PUSH2 0x520 JUMPI DUP2 MLOAD SWAP1 DUP2 GT PUSH2 0x49E JUMPI PUSH1 0x40 MLOAD SWAP3 PUSH2 0x4FF PUSH1 0x1F DUP4 ADD PUSH1 0x1F NOT AND PUSH1 0x20 ADD DUP6 PUSH2 0x47C JUMP JUMPDEST DUP2 DUP5 MSTORE PUSH1 0x20 DUP3 DUP5 ADD ADD GT PUSH2 0x520 JUMPI PUSH2 0x51D SWAP2 PUSH1 0x20 DUP1 DUP6 ADD SWAP2 ADD PUSH2 0x459 JUMP JUMPDEST SWAP1 JUMP JUMPDEST PUSH1 0x0 DUP1 REVERT JUMPDEST PUSH1 0x40 MLOAD SWAP1 PUSH1 0x20 DUP3 ADD SWAP1 DUP2 MSTORE PUSH1 0x20 DUP3 MSTORE PUSH1 0x40 DUP3 ADD SWAP2 DUP1 DUP4 LT PUSH8 0xFFFFFFFFFFFFFFFF DUP5 GT OR PUSH2 0x49E JUMPI PUSH1 0x1E SWAP3 PUSH1 0x40 MSTORE MLOAD SWAP1 KECCAK256 MOD SWAP1 DUP2 SWAP1 JUMP INVALID LOG2 PUSH5 0x6970667358 0x22 SLT KECCAK256 TSTORE 0xDF 0xDF 0xE6 SWAP4 PUSH20 0xAEB589EEE0694DAEB1B6D4BAF839D5BC672690AC 0xDE PUSH17 0x1198ECFB64736F6C634300081800330000 "
        },
        "methodIdentifiers": {
          "armRenderer()": "1678cce5",
          "bodyRenderer()": "8f57b738",
          "eyeRendererV2()": "c657fbef",
          "generateStyles(uint256)": "c29bdc61",
          "hairRenderers(uint256)": "2db24c13",
          "render(uint256,uint256)": "8c02cf30"
        }
      }
    }
  }
}