{
  "_format": "hh-sol-artifact-1",
  "contractName": "TraveCharacter",
  "sourceName": "contracts/TraveCharacter.sol",
  "abi": [
    {
      "inputs": [
        {
          "internalType": "address",
          "name": "_svgRenderer",
          "type": "address"
        }
      ],
      "stateMutability": "nonpayable",
      "type": "constructor"
    },
    {
      "inputs": [
        {
          "internalType": "uint256",
          "name": "numerator",
          "type": "uint256"
        },
        {
          "internalType": "uint256",
          "name": "denominator",
          "type": "uint256"
        }
      ],
      "name": "ERC2981InvalidDefaultRoyalty",
      "type": "error"
    },
    {
      "inputs": [
        {
          "internalType": "address",
          "name": "receiver",
          "type": "address"
        }
      ],
      "name": "ERC2981InvalidDefaultRoyaltyReceiver",
      "type": "error"
    },
    {
      "inputs": [
        {
          "internalType": "uint256",
          "name": "tokenId",
          "type": "uint256"
        },
        {
          "internalType": "uint256",
          "name": "numerator",
          "type": "uint256"
        },
        {
          "internalType": "uint256",
          "name": "denominator",
          "type": "uint256"
        }
      ],
      "name": "ERC2981InvalidTokenRoyalty",
      "type": "error"
    },
    {
      "inputs": [
        {
          "internalType": "uint256",
          "name": "tokenId",
          "type": "uint256"
        },
        {
          "internalType": "address",
          "name": "receiver",
          "type": "address"
        }
      ],
      "name": "ERC2981InvalidTokenRoyaltyReceiver",
      "type": "error"
    },
    {
      "inputs": [],
      "name": "ERC721EnumerableForbiddenBatchMint",
      "type": "error"
    },
    {
      "inputs": [
        {
          "internalType": "address",
          "name": "sender",
          "type": "address"
        },
        {
          "internalType": "uint256",
          "name": "tokenId",
          "type": "uint256"
        },
        {
          "internalType": "address",
          "name": "owner",
          "type": "address"
        }
      ],
      "name": "ERC721IncorrectOwner",
      "type": "error"
    },
    {
      "inputs": [
        {
          "internalType": "address",
          "name": "operator",
          "type": "address"
        },
        {
          "internalType": "uint256",
          "name": "tokenId",
          "type": "uint256"
        }
      ],
      "name": "ERC721InsufficientApproval",
      "type": "error"
    },
    {
      "inputs": [
        {
          "internalType": "address",
          "name": "approver",
          "type": "address"
        }
      ],
      "name": "ERC721InvalidApprover",
      "type": "error"
    },
    {
      "inputs": [
        {
          "internalType": "address",
          "name": "operator",
          "type": "address"
        }
      ],
      "name": "ERC721InvalidOperator",
      "type": "error"
    },
    {
      "inputs": [
        {
          "internalType": "address",
          "name": "owner",
          "type": "address"
        }
      ],
      "name": "ERC721InvalidOwner",
      "type": "error"
    },
    {
      "inputs": [
        {
          "internalType": "address",
          "name": "receiver",
          "type": "address"
        }
      ],
      "name": "ERC721InvalidReceiver",
      "type": "error"
    },
    {
      "inputs": [
        {
          "internalType": "address",
          "name": "sender",
          "type": "address"
        }
      ],
      "name": "ERC721InvalidSender",
      "type": "error"
    },
    {
      "inputs": [
        {
          "internalType": "uint256",
          "name": "tokenId",
          "type": "uint256"
        }
      ],
      "name": "ERC721NonexistentToken",
      "type": "error"
    },
    {
      "inputs": [
        {
          "internalType": "address",
          "name": "owner",
          "type": "address"
        },
        {
          "internalType": "uint256",
          "name": "index",
          "type": "uint256"
        }
      ],
      "name": "ERC721OutOfBoundsIndex",
      "type": "error"
    },
    {
      "inputs": [
        {
          "internalType": "address",
          "name": "owner",
          "type": "address"
        }
      ],
      "name": "OwnableInvalidOwner",
      "type": "error"
    },
    {
      "inputs": [
        {
          "internalType": "address",
          "name": "account",
          "type": "address"
        }
      ],
      "name": "OwnableUnauthorizedAccount",
      "type": "error"
    },
    {
      "anonymous": false,
      "inputs": [
        {
          "indexed": true,
          "internalType": "address",
          "name": "owner",
          "type": "address"
        },
        {
          "indexed": true,
          "internalType": "address",
          "name": "approved",
          "type": "address"
        },
        {
          "indexed": true,
          "internalType": "uint256",
          "name": "tokenId",
          "type": "uint256"
        }
      ],
      "name": "Approval",
      "type": "event"
    },
    {
      "anonymous": false,
      "inputs": [
        {
          "indexed": true,
          "internalType": "address",
          "name": "owner",
          "type": "address"
        },
        {
          "indexed": true,
          "internalType": "address",
          "name": "operator",
          "type": "address"
        },
        {
          "indexed": false,
          "internalType": "bool",
          "name": "approved",
          "type": "bool"
        }
      ],
      "name": "ApprovalForAll",
      "type": "event"
    },
    {
      "anonymous": false,
      "inputs": [
        {
          "indexed": false,
          "internalType": "uint256",
          "name": "_fromTokenId",
          "type": "uint256"
        },
        {
          "indexed": false,
          "internalType": "uint256",
          "name": "_toTokenId",
          "type": "uint256"
        }
      ],
      "name": "BatchMetadataUpdate",
      "type": "event"
    },
    {
      "anonymous": false,
      "inputs": [
        {
          "indexed": false,
          "internalType": "uint256",
          "name": "_tokenId",
          "type": "uint256"
        }
      ],
      "name": "MetadataUpdate",
      "type": "event"
    },
    {
      "anonymous": false,
      "inputs": [
        {
          "indexed": true,
          "internalType": "address",
          "name": "previousOwner",
          "type": "address"
        },
        {
          "indexed": true,
          "internalType": "address",
          "name": "newOwner",
          "type": "address"
        }
      ],
      "name": "OwnershipTransferred",
      "type": "event"
    },
    {
      "anonymous": false,
      "inputs": [
        {
          "indexed": true,
          "internalType": "address",
          "name": "from",
          "type": "address"
        },
        {
          "indexed": true,
          "internalType": "address",
          "name": "to",
          "type": "address"
        },
        {
          "indexed": true,
          "internalType": "uint256",
          "name": "tokenId",
          "type": "uint256"
        }
      ],
      "name": "Transfer",
      "type": "event"
    },
    {
      "inputs": [
        {
          "internalType": "address",
          "name": "to",
          "type": "address"
        },
        {
          "internalType": "uint256",
          "name": "tokenId",
          "type": "uint256"
        }
      ],
      "name": "approve",
      "outputs": [],
      "stateMutability": "nonpayable",
      "type": "function"
    },
    {
      "inputs": [
        {
          "internalType": "address",
          "name": "owner",
          "type": "address"
        }
      ],
      "name": "balanceOf",
      "outputs": [
        {
          "internalType": "uint256",
          "name": "",
          "type": "uint256"
        }
      ],
      "stateMutability": "view",
      "type": "function"
    },
    {
      "inputs": [],
      "name": "contractURI",
      "outputs": [
        {
          "internalType": "string",
          "name": "",
          "type": "string"
        }
      ],
      "stateMutability": "pure",
      "type": "function"
    },
    {
      "inputs": [
        {
          "internalType": "uint256",
          "name": "tokenId",
          "type": "uint256"
        }
      ],
      "name": "getApproved",
      "outputs": [
        {
          "internalType": "address",
          "name": "",
          "type": "address"
        }
      ],
      "stateMutability": "view",
      "type": "function"
    },
    {
      "inputs": [],
      "name": "getMintPrice",
      "outputs": [
        {
          "internalType": "uint256",
          "name": "",
          "type": "uint256"
        }
      ],
      "stateMutability": "view",
      "type": "function"
    },
    {
      "inputs": [
        {
          "internalType": "uint256",
          "name": "tokenId",
          "type": "uint256"
        }
      ],
      "name": "getStyles",
      "outputs": [
        {
          "internalType": "uint256",
          "name": "",
          "type": "uint256"
        },
        {
          "internalType": "uint256",
          "name": "",
          "type": "uint256"
        },
        {
          "internalType": "uint256",
          "name": "",
          "type": "uint256"
        }
      ],
      "stateMutability": "view",
      "type": "function"
    },
    {
      "inputs": [
        {
          "internalType": "address",
          "name": "owner",
          "type": "address"
        },
        {
          "internalType": "address",
          "name": "operator",
          "type": "address"
        }
      ],
      "name": "isApprovedForAll",
      "outputs": [
        {
          "internalType": "bool",
          "name": "",
          "type": "bool"
        }
      ],
      "stateMutability": "view",
      "type": "function"
    },
    {
      "inputs": [],
      "name": "name",
      "outputs": [
        {
          "internalType": "string",
          "name": "",
          "type": "string"
        }
      ],
      "stateMutability": "view",
      "type": "function"
    },
    {
      "inputs": [],
      "name": "owner",
      "outputs": [
        {
          "internalType": "address",
          "name": "",
          "type": "address"
        }
      ],
      "stateMutability": "view",
      "type": "function"
    },
    {
      "inputs": [
        {
          "internalType": "uint256",
          "name": "tokenId",
          "type": "uint256"
        }
      ],
      "name": "ownerOf",
      "outputs": [
        {
          "internalType": "address",
          "name": "",
          "type": "address"
        }
      ],
      "stateMutability": "view",
      "type": "function"
    },
    {
      "inputs": [],
      "name": "renounceOwnership",
      "outputs": [],
      "stateMutability": "nonpayable",
      "type": "function"
    },
    {
      "inputs": [
        {
          "internalType": "uint256",
          "name": "tokenId",
          "type": "uint256"
        },
        {
          "internalType": "uint256",
          "name": "salePrice",
          "type": "uint256"
        }
      ],
      "name": "royaltyInfo",
      "outputs": [
        {
          "internalType": "address",
          "name": "",
          "type": "address"
        },
        {
          "internalType": "uint256",
          "name": "",
          "type": "uint256"
        }
      ],
      "stateMutability": "view",
      "type": "function"
    },
    {
      "inputs": [
        {
          "internalType": "address",
          "name": "to",
          "type": "address"
        }
      ],
      "name": "safeMint",
      "outputs": [],
      "stateMutability": "payable",
      "type": "function"
    },
    {
      "inputs": [
        {
          "internalType": "address",
          "name": "from",
          "type": "address"
        },
        {
          "internalType": "address",
          "name": "to",
          "type": "address"
        },
        {
          "internalType": "uint256",
          "name": "tokenId",
          "type": "uint256"
        }
      ],
      "name": "safeTransferFrom",
      "outputs": [],
      "stateMutability": "nonpayable",
      "type": "function"
    },
    {
      "inputs": [
        {
          "internalType": "address",
          "name": "from",
          "type": "address"
        },
        {
          "internalType": "address",
          "name": "to",
          "type": "address"
        },
        {
          "internalType": "uint256",
          "name": "tokenId",
          "type": "uint256"
        },
        {
          "internalType": "bytes",
          "name": "data",
          "type": "bytes"
        }
      ],
      "name": "safeTransferFrom",
      "outputs": [],
      "stateMutability": "nonpayable",
      "type": "function"
    },
    {
      "inputs": [
        {
          "internalType": "address",
          "name": "operator",
          "type": "address"
        },
        {
          "internalType": "bool",
          "name": "approved",
          "type": "bool"
        }
      ],
      "name": "setApprovalForAll",
      "outputs": [],
      "stateMutability": "nonpayable",
      "type": "function"
    },
    {
      "inputs": [
        {
          "internalType": "bytes4",
          "name": "interfaceId",
          "type": "bytes4"
        }
      ],
      "name": "supportsInterface",
      "outputs": [
        {
          "internalType": "bool",
          "name": "",
          "type": "bool"
        }
      ],
      "stateMutability": "view",
      "type": "function"
    },
    {
      "inputs": [],
      "name": "symbol",
      "outputs": [
        {
          "internalType": "string",
          "name": "",
          "type": "string"
        }
      ],
      "stateMutability": "view",
      "type": "function"
    },
    {
      "inputs": [
        {
          "internalType": "uint256",
          "name": "index",
          "type": "uint256"
        }
      ],
      "name": "tokenByIndex",
      "outputs": [
        {
          "internalType": "uint256",
          "name": "",
          "type": "uint256"
        }
      ],
      "stateMutability": "view",
      "type": "function"
    },
    {
      "inputs": [
        {
          "internalType": "address",
          "name": "owner",
          "type": "address"
        },
        {
          "internalType": "uint256",
          "name": "index",
          "type": "uint256"
        }
      ],
      "name": "tokenOfOwnerByIndex",
      "outputs": [
        {
          "internalType": "uint256",
          "name": "",
          "type": "uint256"
        }
      ],
      "stateMutability": "view",
      "type": "function"
    },
    {
      "inputs": [
        {
          "internalType": "uint256",
          "name": "tokenId",
          "type": "uint256"
        }
      ],
      "name": "tokenURI",
      "outputs": [
        {
          "internalType": "string",
          "name": "",
          "type": "string"
        }
      ],
      "stateMutability": "view",
      "type": "function"
    },
    {
      "inputs": [],
      "name": "totalSupply",
      "outputs": [
        {
          "internalType": "uint256",
          "name": "",
          "type": "uint256"
        }
      ],
      "stateMutability": "view",
      "type": "function"
    },
    {
      "inputs": [
        {
          "internalType": "address",
          "name": "from",
          "type": "address"
        },
        {
          "internalType": "address",
          "name": "to",
          "type": "address"
        },
        {
          "internalType": "uint256",
          "name": "tokenId",
          "type": "uint256"
        }
      ],
      "name": "transferFrom",
      "outputs": [],
      "stateMutability": "nonpayable",
      "type": "function"
    },
    {
      "inputs": [
        {
          "internalType": "address",
          "name": "newOwner",
          "type": "address"
        }
      ],
      "name": "transferOwnership",
      "outputs": [],
      "stateMutability": "nonpayable",
      "type": "function"
    }
  ],
  "bytecode": "0x6080346200041457601f90620052c438819003838101601f19908116840193926001600160401b039283861185871017620003fe57808592604097885283396020948591810103126200041457516001600160a01b0380821692909183900362000414576200006d62000419565b90601a82527f506978747572652054726176656c65722043686172616374657200000000000086830152620000a162000419565b9760098952682a2920ab22a1a420a960b91b878a0152825198868a11620003fe576000998a54946001958681811c91168015620003f3575b8b821014620003df5790818584931162000389575b508a908d8684116001146200032757926200031b575b5050600019600383901b1c191690851b178a555b805192878411620003075784548581811c91168015620002fc575b8a821014620002e857908184869594931162000291575b50899284116001146200023057508a9262000224575b5050600019600383901b1c191690821b1790555b33156200020c57600d80546001600160a01b03198082163390811790935592167f8be0079c531659141344cd1fd0a4f28419497f9722a3daafe3b4186f6b6457e08880a3600f541617600f558251908382019082821090821117620001f857836101f4949550523381520152607d60a21b3317600b5551614e8a90816200043a8239f35b634e487b7160e01b85526041600452602485fd5b8451631e4fbdf760e01b815260048101879052602490fd5b01519050388062000160565b858c52898c20869590939291168c5b8b8282106200027a575050841162000260575b505050811b01905562000174565b015160001960f88460031b161c1916905538808062000252565b83850151865588979095019493840193016200023f565b9091929350858c52898c208480870160051c8201928c8810620002de575b9187968992969594930160051c01915b828110620002cf5750506200014a565b8e8155879650889101620002bf565b92508192620002af565b634e487b7160e01b8c52602260045260248cfd5b90607f169062000133565b634e487b7160e01b8b52604160045260248bfd5b01519050388062000104565b9190878995168380528d80852094905b82821062000371575050841162000357575b505050811b018a5562000118565b015160001960f88460031b161c1916905538808062000349565b8385015186558b979095019493840193018e62000337565b9091508c80528a8d208580850160051c8201928d8610620003d5575b859493910160051c9091019088908f5b838210620003c657505050620000ee565b81558594508991018f620003b5565b92508192620003a5565b634e487b7160e01b8d52602260045260248dfd5b90607f1690620000d9565b634e487b7160e01b600052604160045260246000fd5b600080fd5b60408051919082016001600160401b03811183821017620003fe5760405256fe61022080604052600436101561001457600080fd5b60003560e01c90816301ffc9a7146132315750806306fdde0314613186578063081812fc14613148578063095ea7b31461306157806318160ddd1461304357806323b872dd1461302c5780632a55205a14612f755780632f745c5914612ef157806340d097c31461295557806342842e0e146129275780634f6ccce7146128d15780636352211e146128a1578063652f43ac1461287057806370a082311461284d578063715018a6146127f05780638da5cb5b146127c757806395d89b41146126e4578063a22cb4651461263f578063a7f93ebd1461261c578063b88d4fde14612587578063c87b56dd146104a8578063e8a3d4851461020c578063e985e9c5146101b65763f2fde38b1461012857600080fd5b346101b15760203660031901126101b157610141613332565b61014961405c565b6001600160a01b0390811690811561019857600d54826001600160601b0360a01b821617600d55167f8be0079c531659141344cd1fd0a4f28419497f9722a3daafe3b4186f6b6457e0600080a3005b604051631e4fbdf760e01b815260006004820152602490fd5b600080fd5b346101b15760403660031901126101b1576101cf613332565b6101d7613348565b9060018060a01b03809116600052600560205260406000209116600052602052602060ff604060002054166040519015158152f35b346101b15760003660031901126101b1576040516101c081018181106001600160401b038211176104925761047a603b61048e9361046a9360405261018e8152602081017f7b226e616d65223a22506978747572652054726176656c65722043686172616381527f746572222c226465736372697074696f6e223a22456d6261726b206f6e20657060408301527f696320616476656e74757265732077697468205069787475726520547261766560608301527f6c657220756e69717565206f6e2d636861696e204e465473215c6e576562736960808301527f74653a2068747470733a2f2f7069787475726574726176656c65722e636f6d5c60a08301527f6e446973636f72643a2068747470733a2f2f646973636f72642e67672f70697860c08301527f747572652d74726176656c6572222c22696d616765223a2268747470733a2f2f60e08301527f7777772e7069787475726574726176656c65722e636f6d2f636f6c6c656374696101008301527f6f6e2f696d6167652e77656270222c2265787465726e616c5f6c696e6b223a226101208301527f68747470733a2f2f7069787475726574726176656c65722e636f6d222c2262616101408301527f6e6e65725f696d6167655f75726c223a2268747470733a2f2f7777772e7069786101608301527f7475726574726176656c65722e636f6d2f636f6c6c656374696f6e2f62616e6e6101808301526d65722d696d6167652e706e67227d60901b6101a08301526040519485927f646174613a6170706c69636174696f6e2f6a736f6e3b757466382c00000000006020850152518092858501906132ea565b810103601b810184520182613436565b60405191829160208352602083019061330d565b0390f35b634e487b7160e01b600052604160045260246000fd5b346101b15760203660031901126101b1576104c4600435613785565b9150506104d2600435614202565b61016052600f546040516308c02cf360e41b815260048035908201526024810192909252600090829060449082906001600160a01b03165afa801561257b576000906124fe575b6105239150614346565b61014052610532600435613785565b5060405161028081018181106001600160401b03821117610492578060405261055a816133af565b600881526722bc383637b932b960c11b6102a0830152815260405161057e816133af565b600a81526920b23b32b73a3ab932b960b11b602082015260208201526040516105a6816133af565b60088152672a3930bb32b632b960c11b602082015260408201526040516105cc816133af565b6005815264139bdb585960da1b602082015260608201526040516105ef816133af565b600b81526a2a3930b4b6313630bd32b960a91b60208201526080820152604051610618816133af565b600c81526b21b0b93a37b3b930b83432b960a11b602082015260a0820152604051610642816133af565b600a8152692830ba343334b73232b960b11b602082015260c082015260405161066a816133af565b60088152672bb0b73232b932b960c11b602082015260e0820152604051610690816133af565b60078152662b37bcb0b3b2b960c91b60208201526101008201526040516106b6816133af565b600681526529b2b2b5b2b960d11b60208201526101208201526040516106db816133af565b600781526650696c6772696d60c81b6020820152610140820152604051610701816133af565b60088152672bb0bcb330b932b960c11b6020820152610160820152604051610728816133af565b60068152652937b0b6b2b960d11b602082015261018082015260405161074d816133af565b6008815267159859d8589bdb9960c21b60208201526101a0820152604051610774816133af565b600581526414d8dbdd5d60da1b60208201526101c0820152604051610798816133af565b60078152662834b7b732b2b960c91b60208201526101e08201526040516107be816133af565b60088152672b32b73a3ab932b960c11b60208201526102008201526040516107e5816133af565b600a81526915d85b99195c9b1d5cdd60b21b602082015261022082015260405161080e816133af565b60078152664f64797373657960c81b6020820152610240820152604051610834816133af565b60068152652bb0b635b2b960d11b602082015261026082015260146040516020810190600435825264434c41535360d81b6040820152602581526108778161341b565b5190200660148110156124e85760051b015161018052610898600435613ac4565b906101c052916108ad6004356101c051613dc9565b6108b96101c0516144ce565b61020052611254610df86108cf61018051614a46565b936108d942614202565b610120526040516108e981613393565b6040516108f5816133af565b600a815269417a75726520466c6f7760b01b6020820152815260405161091a816133af565b6008815267496379205065616b60c01b60208201526020820152604051610940816133af565b600b81526a4d6f6c74656e20436f726560a81b60208201526040820152604051610969816133af565b600e81526d416d65746879737420576176657360901b60208201526060820152604051610995816133af565b600d81526c506561636820426c6f73736f6d60981b602082015260808201526040516109c0816133af565b600c81526b53756e736574204c6f636b7360a01b602082015260a08201526040516109ea816133af565b600d81526c56616e696c6c6120437265616d60981b602082015260c0820152604051610a15816133af565b600b81526a14da18591bddc815995a5b60aa1b602082015260e0820152604051610a3e816133af565b600c81526b14da5b1d995c88119c9bdcdd60a21b6020820152610100820152604051610a69816133af565b600c81526b42726f6e7a65204375726c7360a01b6020820152610120820152604051610a94816133af565b600d81526c4772617065205472657373657360981b6020820152610140820152604051610ac0816133af565b600a81526920baba3ab6b710213ab760b11b6020820152610160820152604051610ae9816133af565b600d81526c476f6c64656e2042726169647360981b6020820152610180820152604051610b15816133af565b600f81526e43686573746e75742054616e676c6560881b60208201526101a0820152604051610b43816133af565b60098152685275627920466c6f7760b81b60208201526101c0820152604051610b6b816133af565b601081526f4d69646e6967687420537472616e647360801b60208201526101e0820152604051610b9a816133af565b600a8152694c696c6163204d616e6560b01b6020820152610200820152604051610bc3816133af565b6011815270456d6572616c642054656e7461636c657360781b6020820152610220820152604051610bf3816133af565b60098152684171756120476c6f7760b81b6020820152610240820152604051610c1b816133af565b600f81526e13d89cda591a585b8814da1c9bdd59608a1b6020820152610260820152604051610c49816133af565b600f81526e53617070686972652053747265616d60881b6020820152610280820152604051610c77816133af565b600d81526c466f726573742046726f6e647360981b60208201526102a0820152604051610ca3816133af565b600b81526a13dc985b99d94816995cdd60aa1b60208201526102c0820152604051610ccd816133af565b600b81526a46726f737465642047656d60a81b60208201526102e0820152604051610cf7816133af565b600e81526d4d69646e69676874204c6f636b7360901b6020820152610300820152604051610d24816133af565b600a815269105c5d584815da1a5c9b60b21b6020820152610320820152604051610d4d816133af565b600c81526b4461726b204361736361646560a01b6020820152610340820152604051610d78816133af565b600f81526e4d69646e696768742053747265616b60881b6020820152610360820152604051610da6816133af565b600e81526d4c6176656e64657220547265737360901b6020820152610380820152604051610dd3816133af565b600d81526c416d626572204361736361646560981b60208201526103a0820152614e43565b5193604051610e0681613393565b604051610e12816133af565b600381526214995960ea1b60208201528152604051610e30816133af565b60068152654f72616e676560d01b60208201526020820152604051610e54816133af565b600681526559656c6c6f7760d01b60208201526040820152604051610e78816133af565b600581526423b932b2b760d91b60208201526060820152604051610e9b816133af565b600481526321bcb0b760e11b60208201526080820152604051610ebd816133af565b6004815263426c756560e01b602082015260a0820152604051610edf816133af565b6006815265507572706c6560d01b602082015260c0820152604051610f03816133af565b6006815265159a5bdb195d60d21b602082015260e0820152604051610f27816133af565b6005815264213937bbb760d91b6020820152610100820152604051610f4b816133af565b6005815264426c61636b60d81b6020820152610120820152604051610f6f816133af565b60048152634772617960e01b6020820152610140820152604051610f92816133af565b60088152674d6f6f6e6265616d60c01b6020820152610160820152604051610fb9816133af565b600881526710dbdb999d5cd95960c21b6020820152610180820152604051610fe0816133af565b60058152642ab73232b960d91b60208201526101a0820152604051611004816133af565b60058152641219585c9d60da1b60208201526101c0820152604051611028816133af565b600681526510dd5c9cd95960d21b60208201526101e082015260405161104d816133af565b600581526408cd8c2e6d60db1b6020820152610200820152604051611071816133af565b6005815264576869746560d81b6020820152610220820152604051611095816133af565b6006815265496e73616e6560d01b60208201526102408201526040516110ba816133af565b600681526550697261746560d01b60208201526102608201526040516110df816133af565b6008815267125b999958dd195960c21b6020820152610280820152604051611106816133af565b60068152654e6172726f7760d01b60208201526102a082015260405161112b816133af565b6007815266426c617a696e6760c81b60208201526102c0820152604051611151816133af565b600781526621b934b6b9b7b760c91b60208201526102e0820152604051611177816133af565b6008815267105b595d1a1e5cdd60c21b602082015261030082015260405161119e816133af565b6005815264417a75726560d81b60208201526103208201526040516111c2816133af565b600781526610dc9e5cdd185b60ca1b60208201526103408201526040516111e8816133af565b600781526610995b5d5cd95960ca1b602082015261036082015260405161120e816133af565b6006815265223930b3b7b760d11b6020820152610380820152604051611233816133af565b6009815268111a5999995c995b9d60ba1b60208201526103a0820152614e43565b51906040519061126382613393565b60405161126f816133af565b600581526449766f727960d81b6020820152825260405161128f816133af565b60098152682837b931b2b630b4b760b91b602082015260208301526040516112b6816133af565b600a81526950616c652049766f727960b01b602082015260408301526040516112de816133af565b600a8152695761726d2049766f727960b01b60208201526060830152604051611306816133af565b600481526314d85b9960e21b60208201526080830152604051611328816133af565b600a815269526f736520426569676560b01b602082015260a0830152604051611350816133af565b60098152684c696d6573746f6e6560b81b602082015260c0830152604051611377816133af565b6005815264426569676560d81b602082015260e083015260405161139a816133af565b60068152655369656e6e6160d01b60208201526101008301526040516113bf816133af565b6005815264486f6e657960d81b60208201526101208301526040516113e3816133af565b600481526310985b9960e21b6020820152610140830152604051611406816133af565b6006815265105b1b5bdb9960d21b602082015261016083015260405161142b816133af565b600881526710da195cdd1b9d5d60c21b6020820152610180830152604051611452816133af565b600681526542726f6e7a6560d01b60208201526101a0830152604051611477816133af565b60058152642ab6b132b960d91b60208201526101c083015260405161149b816133af565b600681526523b7b63232b760d11b60208201526101e08301526040516114c0816133af565b6008815267457370726573736f60c01b60208201526102008301526040516114e7816133af565b600981526843686f636f6c61746560b81b602082015261022083015261150b613a6f565b610240830152611519613943565b610260830152611527613987565b610280830152604051611539816133af565b60048152634f72676560e01b60208201526102a0830152611558613a0c565b6102c08301526115666139e8565b6102e0830152611574613a92565b6103008301526115826139a6565b610320830152611590613965565b61034083015261159e613a2b565b6103608301526115ac6139c7565b6103808301526115ba613a4c565b6103a0830152806000198101116124d257600019016115d891614e43565b5193610200515160ff166115eb90614202565b94610200516020015160ff1661160090614202565b95610200516040015160ff1661161590614202565b90610200516060015160ff1661162a90614202565b90610200516080015160ff1661163f90614202565b93875160ff1661164e90614202565b95602089015160ff1661166090614202565b9760408a015160ff1661167290614202565b6101e05260608a015160ff1661168790614202565b996080015160ff1661169890614202565b9a610200515160ff166116aa90614202565b608052610200516020015160ff166116c190614202565b60a052610200516040015160ff166116d890614202565b60e052610200516060015160ff166116ef90614202565b6101a052610200516080015160ff1661170790614202565b6101005260405160c05260c0516020017f7b22646973706c61795f74797065223a2264617465222c2274726169745f7479905260c0516040017f7065223a224269727468646179222c2276616c7565223a0000000000000000009052610120515160c051605701816101205160200191611780926132ea565b8060c05101605701611f4b60f21b90528060c051016059017f7b2274726169745f74797065223a224c6576656c222c2276616c7565223a317d90528060c05101607901600b60fa1b90528060c05101607a017f7b2274726169745f74797065223a225870222c2276616c7565223a307d2c000090528060c051016098017f7b2274726169745f74797065223a22436c617373222c2276616c7565223a220090526101805151908060c0510160b701826101805160200191611840926132ea565b60c051010162089f4b60ea1b60b782015260ba81017f7b2274726169745f74797065223a2252616365222c2276616c7565223a22000090526101c051519060d88101826101c05160200191611894926132ea565b62089f4b60ea1b60d892909101918201527f7b2274726169745f74797065223a22526163652054696572222c2276616c756560db82015262111d1160e91b60fb820152835190936118ee90829060fe8701906020016132ea565b62089f4b60ea1b81850160fe8101919091527f7b2274726169745f74797065223a2248616972222c2276616c7565223a22000061010182015282519261193f91849161011f909101906020016132ea565b62089f4b60ea1b818501830161011f8101919091527f7b2274726169745f74797065223a22457965222c2276616c7565223a22000000610122820152835161013f95909490916119969186918801906020016132ea565b0101019062089f4b60ea1b9082015261014281017f7b2274726169745f74797065223a22426f6479222c2276616c7565223a220000905281519182610160830191602001916119e4926132ea565b61227d60f01b8282016101608101919091527f7b2274726169745f74797065223a22486174222c2276616c7565223a224e6f6e6101628201526319489f4b60e21b61018282018190527f7b2274726169745f74797065223a224d6f757468222c2276616c7565223a224e610186830152651bdb99489f4b60d21b6101a683018190527f7b2274726169745f74797065223a22546f70222c2276616c7565223a224e6f6e6101ac8401526101cc8301919091527f7b2274726169745f74797065223a2250616e7473222c2276616c7565223a224e6101d08301526101f08201527f7b2274726169745f74797065223a22576561706f6e222c2276616c7565223a226101f682015266139bdb99489f4b60ca1b6102168201527f7b2274726169745f74797065223a224261636b222c2276616c7565223a224e6f61021d820152641b99489f4b60da1b61023d8201527f7b2274726169745f74797065223a22426173652054656e6163697479222c22766102428201526530b63ab2911d60d11b610262820152835193611b80918591610268909101906020016132ea565b0160570101606001976101b18901611f4b60f21b90526101b389017f7b2274726169745f74797065223a224261736520526567656e6572617465222c905267113b30b63ab2911d60c11b98896101d3820152815191826101db83019160200191611be9926132ea565b01602101916101ba8301611f4b60f21b90526101bc83017f7b2274726169745f74797065223a2242617365204167696c697479222c227661905264363ab2911d60d91b92836101dc820152815191826101e183019160200191611c4b926132ea565b016026016101bb8101611f4b60f21b90526101bd81017f7b2274726169745f74797065223a224261736520566974616c697479222c227690526530b63ab2911d60d11b6101dd820152815191826101e383019160200191611cab926132ea565b01602101906101c28201611f4b60f21b90526101c482017f7b2274726169745f74797065223a224261736520456d706f776572222c22766190526101e4820152815191826101e983019160200191611d02926132ea565b016020016101c98101611f4b60f21b90526101cb81017f7b2274726169745f74797065223a2247726f7774682054656e6163697479222c9052856101eb820152815191826101f383019160200191611d59926132ea565b016021016101d28101611f4b60f21b90526101d481017f7b2274726169745f74797065223a2247726f77746820526567656e65726174659052691116113b30b63ab2911d60b11b6101f4820152815191826101fe83019160200191611dbd926132ea565b01610108019260f68401611f4b60f21b905260f884017f7b2274726169745f74797065223a2247726f777468204167696c697479222c229052663b30b63ab2911d60c91b93846101188201526101e051519061011f8101826101e05160200191611e26926132ea565b01602a019060f58201611f4b60f21b905260f782017f7b2274726169745f74797065223a2247726f77746820566974616c697479222c90526101178201528151918261011f83019160200191611e7b926132ea565b0160270160f88101611f4b60f21b905260fa81017f7b2274726169745f74797065223a2247726f77746820456d706f776572222c2290528261011a8201528151918261012183019160200191611ed0926132ea565b0160280160f98101611f4b60f21b905260fb81017f7b2274726169745f74797065223a22546f74616c2054656e6163697479222c2290528161011b820152608051519061012281018260805160200191611f29926132ea565b0160270160fb8101611f4b60f21b905260fd81017f7b2274726169745f74797065223a22546f74616c20526567656e65726174652290526816113b30b63ab2911d60b91b61011d82015260a051519061012681018260a05160200191611f8e926132ea565b01602a0160fc8101611f4b60f21b905260fe81017f7b2274726169745f74797065223a22546f74616c204167696c697479222c227690526530b63ab2911d60d11b61011e82015260e051519061012481018260e05160200191611ff0926132ea565b01602c019060f88201611f4b60f21b905260fa82017f7b2274726169745f74797065223a22546f74616c20566974616c697479222c22905261011a8201526101a05151906101218101826101a0516020019161204b926132ea565b0160290160f88101611f4b60f21b905260fa81017f7b2274726169745f74797065223a22546f74616c20456d706f776572222c227690526530b63ab2911d60d11b61011a82015261010051519061012081018261010051602001916120af926132ea565b01602a0160f68101611f4b60f21b905260c051900360290160af810160c0515260cf0160c051906120df91613436565b604051727b226e616d65223a2254726176656c6572202360681b60208201528061016051516033820181610160516020019161211a926132ea565b61088b60f21b60339183019182018190526e113232b9b1b934b83a34b7b7111d1160891b60358301527f456d6261726b206f6e206570696320616476656e74757265732077697468205060448301527f6978747572652054726176656c6572277320756e69717565206f6e2d6368616960648301527f6e204e465473215c6e5c6e45616368204552432d3732312054726176656c657260848301527f2069732061206c6976696e67206469676974616c206d6173746572706965636560a48301527f2c20626f726e206f6e2074686520626c6f636b636861696e2e2057697468207360c48301527f74756e6e696e6720616c676f726974686d6963616c6c792067656e657261746560e48301527f6420617274776f726b2c206576657279206368617261637465722073686f77636101048301527f6173657320696e747269636174652064657461696c7320616e642076696272616101248301527f6e742064657369676e732e5c6e417320796f75206a6f75726e6579207468726f6101448301527f756768206f757220657870616e7369766520776f726c642c20776174636820796101648301527f6f75722054726176656c65722065766f6c76652c20756e6c6f636b696e67206e6101848301527f6577206162696c697469657320616e6420636f736d6574696320656e68616e636101a48301527f656d656e74732e5c6e596f7572204e46542069736e2774206a757374206172746101c48301527f2d2d6974277320796f7572206b657920746f20656e646c6573732064696769746101e48301527f616c207265616c6d73215c6e5c6e506c6179206e6f772061742068747470733a610204830152742f2f7069787475726574726176656c65722e636f6d60581b61022483015261023982018190527f22696d616765223a22646174613a696d6167652f7376672b786d6c3b6261736561023b830152620d8d0b60ea1b61025b83015261014051805161025e9390916123ff908390868401906020016132ea565b01918201526d2261747472696275746573223a5b60901b61026082015260c051805161026e929091612439908390858401906020016132ea565b01908101615d7d60f01b905203610250810182526102700161245b9082613436565b61246490614346565b6040518091602082017f646174613a6170706c69636174696f6e2f6a736f6e3b6261736536342c000000905280519081603d840191602001916124a6926132ea565b810103601d81018252603d016124bc9082613436565b6040518091602082526020820161048e9161330d565b634e487b7160e01b600052601160045260246000fd5b634e487b7160e01b600052603260045260246000fd5b503d806000833e61250f8183613436565b8101906020818303126101b1578051906001600160401b0382116101b157019080601f830112156101b15781519161254683613457565b916125546040519384613436565b838352602084830101116101b1576105239261257691602080850191016132ea565b610519565b6040513d6000823e3d90fd5b346101b15760803660031901126101b1576125a0613332565b6125a8613348565b90604435606435926001600160401b0384116101b157366023850112156101b1578360040135926125d884613457565b936125e66040519586613436565b80855236602482880101116101b157602081600092602461261a990183890137860101526126158383836134ac565b614088565b005b346101b15760003660031901126101b1576020612637613861565b604051908152f35b346101b15760403660031901126101b157612658613332565b602435908115158092036101b1576001600160a01b03169081156126cb57336000526005602052604060002082600052602052604060002060ff1981541660ff83161790556040519081527f17307eab39ab6107e8899845ad3d59bd9653f200f220920489ca2b5937696c3160203392a3005b604051630b61174360e31b815260048101839052602490fd5b346101b15760003660031901126101b15760405160006001826001549261270a84613472565b92838352602094856001821691826000146127a757505060011461274a575b5061273692500383613436565b61048e60405192828493845283019061330d565b84915060016000527fb10e2d527612073b26eecdfd717e6a320cf44b4afac2b0732d9fcbe2b7fa0cf6906000915b85831061278f575050612736935082010185612729565b80548389018501528794508693909201918101612778565b60ff19168582015261273695151560051b85010192508791506127299050565b346101b15760003660031901126101b157600d546040516001600160a01b039091168152602090f35b346101b15760003660031901126101b15761280961405c565b600d80546001600160a01b031981169091556000906001600160a01b03167f8be0079c531659141344cd1fd0a4f28419497f9722a3daafe3b4186f6b6457e08280a3005b346101b15760203660031901126101b157602061263761286b613332565b613828565b346101b15760203660031901126101b157606061288e600435613785565b9060405192835260208301526040820152f35b346101b15760203660031901126101b15760206128bf600435613908565b6040516001600160a01b039091168152f35b346101b15760203660031901126101b157600435600854811015612908576128fa60209161374e565b90546040519160031b1c8152f35b6044906040519063295f44f760e21b8252600060048301526024820152fd5b346101b15761261a6129383661335e565b906040519261294684613400565b600084526126158383836134ac565b60203660031901126101b157612969613332565b612971613861565b803410612eb557600e549160001983146124d25760018301600e556040519061299982613400565b600082526001600160a01b039181831615612e9c5784600052600260205282604060002054168015908115612e65575b848416600052600360205260406000206001815401905586600052600260205260406000208585166001600160601b0360a01b82541617905586858516827fddf252ad1be2c89b69c2b068fc378daa952ba7f163c4a11628f55a4df523b3ef600080a48115612ddc5760085487600052600960205280604060002055600160401b8110156104925787612a65826001612a7e940160085561374e565b90919082549060031b91821b91600019901b1916179055565b84841603612d95575b15612d7c57813b612c4b575b50505060405191612aa383613400565b6000835280600052600a602052604060002083516001600160401b03811161049257612acf8254613472565b601f8111612c03575b506020601f8211600114612b7657908060209493927ff8e1a15aba9398e019f0b49df1a4fde98ee17ae345cb5f6b5e2c27f5033e8ce79697600092612b6b575b50508160011b916000199060031b1c19161790555b604051908152a1803411612b3d57005b803403903482116124d2576000808093819382903414612b62575b3390f11561257b57005b506108fc612b58565b015190508780612b18565b601f198216958360005260206000209660005b818110612beb575096600192849260209796957ff8e1a15aba9398e019f0b49df1a4fde98ee17ae345cb5f6b5e2c27f5033e8ce7999a10612bd2575b505050811b019055612b2d565b015160001960f88460031b161c19169055878080612bc5565b83830151895560019098019760209384019301612b89565b826000526020600020601f830160051c81019160208410612c41575b601f0160051c01905b818110612c355750612ad8565b60008155600101612c28565b9091508190612c1f565b60409492949391935160208180612c8b630a85bd0160e11b958683523360048401526000602484015288604484015260806064840152608483019061330d565b038160008a8a165af160009181612d37575b50612cff5785853d15612cf7573d91612cb583613457565b92612cc36040519485613436565b83523d6000602085013e5b82519283612cf057604051633250574960e11b81528284166004820152602490fd5b8390602001fd5b606091612cce565b92949193926001600160e01b03191603612d1d575050828080612a93565b604051633250574960e11b81529116600482015260249150fd5b9091506020813d602011612d74575b81612d5360209383613436565b810103126101b157516001600160e01b0319811681036101b1579087612c9d565b3d9150612d46565b6040516339e3563760e11b815260006004820152602490fd5b612d9e83613828565b60001981019081116124d257848416600052600660205260406000208160005260205286604060002055866000526007602052604060002055612a87565b8385168114612a7e57612dee81613828565b876000526007602052604060002054818103612e32575b50876000526000604081205581600052600660205260406000209060005260205260006040812055612a7e565b60008381526006602090815260408083208584528252808320548484528184208190558352600790915290205588612e05565b600087815260046020526040902080546001600160a01b0319169055806000526003602052604060002060001981540190556129c9565b604051633250574960e11b815260006004820152602490fd5b60405162461bcd60e51b8152602060048201526014602482015273125b9cdd59999a58da595b9d081c185e5b595b9d60621b6044820152606490fd5b346101b15760403660031901126101b157612f0a613332565b60243590612f1781613828565b821015612f4a5760018060a01b031660005260066020526040600020906000526020526020604060002054604051908152f35b60405163295f44f760e21b81526001600160a01b039190911660048201526024810191909152604490fd5b346101b15760403660031901126101b157602435600435600052600c60205260406000209060405191612fa7836133af565b546001600160a01b0380821680855260a09290921c602085015292901561300a575b6001600160601b03602082015116918281029281840414901517156124d2575160408051939091166001600160a01b03168352612710909104602083015290f35b50604051613017816133af565b600b54838116825260a01c6020820152612fc9565b346101b15761261a61303d3661335e565b916134ac565b346101b15760003660031901126101b1576020600854604051908152f35b346101b15760403660031901126101b15761307a613332565b60243561308681613908565b33151580613135575b80613108575b6130f0576001600160a01b039283169282918491167f8c5be1e5ebec7d5bd14f71427d1e84f3dd0314c0f7b2291e5b200ac8c7c3b925600080a4600090815260046020526040902080546001600160a01b0319169091179055005b60405163a9fbf51f60e01b8152336004820152602490fd5b5060018060a01b038116600052600560205260406000203360005260205260ff6040600020541615613095565b506001600160a01b03811633141561308f565b346101b15760203660031901126101b15760043561316581613908565b506000526004602052602060018060a01b0360406000205416604051908152f35b346101b15760003660031901126101b1576040516000805490826131a983613472565b91828252602093600190856001821691826000146127a75750506001146131d7575061273692500383613436565b6000808052859250907f290decd9548b62a8d60345a988386fc84ba6bc95484008f6362f93160ef3e5635b858310613219575050612736935082010185612729565b80548389018501528794508693909201918101613202565b346101b15760203660031901126101b1576004359063ffffffff60e01b82168092036101b15760209163152a902d60e11b8114908115613273575b5015158152f35b632483248360e11b81149150811561328d575b508361326c565b63780e9d6360e01b8114915081156132a7575b5083613286565b6380ac58cd60e01b8114915081156132d9575b81156132c8575b50836132a0565b6301ffc9a760e01b149050836132c1565b635b5e139f60e01b811491506132ba565b60005b8381106132fd5750506000910152565b81810151838201526020016132ed565b90602091613326815180928185528580860191016132ea565b601f01601f1916010190565b600435906001600160a01b03821682036101b157565b602435906001600160a01b03821682036101b157565b60609060031901126101b1576001600160a01b039060043582811681036101b1579160243590811681036101b1579060443590565b6103c081019081106001600160401b0382111761049257604052565b604081019081106001600160401b0382111761049257604052565b60c081019081106001600160401b0382111761049257604052565b60a081019081106001600160401b0382111761049257604052565b602081019081106001600160401b0382111761049257604052565b606081019081106001600160401b0382111761049257604052565b90601f801991011681019081106001600160401b0382111761049257604052565b6001600160401b03811161049257601f01601f191660200190565b90600182811c921680156134a2575b602083101461348c57565b634e487b7160e01b600052602260045260246000fd5b91607f1691613481565b6001600160a01b0382811693918415612e9c576000948386526020956002875260409684888320541696331515806136c0575b508715801561368d575b84845260038352898420805460010190558784526002835289842080546001600160a01b0319168617905587858a7fddf252ad1be2c89b69c2b068fc378daa952ba7f163c4a11628f55a4df523b3ef8780a4156136115760085487845260098352808a852055600160401b8110156135fd5787612a6582600161356f940160085561374e565b8388036135ab575b50505050169283830361358a5750505050565b6064945051926364283d7b60e01b8452600484015260248301526044820152fd5b6135b490613828565b6000198101939084116135e95782916007918a9452600681528383208584528152878484205587835252205538808080613577565b634e487b7160e01b83526011600452602483fd5b634e487b7160e01b84526041600452602484fd5b87841461356f5761362188613828565b8784526007835289842054818103613656575b50878452838a812055888452600683528984209084528252828981205561356f565b898552600684528a852082865284528a8520548a8652600685528b86208287528552808c8720558552600784528a85205538613634565b600088815260046020526040902080546001600160a01b03191690558884526003835289842080546000190190556134e9565b8061370d575b156136d157386134df565b8887896136ee576024915190637e27328960e01b82526004820152fd5b905163177e802f60e01b81523360048201526024810191909152604490fd5b503388148015613732575b806136c657508683526004825233868a85205416146136c6565b5087835260058252888320338452825260ff8984205416613718565b6008548110156124e85760086000527ff3f7a9fe364faab93b216da50a3214154f22a0a2b415b23a84c8169e8b636ee30190600090565b600f546040805163c29bdc6160e01b81526004810184905293909290918390859060249082906001600160a01b03165afa93841561381d576000936000956137e3575b5050806137d76137dd92613ac4565b50613dc9565b91929190565b809295508194503d8311613816575b6137fc8183613436565b810103126101b1576137dd602083519301519390386137c8565b503d6137f2565b83513d6000823e3d90fd5b6001600160a01b0316801561384857600052600360205260406000205490565b6040516322718ad960e21b815260006004820152602490fd5b600e546103e88110156138ce5760c881101561388357506608e1bc9bf0400090565b6101908110156138995750660aa87bee53800090565b6102588110156138af5750660e35fa931a000090565b61032011156138c357661550f7dca7000090565b661c6bf52634000090565b60001981019081116124d2576611c37937e08000908181029181830414901517156124d257662386f26fc100009081018091116124d25790565b6000818152600260205260409020546001600160a01b031690811561392b575090565b60249060405190637e27328960e01b82526004820152fd5b60405190613950826133af565b600682526523b7b13634b760d11b6020830152565b60405190613972826133af565b600682526512dbd89bdb1960d21b6020830152565b60405190613994826133af565b60038252624f726360e81b6020830152565b604051906139b3826133af565b6005825264476e6f6d6560d81b6020830152565b604051906139d4826133af565b600582526429b0ba3cb960d91b6020830152565b604051906139f5826133af565b600882526726b4b737ba30bab960c11b6020830152565b60405190613a19826133af565b60038252624f6e6960e81b6020830152565b60405190613a38826133af565b6005825264111c9e585960da1b6020830152565b60405190613a59826133af565b6007825266223930b3b7b7b760c91b6020830152565b60405190613a7c826133af565b600782526656616d7069726560c81b6020830152565b60405190613a9f826133af565b60058252642232b6b7b760d91b6020830152565b9060068110156124e85760051b0190565b9060409182519060808201918083106001600160401b0384111761049257828552613aee836133af565b60059283815264243ab6b0b760d91b60a08301528152845192613b10846133af565b80845260209364223bb0b93360d91b8582015284830152613b2f613943565b868301528551613b3e816133af565b81815264466169727960d81b8582015260608301528551613b5e816133ca565b8651613b69816133af565b600881526748616c666c696e6760c01b868201528152613b87613965565b858201528651613b96816133af565b600381526222b63360e91b8682015287820152613bb1613987565b60608201528651613bc1816133af565b60048152634f67726560e01b8682015260808201528651613be1816133af565b82815264506978696560d81b8682015260a08201528651613c01816133ca565b613c096139a6565b8152613c136139c7565b868201528751613c22816133af565b60068152650a6cae4c2e0d60d31b8782015288820152613c406139e8565b6060820152613c4d613a0c565b6080820152613c5a613a2b565b60a0820152875194613c6b866133ca565b613c73613a4c565b8652613c7d613a6f565b878701528851613c8c816133af565b84815264263cb1b0b760d91b88820152898701528851613cab816133af565b600a815269486f6d756e63756c757360b01b888201526060870152613cce613a92565b60808701528851613cde816133af565b84815264105b99d95b60da1b8882015260a08701528851878101918252635241434560e01b8a82015260248152613d148161341b565b519020946103e8860660ff166102bc811015613d5d575050505060046003841610156124e857603160f81b926060911b160151935191613d53836133af565b6001835282015290565b9295945090925090610398811015613d9257505050601960f91b916006613d85920690613ab3565b51935191613d53836133af565b6103de9192945010600014613db55750603360f81b916006613d85920690613ab3565b600d60fa1b92506006613d85920690613ab3565b604051613df360208281613de681830196878151938492016132ea565b8101038084520182613436565b5190209064243ab6b0b760d91b8214801561404b575b801561403a575b8015614026575b8015614017575b8015614006575b15613e6457600f91506040516020810191825263424f445960e01b604082015260248152613e528161341b565b51902016600381018091116124d25790565b6523b7b13634b760d11b8203613e7b575050601490565b6512dbd89bdb1960d21b8203613e92575050601b90565b624f726360e81b8203613ea6575050601590565b634f67726560e01b8203613ebb575050601690565b64476e6f6d6560d81b8203613ed1575050601a90565b6429b0ba3cb960d91b8203613ee7575050601d90565b650a6cae4c2e0d60d31b8203613efe575050600290565b6726b4b737ba30bab960c11b8203613f17575050601890565b624f6e6960e81b8203613f2b575050601790565b64111c9e585960da1b8203613f41575050601c90565b66223930b3b7b7b760c91b8203613f59575050601e90565b6656616d7069726560c81b82148015613ff5575b15613f79575050601390565b69486f6d756e63756c757360b01b8203613fc757601e91506040516020810191825263424f445960e01b604082015260248152613fb58161341b565b51902006600181018091116124d25790565b50642232b6b7b760d91b8103613fdd5750601990565b64105b99d95b60da1b03613ff057600190565b600190565b5064263cb1b0b760d91b8214613f6d565b5064506978696560d81b8214613e25565b506222b63360e91b8214613e1e565b506748616c666c696e6760c01b8214613e17565b5064466169727960d81b8214613e10565b5064223bb0b93360d91b8214613e09565b600d546001600160a01b0316330361407057565b60405163118cdaa760e01b8152336004820152602490fd5b813b614095575b50505050565b604051630a85bd0160e11b8082523360048301526001600160a01b039283166024830152604482019490945260806064820152602095929091169390929083906140e390608483019061330d565b039285816000958187895af184918161418c575b50614157575050503d60001461414f573d61411181613457565b9061411f6040519283613436565b81528091843d92013e5b8051928361414a57604051633250574960e11b815260048101849052602490fd5b019050fd5b506060614129565b919450915063ffffffff60e01b160361417457503880808061408f565b60249060405190633250574960e11b82526004820152fd5b9091508681813d83116141c9575b6141a48183613436565b810103126141c557516001600160e01b0319811681036141c55790386140f7565b8480fd5b503d61419a565b906141da82613457565b6141e76040519182613436565b82815280926141f8601f1991613457565b0190602036910137565b806000917a184f03e93ff9f4daa797ed6e38ed64bf6a1f01000000000000000080821015614338575b506d04ee2d6d415b85acef810000000080831015614329575b50662386f26fc100008083101561431a575b506305f5e1008083101561430b575b50612710808310156142fc575b5060648210156142ec575b600a809210156142e2575b60019081602161429a600187016141d0565b95860101905b6142ac575b5050505090565b600019019083906f181899199a1a9b1b9c1cb0b131b232b360811b8282061a8353049182156142dd579190826142a0565b6142a5565b9160010191614288565b919060646002910491019161427d565b60049193920491019138614272565b60089193920491019138614265565b60109193920491019138614256565b60209193920491019138614244565b60409350810491503861422b565b9081511561448e576040519161435b8361341b565b604083527f4142434445464748494a4b4c4d4e4f505152535455565758595a61626364656660208401527f6768696a6b6c6d6e6f707172737475767778797a303132333435363738392b2f6040840152805192600291600285018095116124d2576003948590046001600160fe1b03811681036124d2576143e19060029694961b6141d0565b926020840192829183518401976020890192835194600085525b8a81106144415750505050600393949596505251068060011461442e57600214614423575090565b603d90600019015390565b50603d9081600019820153600119015390565b836004919b989b019a8b51600190603f9082828260121c16870101518453828282600c1c16870101518385015382828260061c1687010151878501531684010151858201530196996143fb565b905060405161449c81613400565b6000815290565b604051906144b0826133e5565b60006080838281528260208201528260408201528260608201520152565b6144d66144a3565b5060408051916020926144f8848281613de681830196878151938492016132ea565b51902064243ab6b0b760d91b810361453657508060028092519361451b856133e5565b60048552840152820152600160608201526001608082015290565b64223bb0b93360d91b810361457157508060026001925193614557856133e5565b818552840152820152600460608201526001608082015290565b6523b7b13634b760d11b81036145ae57508060016004925193614593856133e5565b60028552840152820152600260608201526001608082015290565b64466169727960d81b81036145ea575080600460029251936145cf856133e5565b60018552840152820152600260608201526001608082015290565b6748616c666c696e6760c01b810361462857508060038092519361460d856133e5565b60048552840152820152600360608201526002608082015290565b6512dbd89bdb1960d21b81036146655750806002600692519361464a856133e5565b60038552840152820152600260608201526002608082015290565b6222b63360e91b810361469f57508060066003925193614684856133e5565b60028552840152820152600260608201526002608082015290565b624f726360e81b81036146d9575080600260039251936146be856133e5565b60048552840152820152600460608201526002608082015290565b634f67726560e01b81036147135750806002809251936146f8856133e5565b60058552840152820152600460608201526002608082015290565b64506978696560d81b810361474f57508060056002925193614734856133e5565b60038552840152820152600360608201526002608082015290565b64476e6f6d6560d81b810361478a57508060048092519361476f856133e5565b60058552840152820152600460608201526003608082015290565b6429b0ba3cb960d91b81036147c5575080600360089251936147ab856133e5565b818552840152820152600360608201526003608082015290565b650a6cae4c2e0d60d31b8103614801575080600860039251936147e7856133e5565b838552840152820152600360608201526003608082015290565b6726b4b737ba30bab960c11b810361483f575080600380925193614824856133e5565b60088552840152820152600360608201526003608082015290565b624f6e6960e81b810361487757508060038092519361485d856133e5565b818552840152820152600860608201526003608082015290565b64111c9e585960da1b81036148b257508060066003925193614898856133e5565b838552840152820152600560608201526003608082015290565b66223930b3b7b7b760c91b81036148ef5750806004809251936148d4856133e5565b60088552840152820152600560608201526004608082015290565b6656616d7069726560c81b810361492d57508060066007925193614912856133e5565b60048552840152820152600460608201526004608082015290565b64263cb1b0b760d91b81036149685750806004600892519361494e856133e5565b818552840152820152600560608201526004608082015290565b69486f6d756e63756c757360b01b81036149a757508060058092519361498d856133e5565b818552840152820152600660608201526004608082015290565b642232b6b7b760d91b81036149e3575080600360049251936149c8856133e5565b60078552840152820152600760608201526004608082015290565b64105b99d95b60da1b03614a1c578060086004925193614a02856133e5565b838552840152820152600560608201526004608082015290565b80600180925193614a2c856133e5565b818552840152820152600160608201526001608082015290565b614a4e6144a3565b506040805191602092614a70848281613de681830196878151938492016132ea565b5190206722bc383637b932b960c11b8103614a9757508060036002925193614a2c856133e5565b6920b23b32b73a3ab932b960b11b8103614ad857508060026001925193614abd856133e5565b60038552840152820152600360608201526001608082015290565b672a3930bb32b632b960c11b8103614b1757508060016003925193614afc856133e5565b60028552840152820152600360608201526001608082015290565b64139bdb585960da1b8103614b375750806003809251936145cf856133e5565b6a2a3930b4b6313630bd32b960a91b8103614b78575080600280925193614b5d856133e5565b60038552840152820152600260608201526001608082015290565b6b21b0b93a37b3b930b83432b960a11b8103614ba057508060026004925193614a2c856133e5565b692830ba343334b73232b960b11b8103614be057508060036001925193614bc6856133e5565b818552840152820152600260608201526001608082015290565b672bb0b73232b932b960c11b8103614c1e57508060046002925193614c04856133e5565b838552840152820152600160608201526001608082015290565b662b37bcb0b3b2b960c91b8103614c5a575080600280925193614c40856133e5565b818552840152820152600360608201526001608082015290565b6529b2b2b5b2b960d11b8103614c7c57508060026003925193614bc6856133e5565b6650696c6772696d60c81b8103614cb957508060036002925193614c9f856133e5565b838552840152820152600260608201526001608082015290565b672bb0bcb330b932b960c11b8103614cdd57508060026003925193614c04856133e5565b652937b0b6b2b960d11b8103614cff57508060026001925193614557856133e5565b67159859d8589bdb9960c21b8103614d23575080600460029251936145cf856133e5565b6414d8dbdd5d60da1b8103614d4457508060016004925193614593856133e5565b662834b7b732b2b960c91b8103614d675750806002600192519361451b856133e5565b672b32b73a3ab932b960c11b8103614da5575080600180925193614d8a856133e5565b60058552840152820152600260608201526001608082015290565b6915d85b99195c9b1d5cdd60b21b8103614de557508060026001925193614dcb856133e5565b838552840152820152600560608201526001608082015290565b664f64797373657960c81b8103614e2357508060056001925193614e08856133e5565b60028552840152820152600160608201526001608082015290565b652bb0b635b2b960d11b03614a1c578060016005925193614bc6856133e5565b90601e8110156124e85760051b019056fea2646970667358221220d7ff486ce8a10d521625706daedc52669a77b7f91106b7c913425b24d5add96164736f6c63430008180033",
  "linkReferences": {},
  "deployedLinkReferences": {}
}